:020000040800F2
:10000000A82F00209D010008132700087523000871
:1000100011270008ED0700083D430008000000001C
:1000200000000000000000000000000005010008C2
:10003000610800080000000049010008112A0008BA
:10004000B7010008B7010008B7010008B7010008B0
:10005000B7010008B7010008B7010008B7010008A0
:10006000B7010008B7010008B7010008B701000890
:10007000B7010008B7010008B7010008B701000880
:10008000B7010008B7010008B70100086542000881
:1000900071420008B7010008B7010008B701000865
:1000A000B7010008A52A0008B7010008B701000839
:1000B000B7010008B12A0008BD2A0008B7010008EE
:1000C000B7010008B7010008B7010008B701000830
:1000D000B7010008B7010008B7010008B701000820
:1000E000B7010008B7010008B7010008DFF810D019
:1000F00000F09AFA00480047CD4D0008AFF30080A9
:10010000A82F0020224B19680868B0E8F00F80F390
:100110000988BFF36F8F4FF0000080F311884EF015
:100120000D0E70470000000006480068006880F36C
:10013000088862B661B6BFF34F8FBFF36F8F00DFE1
:1001400000BF00BF08ED00E0EFF30980BFF36F8F41
:100150000F4B1A6820E9F00F106008B54FF05000FF
:1001600080F31188BFF34F8FBFF36F8F05F05AFEF6
:100170004FF0000080F31188BDE808401968086856
:10018000B0E8F00F80F30988BFF36F8F704700BFAE
:10019000A0000020EFF3058070470000064880476C
:1001A00006480047FEE7FEE7FEE7FEE7FEE7FEE75C
:1001B000FEE7FEE7FEE7FEE7A12A0008ED000008E3
:1001C000202A04DB203A21FA02F00021704721FAAC
:1001D00002F3D040C2F12002914008431946704713
:1001E00040EA01039B0703D009E008C9121F08C0B9
:1001F000042AFAD203E011F8013B00F8013B521E39
:10020000F9D27047D2B201E000F8012B491EFBD2AF
:1002100070470022F6E710B513460A460446194611
:10022000FFF7F0FF204610BD30B50B460146002019
:100230002022012409E021FA02F59D4205D303FAA8
:1002400002F5491B04FA02F52844151EA2F1010229
:10025000F1DC30BD2DE9F05F0546002092469B465B
:1002600088460646814640241BE0284641464746CC
:100270002246FFF7A5FF53465A46C01A914110D3B4
:1002800011461846224600F0E1F92D1A67EB0108E5
:100290004F4622460120002100F0D8F917EB000953
:1002A0004E41201EA4F10104DFDC484631462A46B7
:1002B0004346BDE8F09F2DE9FE4F804681EA0300EA
:1002C000C00F0C46009021F0004123F00045B8EB30
:1002D0000200A94105D24046214690461C460B46E5
:1002E000024623F00040104347D0270DC7F30A0011
:1002F000C3F30A510290401A019040286BDAC3F30D
:10030000130040F4801B0098924620B10023D2EBEA
:10031000030A63EB0B0B01985946C0F140025046AB
:1003200000F094F906460D4650465946019A00F0F1
:100330009CF910EB08006141002487EA115284EA1D
:10034000E7731A4340D0009A62B3019A012A4FEA38
:10035000075215DC001B61EB02014FF0004202EA7C
:100360000752CDE90042001C41F5801132462B4670
:1003700000F09CF903B0BDE8F08F40462146F9E754
:10038000001B61EB0201001C41F5801300185B416A
:100390002018A2F5001747EB030140EAD570B61903
:1003A0006D4111E06D084FEA360645EAC0754FEA27
:1003B0000752001B61EB0201001C41F58011490846
:1003C0004FEA30000019514132462B4603B0BDE8D8
:1003D000F04F00F05CB90098012240000023D0EB00
:1003E000020263EBE073009821464FEAE074B8EB39
:1003F000000061EB0401E9E783F000435BE781F073
:10040000004158E72DE9FE4F81EA030404F000445F
:1004100021F0004100944FF0000B23F0004350EA1C
:1004200001045ED052EA03045BD0C3F30A54C1F363
:100430000A552C44A4F2F3340194A0FB0254C1F3F6
:10044000130141F48011C3F3130343F4801301FB40
:10045000024400FB034E840A970A44EA815447EAA7
:100460008357A4FB076802958D0A05FB07854FEAB1
:10047000932C04FB0C542705029D4FEA065847EACB
:100480001637B5EB08056EEB070C870E920E47EAA0
:10049000811742EA8312A7FB0201B6EB0B0164EB62
:1004A00000042B0D43EA0C335E1844EB1C50DA4673
:1004B0005146E7FB0201C5F313044FEA0B3343EA4D
:1004C00014534FEA0432019C43EA0603A4F10C04DE
:1004D0000294009CCDE900B400F0E8F803B0BDE858
:1004E000F08F00200146F9E72DE9F04D81EA030481
:1004F00004F0004B21F0004514464FF0000A23F0B1
:10050000004150EA050220D054EA01021DD0C5F393
:100510000A570246C5F31303C1F31300C1F30A5689
:1005200040F4801543F48013A7EB0608101BD64651
:1005300008F2FD3873EB050002D308F1010801E071
:1005400092185B41B8F1000F03DA00200146BDE8C4
:10055000F08D00204FF48011064684460EE0171BF4
:1005600073EB050705D3121B63EB050306434CEA47
:10057000010C49084FEA300092185B4150EA01072C
:10058000EDD152EA030012D082EA040083EA0501A9
:10059000084305D0101BAB4106D20122002306E020
:1005A00000224FF0004302E06FF0010253101AEBFB
:1005B00006004CEB085110EB0A0041EB0B01BDE8C3
:1005C000F04D00F064B8C1F30A52C1F3130140F2D8
:1005D000FF3341F480119A4202DA0020014670474D
:1005E00040F233439A42A2F2334202DC5242FFF716
:1005F000E7BD00F02BB8000030B5041E71F1000417
:1006000004DB4FF00044404264EB0101141E73F11F
:10061000000405DB1C464FF00043524263EB040329
:10062000994208BF904230BD064C074D06E0E06895
:1006300040F0010394E8070098471034AC42F6D329
:10064000FFF758FD6C6A00088C6A0008202A04DB5A
:10065000203A00FA02F1002070479140C2F12003D5
:1006600020FA03F3194390407047202A06DBCB178A
:10067000203A41FA02F043EAE07306E041FA02F35D
:10068000D040C2F12002914008431946704710B58E
:10069000141E73F1000408DA401C41F100019218A5
:1006A0005B411A4301D120F0010010BD2DE9F04D4E
:1006B00092469B4611B1B1FA81F202E0B0FA80F2A3
:1006C00020329046FFF7C2FF04460F4640EA0A0078
:1006D00041EA0B0153465A46084313D0114653EAE8
:1006E000010019D0C8F140025046FFF769FD0546E8
:1006F0000E46504659464246FFF7A8FF084305D02C
:10070000012004E020463946BDE8F08D0020054375
:1007100046EAE0762C4337430A986305E40AA0EBE7
:1007200008000022FD0A44EA47540A3002D500209E
:100730000146E9E7010510196941DDE9084500199D
:100740006941BDE8F04DA2E770B58C1810F8015B67
:1007500015F0070301D110F8013B2A1106D110F85A
:10076000012B03E010F8016B01F8016B5B1EF9D15E
:100770002B0705D40023521E0DD401F8013BFAE7E4
:1007800010F8013BCB1A921C03E013F8015B01F84F
:10079000015B521EF9D5A142D8D3002070BD0000E4
:1007A00070B5044600688168C943C9071CD18168D7
:1007B00021F00101816000F0A1FA05460FE000BFC1
:1007C00000F09CFA401B022809D9A06A40F01000F2
:1007D000A062E06A40F00100E062012070BD206884
:1007E0008068C043C007EBD0002070BDFEE700204A
:1007F000704700207047000010B5002204490548EA
:1008000002F01CFB0449034802F012FB002010BD5B
:10081000DC0C002030040020F408002010B5014654
:10082000034802F005FB024802F0E6FA002010BD82
:1008300030040020094A10B5D2F8B822D2F81422A8
:100840000AB1012010BD0A460146044802F0F6FA3A
:10085000BDE81040014802F04FBB0000300400200A
:1008600070477047F8B50024009490F8242025467E
:10087000012A12D0012280F824204A681F23072A67
:100880000DD20668776B521E02EB820293409F43A3
:100890000B6893401F43776319E00220F8BD066898
:1008A0000D2A0AD2376BD21F02EB820293409F437C
:1008B0000B6893401F43376309E0F76A0D3A02EB78
:1008C000820293409F430B6893401F43F7620A687C
:1008D000072306680A2A0AD3F7680A3A02EB42029B
:1008E00093409F438B6893401F43F76008E037694C
:1008F00002EB420293409F438B6893401F43376152
:100900000A68102A01D0112A20D1124B02689A429B
:1009100017D193681B0219D4936843F400039360C2
:100920000968102912D10C490C4A0968B1FBF2F18F
:1009300001EB8101490000E0491E00910029FBD133
:1009400004E0816A41F020018162012480F8245092
:100950002046F8BD002401409C00002040420F00CA
:100960002DE9F0414FF0000704003D467ED0A06A1B
:10097000002628B9E66284F82460204600F07EF85C
:100980002046FFF70DFFA16AC90600D420B1A06A76
:1009900040F01000A06269E0A16A21F4885141F0A2
:1009A0000201A1626268E169237B0A4347EA4301CD
:1009B0000A43A1684FF48077B94209D0012907D0D2
:1009C0005FF0000194F814C0BCF1010F02D00AE0FE
:1009D0003946F7E7F3B1A36A43F02003A362E36A61
:1009E00043F00103E3622368D3F804C02CF4694C9C
:1009F0004CEA010CC3F804C021688B68DFF870C0B2
:100A000003EA0C0313438B60A168B9420BD00129A0
:100A100009D00CE0DFF85CC0A3690CEB43330B4357
:100A200043F40061DFE7218A0D05A5F580152168F3
:100A3000CB6A23F470032B43CB62216889680E4B89
:100A40001940914208D1E662A16A21F0020141F009
:100A50000101A162BDE8F081A06A20F0020040F02F
:100A60001000A062E06A40F00100E0620120F1E7BE
:100A7000FDF7E1FF00E0FFFFFE0E1FFF00B585B0B0
:100A80000021009101910291039100680E49884272
:100A900018D10E48816941F400718161816901F4C6
:100AA00000710491816941F00401816180696946A6
:100AB00000F00400049010200090032001900448EE
:100AC00000F01AF805B000BD0024014000100240FB
:100AD0000008014070B5044600F010F90546601C9E
:100AE00002D004480078044400F008F9401BA042FA
:100AF000FAD370BD900000202DE9F84FDFF8B891CF
:100B0000002409F1040A0AF1040B23460F270BF114
:100B1000040EC9E00125A5402A40AA427DD1674EB6
:100B2000D1F804C0ACEB0608B44532D014DCBCF1FB
:100B3000030F3AD009DCBCF1000F2AD0BCF1010F41
:100B40001CD0BCF1020F31D11DE0BCF1110F17D048
:100B5000BCF1120F2AD119E0B8F5881F19D006DCB4
:100B6000B8F5803F15D0B8F5801F1FD111E0B8F55A
:100B7000001F0ED0B8F5041F18D10AE0CB6815E0AD
:100B8000CB681B1D12E0CB6808330FE0CB680C3339
:100B90000CE08B682BB1012B4FF0080303D04561AB
:100BA00004E0042302E0056100E00023FF2A01D8ED
:100BB000064601E000F104064FEA840501D9A5F1DB
:100BC0002005D6F8008007FA05FC28EA0C0803FA8D
:100BD00005F548EA0508C6F800804D68ED0062D5C5
:100BE000374DAE6946F00106AE61AD6924F00306EB
:100BF00005F001050095334D06EB050CDCF80850B7
:100C0000A607360F07FA06F825EA0805DFF8B880C8
:100C1000404503D14FF0000817E044E0DFF8AC8016
:100C2000404502D14FF001080FE0DFF8A4804045B5
:100C300002D14FF0020808E0DFF89880404502D169
:100C40004FF0030801E04FF0040808FA06F848EAFC
:100C50000508CCF808804D68D9F80060ED034D46D2
:100C600001D5164300E096432E604D68DAF8006027
:100C7000AD03554601D5164300E096432E604D68FE
:100C8000DBF80060ED025D4601D5164300E09643B7
:100C90002E604D68DEF80060AD02754601D5164342
:100CA00000E096432E60641C0D682A46E5407FF400
:100CB00031AFBDE8F88F00000004014000001110C2
:100CC000001002400000014000080140000C0140FB
:100CD00000100140001401408068084000D001204D
:100CE0007047C26821EA02030A4043EA02410161F7
:100CF00070470AB1016170470904FBE70148806849
:100D0000704700009000002002488168027811447A
:100D10008160704790000020074810B5016841F0DD
:100D200010010160032000F095F8002000F006F8A3
:100D300000F03EF8002010BD0020024000B5014642
:100D400087B00022192000F065F8192000F054F84F
:100D50001348816941F400618161806905A900F44B
:100D600000600690684600F0E1FD00F00FFE0D49BE
:100D70000D4AB0FBF1F10D48491E0260416040F29E
:100D8000E7320021C0E90321816001F093F810B13E
:100D9000012007B000BD054801F0ECF8F9E70000BC
:100DA0000010024040420F00002C0140E8030020E8
:100DB0000F4808B5816941F001018161816901F045
:100DC00001010091C16941F08051C161C0690022F7
:100DD00000F0805000900F21901E00F01BF8054895
:100DE000416821F0E06141F00071416008BD000000
:100DF0000010024000000140002809DB00F01F0243
:100E0000012191404009800000F1E020C0F800116C
:100E100070470000F0B40E4B1B680C46C3F302236E
:100E2000C3F10705042D00D90425191D072901D296
:100E3000002300E0DB1E012606FA05F1491E2140D1
:100E400099409E40761E16403143F0BC03F092BAA2
:100E50000CED00E0064900F0070208684FF6FF03BA
:100E6000184040EA0220034A10430860704700001F
:100E70000CED00E00000FA0510B50C0607D501F0F6
:100E8000070101EB810100EBC100283005E001EB17
:100E9000810100EBC10000F5B47099B232B10122BA
:100EA00002730181190C4181002010BD00220273E0
:100EB000C180F9E7704701EB810200EBC202D0F874
:100EC000E802D26B02F0C9B901EB810200EBC20269
:100ED000D0F8E802D2F87C2102F022BA70B50446BC
:100EE0000B0601F0070000EB800104EBC1014FF09D
:100EF00001024FF0000503D581F82920283103E0D5
:100F000081F8695101F5B471087094F8A8020128BC
:100F100008D084F8A822206802F042FE84F8A85283
:100F2000002070BD022070BD70B5044601F00F00B6
:100F30006268904201D9012070BD0B0601F00700E4
:100F400000EB800104EBC1014FF001024FF00005FE
:100F500003D581F82920283103E081F8695101F592
:100F6000B4718D70087094F8A802012808D084F834
:100F7000A822206802F0B1FE84F8A852002070BDBB
:100F8000022070BD2DE9F05F04685FEA424C0B78E7
:100F90008D69B4F850C04FF000064BF68F7948F2D7
:100FA000800A48F68F7B48F2C00E4FF480672AD53E
:100FB0004FF0020808EBC308C44407EB4C07E45B9E
:100FC000C4F30904A54203D32D1B8D6101D00BE0AE
:100FD0008E61066836F8235005EA090585F4005548
:100FE00045EA0A0526F82350520609D50D7803680C
:100FF00033F8252002EA0B0242EA0E0223F82520EC
:1010000084B30A8929E04FF0060808EBC308C444FA
:1010100007EB4C07E45BC4F30904A54203D32D1B83
:101020008D6101D00BE08E61066836F8235005EA29
:10103000090585F4005545EA0A0526F823505206AD
:1010400009D40B78056835F8232002EA0B0242EA3E
:101050000E0225F823202CB14A89496900682346ED
:1010600003F010F92046BDE8F09F2DE9F05F05463A
:101070000C4600685FEA426C16462278A369B0F815
:1010800050C04FF0000148F68F774CF280094FF6C0
:10109000FF7B4FF4004E4FF4806A6CD54FF002088E
:1010A00008EBC208E0440AEB480C30F80C00C0F32F
:1010B0000900834211D91B1AA3610FD0730407D50D
:1010C0002E6836F822303B4043EA090326F82230E6
:1010D00094F82420012A08D0C6E0A16111462846D0
:1010E000FFF7E9FE70046CD4BEE0626902446261FD
:1010F000E2690244E2612369226A9A4202D31846F5
:10110000111A03E084F824100AB1104621626178B4
:1011100011B1012923D02BE02968B1F850201144E6
:10112000227801EB021101F2044148B13E280FD8A8
:101130004208C30700D0521C0BEA82220A8017E043
:101140000A8822F4F8420A800A8842F40042F5E74D
:101150004209C30600D1521E4EEA8222EEE72968F8
:10116000B1F850201144227801EB0211A1F80404D7
:1011700083B2228974E04FF0060808EBC208E0440D
:101180000AEB480C30F80C00C0F30900834211D37D
:101190001B1AA3610FD0730407D42E6836F82230CF
:1011A0003B4043EA090326F8223094F82420012A20
:1011B00011D059E0A16111462846FFF77CFE70046A
:1011C00052D42278296831F82200384040EA0900D8
:1011D00021F8220048E0626902446261E269024447
:1011E000E2612369226A9A4203D31846111A2162E6
:1011F00004E00AB11046216284F82410627829685C
:1012000012B1012A22D029E0B1F8502011442278ED
:1012100001EB021101F20C4148B13E280FD84208FF
:10122000C30700D0521C0BEA82220A8016E00A880B
:1012300022F4F8420A800A8842F40042F5E74209A3
:10124000C30600D1521E4EEA8222EEE7B1F85020CA
:101250001144227801EB0211A1F80C04628983B2D7
:101260006169286803F02CF82278296831F8220097
:1012700048F6BF73184080F0300048F280031843EE
:1012800021F822000020BDE8F09F01F0070101EBEA
:10129000810100EBC100D0F8840170472DE9F041D5
:1012A00004460F0601F0070000EB800104EBC101CA
:1012B0004FF001064FF0000503D581F82960283171
:1012C00003E081F8695101F5B47108700A61CB70CF
:1012D0004A7802B1C881022B00D10D7194F8A8029E
:1012E000012809D084F8A862206802F02BFB284668
:1012F00084F8A852BDE8F0810220FBE770B50C46E7
:1013000001F0070505EB850100EBC101C1E95F2391
:101310000022C1F8842181F8692181F8685101F522
:10132000B4716207006802F02DFD002070BD70B539
:1013300004460D4601F007006168884201D901208A
:1013400070BD29064FF000064FF0010207D500EBF3
:10135000800104EBC10181F82920283107E005EB69
:10136000850104EBC10181F8696101F5B4718A70EE
:10137000087094F8A802012807D084F8A8222068F1
:1013800002F0E7FC680702D006E0022070BD04F519
:101390002C71206802F09FFC84F8A862002070BDC8
:1013A00070B50C4601F0070505EB850100EBC101A6
:1013B000C1E90F23012281F84C208B6400234B6488
:1013C00081F8292001F8285F6207006802F0DAFC42
:1013D000002070BD1FB50446006802F04FFF0004F6
:1013E00002D5204601F096F9206802F047FF40053B
:1013F0000CD5206830F8441F21F48061018020461C
:1014000000F026F90021204600F03DF9206802F0A6
:1014100035FF400405D5206830F8441F21F4804191
:101420000180206802F02AFF800405D5206830F88A
:10143000441F21F400510180206802F01FFFC00406
:1014400014D5206830F8401F21F004010180206885
:1014500030F8401F21F008010180204600F00BF910
:10146000206830F8441F21F480510180206802F088
:1014700005FF00053ED522680020694632F820307D
:1014800021F81030401CC0B20828F7D332F8400FC2
:1014900040F001001080206830F8402F22F0010257
:1014A00002802068B0F844205205FBD530F8442F64
:1014B00022F4806202800020236831F8102023F893
:1014C0002020401CC0B20828F6D3206830F8401F06
:1014D00041F008010180206830F8441F21F40061C8
:1014E0000180206830F8401F41F00401018020464F
:1014F00000F0FEF8206802F0C1FE800508D52068E3
:1015000030F8441F21F400710180204600F0B7F844
:10151000206802F0B3FEC00505D5206830F8441FEE
:1015200021F4807101801FBD2DE9F04186B00400D7
:1015300004D094F8A902002520B108E0012006B0EB
:10154000BDE8F08184F8A852204600F05BF8032043
:1015500084F8A902206802F0B7FB04F110011422FC
:1015600088466846FEF73CFE94E80F0002F016FB42
:101570000226D0BB0021206802F09AFE002001273D
:101580000FE000BF00EB800104EBC10181F829707E
:1015900001F8280FC881CD700D614D61401CC0B2AB
:1015A0008D6161688142EDD8002011E000EB80017F
:1015B00004EBC10181F8695181F8680181F86B5130
:1015C000C1F87851C1F87C51401CC0B2C1F88051BB
:1015D00061688142EAD8142241466846FEF700FE5F
:1015E00094E80F0002F067FB10B184F8A962A5E748
:1015F00084F8245084F8A972206802F05AFB002075
:101600009DE7000008B500680F4988421AD10F48CD
:10161000C16941F40001C161C069002200F4000009
:10162000009005211320FFF7F5FB1320FFF7E4FBE3
:10163000002205211420FFF7EDFBBDE8084014202F
:10164000FFF7DABB08BD0000005C0040001002405C
:1016500070B5044680680125022801D0FFF701F922
:101660002946D4F8E80201F044FFD4F8E802BDE8C6
:10167000704001F000BFD0F8E80201F024BFD0F8BC
:10168000E80201F02ABF10B5044690F8A80201282C
:101690000BD0012084F8A80284F82410206802F0FE
:1016A00009FE002084F8A80210BD022010BDD0F869
:1016B000E82200F52C71104601F027BF10B5044652
:1016C00090F8A802012810D0012084F8A802206810
:1016D00002F0BFFD01212046FFF7ECFB206802F07D
:1016E000E6FA002084F8A80210BD022010BD000018
:1016F00010B50446D0F8E80201F046FFA0690028C2
:1017000004D00348016841F00601016010BD0000EB
:1017100010ED00E02DE9F84305460078354CC00790
:1017200054D0E0690026C00008D4E06940F0805041
:10173000E061E069012600F0805000902E480168C9
:10174000C90512D40168804641F480710160FFF739
:10175000D5FA074605E000BFFFF7D0FAC01B6428A2
:1017600023D8D8F80000C005F6D5206A10F44070E0
:1017700021D0A98801F4407181421CD0206A1F4900
:10178000012220F440700A6000220A602062C00733
:1017900011D0FFF7B3FA074641F2883808E000BFDE
:1017A000FFF7ACFAC11B414502D90320BDE8F8831D
:1017B000206A8007F4D5206A696820F440700843E5
:1017C00020621EB1E06920F08050E0612878800737
:1017D00005D56068A96820F4404008436060287817
:1017E000C00605D56068E96820F4800008436060A1
:1017F0000020DBE70010024000700040400442423D
:101800002DE9F0470F46050061D0434E306800F0E7
:101810000700B84209D2306820F007003843306032
:10182000306800F00700B84251D128683B4C81076E
:1018300012D5400703D5606840F4E0606060287806
:10184000000703D5606840F4605060606068A96874
:1018500020F0F000084360602878C00728D068684E
:10186000012810D02168022810D0890700292EDA1B
:10187000616821F0030101436160FFF73FFA804690
:1018800041F288390DE021688903EFE78901EDE72E
:10189000FFF734FAA0EB0801494502D90320BDE85F
:1018A000F0876068696800F00C00B0EB810FEFD141
:1018B000306800F00700B8420BD9306820F007000C
:1018C00038433060306800F00700B84201D0012092
:1018D000E5E72878400705D56068E96820F4E0600E
:1018E000084360602878000706D56068296920F4FD
:1018F000605040EAC100606000F058F86168084A32
:10190000C1F30311515CC8400649086006480068ED
:10191000FFF714FA0020C2E7002002400010024046
:10192000F06900089C000020940000200F22026053
:101930000C4A536803F003034360536803F0F00359
:101940008360536803F4E063C36052684FF4E0635C
:1019500003EAD20202610448006800F00700086050
:101960007047000000100240002002400448054972
:1019700000684968044AC1F30221515CC8407047BD
:101980009C00002000100240006A0008044805493D
:1019900000684968044AC1F3C221515CC8407047DD
:1019A0009C00002000100240006A000812A185B0CF
:1019B0000FC98DE80F0014A0144A00680490516804
:1019C000134801F00C03042B10D0082B0ED1C1F3E7
:1019D0008343C9031DF803000AD5516804AAC1F363
:1019E0004041515C0A4A5043B0FBF1F005B07047EA
:1019F00008494843FAE700000203040506070809FE
:101A00000A0B0C0D0E0F1010010200000010024016
:101A100000127A0000093D002DE9F84F040070D053
:101A20002078C04DC00749D06868C0F38100012804
:101A300007D06868C0F38100022809D16868C00334
:101A400006D52868800339D560680028E7D035E0DE
:101A50006068B0F5803F0BD010B1B0F5A02F11D069
:101A6000286820F480302860286820F4802002E074
:101A7000286840F480302860606890B1FFF73EF934
:101A800006460AE0286840F480202860F0E700BF9E
:101A9000FFF734F9801B642873D828688003F7D5D2
:101AA0000CE0FFF72BF9064605E000BFFFF726F92B
:101AB000801B6428F0D828688003F7D420789A4ED9
:101AC00080074FF001094FF0000839D5686810F021
:101AD0000C0F07D06868C0F38100022809D168683C
:101AE000C00306D42868800714D52069012808D1CE
:101AF00010E02069B0B1C6F80090FFF7FFF8074684
:101B000005E00AE1FFF7FAF8C01B0228C4D82868EC
:101B10008007F7D52868616920F0F80040EAC10025
:101B200028600DE0C6F80080FFF7E8F8074604E0FB
:101B3000FFF7E4F8C01B022823D828688007F7D4F1
:101B4000207800072CD57948A169D9B1C0F8009058
:101B5000FFF7D4F8074604E0FFF7D0F8C01B0228CF
:101B60000FD8686A8007F7D571484FF4FA510068BA
:101B7000B0FBF1F0009000BF0098411E0091FAD236
:101B80000EE080E0C0F80080FFF7B8F8074604E0F8
:101B9000FFF7B4F8C01B022875D8686A8007F7D42D
:101BA0002078400760D5E8690027C00008D4E869BC
:101BB00040F08050E861E869012700F08050009013
:101BC0005C480168C90513D40168834641F48071FB
:101BD0000160FFF793F8824606E000BFFFF78EF83A
:101BE000A0EB0A0064284ED8DBF80000C005F5D54C
:101BF000E06801280AD008B1052813D0286A20F02F
:101C000001002862286A20F0040002E0286A40F0FF
:101C100001002862E06841F2883B98B1FFF76EF856
:101C200082460BE0286A40F004002862EEE700BF1D
:101C3000FFF764F8A0EB0A0159455AD8286A8007D3
:101C4000F6D50CE0FFF75AF8824605E0FFF756F8A4
:101C5000A0EB0A0159454CD8286A8007F6D41FB179
:101C6000E86920F08050E861E06988B36968C1F3F1
:101C70008101022944D00228C6F8608004D0FFF711
:101C80003DF8044638E034E0FFF738F8074604E052
:101C9000FFF734F8C01B02282BD828688001F7D43E
:101CA000206AB0F5803F05D16868A16820F4003053
:101CB00008436860D4E908010843696821F4741195
:101CC00008436860C6F86090FFF718F8044606E01D
:101CD00025E000BFFFF712F8001B022809D828688A
:101CE0008001F7D51BE000BFFFF708F8001B0228B2
:101CF00002D90320BDE8F88F28688001F4D40EE0F3
:101D00000128F7D06868226A00F48031914204D13A
:101D1000616A00F47010884201D00120EAE70020D7
:101D2000E8E7000000100240000042428004424206
:101D30009C0000200070004070B5040009D0606A6B
:101D4000002540B125616561A56294F8510040B15C
:101D50000CE0012070BD6068B0F5827FF4D0E561D1
:101D6000F2E784F85050204600F040F8022084F852
:101D700051002068016821F040010160A08821899C
:101D800000F4827001F404410843A18901F4006168
:101D90000843217C01F002010843217D01F001018B
:101DA0000843218B01F400710843217F01F03801C1
:101DB000084394F8201001F080010843218D01F4BC
:101DC0000051084321680860A069042101EA10401D
:101DD000216848602068C16921F40061C1616565BE
:101DE000012084F85100002070BD000000B585B0CE
:101DF0000021009101910291039100680F498842EE
:101E00001AD10F48816941F480518161816901F4DF
:101E100080510491816941F00401816180696946C2
:101E200000F004000490A020009002200190032004
:101E300003900448FEF760FE05B000BD003001408D
:101E400000100240000801407047704770B590F8DC
:101E50003C20012A26D0012480F83C40022280F850
:101E60003D2003685A689D6822F070060A68324374
:101E70005A600D4B02689A4208D0B2F1804F05D0EB
:101E80000A4B9A4202D00A4B9A4204D1496825F083
:101E900080031943916080F83D40002180F83C1098
:101EA000084670BD022070BD002C014000040040B7
:101EB0000008004010B5040003D094F83D0010B1B4
:101EC00007E0012010BD002084F83C00204600F00F
:101ED0001FF8022084F83D00211D206800F0F4FD69
:101EE000012084F8460084F83E0084F83F0084F81E
:101EF000400084F8410084F8420084F8430084F8EC
:101F0000440084F8450084F83D00002010BD000026
:101F100008B5154A0168154891420ED1C16941F0D2
:101F20000201C161C069002200F002000090052199
:101F30001D20FEF76FFF1D2010E00D4A914211D1C8
:101F4000C16941F00401C161C069002200F00400D0
:101F5000009005211E20FEF75DFF1E20BDE8084011
:101F6000FEF74ABF08BD0000000400400010024018
:101F70000008004090F83D10012901D00120704771
:101F8000022180F83D100168CA6842F00102CA606F
:101F900000680B49884208D0B0F1804F05D009494C
:101FA000884202D00849884204D1816801F00701C3
:101FB000062903D0016841F001010160002070474B
:101FC000002C0140000400400008004070B50446A9
:101FD00090F83C00012817D0012584F83C500220DD
:101FE00084F83D002068826822F0770222F47F4264
:101FF00082600868502830D00DDC20284DD005DCE8
:1020000098B310283BD148E0022070BD302844D05E
:10201000402834D139E0602828D0702806D0B0F5A7
:10202000805F2CD0B0F5005F29D10AE0CB68D1E900
:102030000121206800F07EFD2068816841F0770171
:1020400009E0CB68D1E90121206800F073FD206828
:10205000816841F48041816011E0CA684968206864
:1020600000F07AFD5021206807E016E0CA68496850
:10207000206800F082FD6021206800F065FD84F892
:102080003D50002084F83C0070BDCA684968206853
:1020900000F062FD40212068EFE72268014610460B
:1020A000EBE7704770B50446006801694FF0000522
:1020B000C943890715D4C168C943890711D4E91EEA
:1020C000016101202077206880698007204602D0C6
:1020D000FFF7E7FF04E000F098F8204600F096F8DC
:1020E000257720680169C943490717D4C168C943E6
:1020F000490713D46FF004010161022020772068A2
:10210000806910F4407F204602D0FFF7CAFF04E048
:1021100000F07BF8204600F079F825772068016907
:10212000C943090716D4C168C943090712D46FF01F
:1021300008010161042020772068C06980072046DB
:1021400002D0FFF7AEFF04E000F05FF8204600F099
:102150005DF8257720680169C943C90617D4C168AD
:10216000C943C90613D46FF010010161082020771C
:102170002068C06910F4407F204602D0FFF791FF2D
:1021800004E000F042F8204600F040F8257720688F
:102190000169C943C90708D1C168C943C90704D146
:1021A000891E0161204600F033F820680169C943A7
:1021B000090609D4C168C943090605D46FF0800136
:1021C00001612046FFF740FE20680169C9434906C6
:1021D00009D4C168C943490605D46FF040010161C3
:1021E000204600F037F820680169C94389060BD4FE
:1021F000C168C943890607D46FF0200101612046F8
:10220000BDE87040FFF721BE70BD70477047000009
:1022100010B5044600680C49884201D1FEF774FDF0
:102220000A49206888420ED102F074FD08480178FE
:10223000491CC9B20170052905D900210170BDE80A
:10224000104002F0DFBD10BD002C0140000800402E
:1022500011000020704770B5040004D094F83900D4
:10226000002510B106E0012070BD84F838502046EA
:1022700000F022F8242084F839002068C16821F495
:102280000051C160204600F08BFC2068016921F4F8
:10229000904101612068416921F02A014161206873
:1022A000C16841F40051C160E563202084F8390021
:1022B00084F83A00002070BD70B586B00024009408
:1022C00001940294039403682648254E02210322B8
:1022D0000515B3421ED1836943F48043836183694A
:1022E00003F480430493836943F0040383618069AA
:1022F0001D4E00F0040004900802CDE90001039295
:1023000069463046FEF7F8FBCDE900546946304691
:10231000029420E0154EB3421FD1C36943F48023D9
:10232000C361C36903F480230493836943F0080302
:1023300083618069CDE9005100F00800CDE90320F8
:102340000B4D69462846FEF7D7FBE814CDE900049B
:10235000694628460294FEF7CFFB06B070BD000028
:1023600000380140001002400008014000480040D1
:10237000000C0140FEE70000F0B500230A243025E0
:1023800037261F4611E000BFB4EB107F02D905EBE2
:10239000107C01E006EB107C01F813C001EB430C4C
:1023A00000015B1C8CF80170DBB29342ECD3F0BDF2
:1023B0003EB500211148009101910F4A029102603F
:1023C00081600173017501244FF460220461C261D0
:1023D0004160FEF7C5FA08B1FEF743FA0420CDE9E3
:1023E00000040720029069460448FEF73BFA0028E3
:1023F00001D0FEF736FA3EBD002401405002002015
:1024000010B5144A1621052002F0EEFD124C114AB7
:1024100000212061903A114802F020FE0D4A206010
:102420006C3A00210E4802F019FE0A4A6060483AF0
:1024300000210C4802F012FE064AA060243A002156
:10244000094802F00BFEE0600248183002F06EFD11
:10245000606110BDA469000814000020015100084B
:102460002D5A0008255A0008554C00082DE9F04166
:1024700086B000242B48009401940294039481694F
:1024800041F020018161816901F02001049181699D
:1024900041F004018161816901F0040104918169C5
:1024A00041F00801816180691F4F00F0080004902D
:1024B00000220F213846FEF71CFCDFF87080002256
:1024C00017214046FEF715FC01224FF4E04140463B
:1024D000FEF70FFC0F2001250226CDE90005CDE90E
:1024E000024669463846FEF707FB4020CDE9000466
:1024F000694638460294FEF7FFFA47F21700CDE925
:102500000005CDE9024669464046FEF7F5FA60202F
:102510008DE8310069464046FEF7EEFA06B0BDE8A8
:10252000F08100000010024000080140000C014052
:10253000114810B50F4901604FF4827141604FF4AA
:10254000004181600021C1604FF400720161C0E967
:1025500005123022C0E90721416281620A21C1626D
:10256000FFF7EAFB002803D0BDE81040FEF779B979
:1025700010BD0000003001408002002010B586B080
:10258000002417480094019402940394049413497E
:10259000059401606321C0E9011440F2CF21C0E934
:1025A00003148461FFF786FC08B1FEF75AF94FF473
:1025B0008050009069460A48FFF708FD08B1FEF711
:1025C00050F9049404A906480594FFF73FFC00283D
:1025D00001D0FEF746F906B010BD0000000400402F
:1025E000D802002010B586B000241748009401944A
:1025F0000294039404941349059401604721C0E9AF
:1026000001146321C0E9031480218161FFF752FCAA
:1026100008B1FEF726F94FF48050009069460A4849
:10262000FFF7D4FC08B1FEF71CF9049404A906488E
:102630000594FFF70BFC002801D0FEF712F906B055
:1026400010BD000000080040200300200C4810B519
:102650000A4901604FF4E1314160002181600C22A0
:10266000C160C0E904128161C161FFF7F4FD002877
:1026700003D0BDE81040FEF7F4B810BD00380140AB
:10268000680300200C4810B50A4901604FF4E1319D
:102690004160002181600C22C160C0E904128161A7
:1026A000C161FFF7D8FD002803D0BDE81040FEF758
:1026B000D8B810BD00480040A803002010B5002283
:1026C0000F49104800F0A2FD08B1FEF7CAF80E4904
:1026D0000C4800F07FFF08B1FEF7C3F80B4909482A
:1026E00000F09EFB08B1FEF7BCF8064800F0C8FFFA
:1026F000002803D0BDE81040FEF7B3B810BD0000BD
:102700003000002030040020F40100208000002070
:10271000FEE770472DE9F84F044640F68F7B48F6F8
:102720000F7A4FF002094FF4806868E1B0F8441066
:1027300011F00F0638D030F8267039047ED530F805
:10274000261001EA0B0141F0800120F8261006EB6B
:10275000860004EBC00595F8740105F5B4750028F2
:102760006DD0E87802286BD02A78216831F82200F1
:1027700048F68F73184048F2C003184321F822002E
:102780002978206830F82120B0F8503052047DD5E7
:1027900009EBC1015A1808EB4201415A8905890D1C
:1027A000009174D02A89D2E0C9062DD4018801EAAB
:1027B0000A0141F400410180206804F12805B0F8C5
:1027C00050302A7809EBC2015A1808EB4201405AEE
:1027D000C0F309006064E16B0844E0630021204617
:1027E000FEF769FB94F8240000289ED0A869002811
:1027F0009BD194F8240040F080012068A0F84C1090
:10280000002084F82400FAE0018804F5B4750A0574
:1028100021D5B0F850302A78062101EBC2015A18B0
:1028200008EB4201405A04F52C71C0F30903EB6137
:10283000EA88206801F026FD216802E0A2E062E05B
:1028400072E0088800EA0B0040F080000880204613
:10285000FEF72DFFD3E00904D5D5018801EA0B016D
:1028600041F0800101802068B0F850202B780621CB
:1028700001EBC3010A4408EB4201405A83059B0D5A
:10288000EB6110D0696971B1EA8801E053E051E071
:10289000206801F0F7FCE969686908446861002173
:1028A0002046FEF711FB2068B0F850100844296953
:1028B00000F20C4051B13E2910D84A08C90700D097
:1028C000521C4FF6FF7101EA82210FE0018821F4CA
:1028D000F8410180018841F4004107E04A09C90636
:1028E00000D1521E4FF4004141EA8221018020684C
:1028F00001884BF68F72114081F4405148F28002FA
:10290000114301807BE02068B0F850102A7806233C
:1029100003EBC2020A4408EB4201415A8905890DC2
:10292000009118D0EA8812E03A4629462046FEF780
:1029300029FB00900FE0062202EBC1015A1808EBB8
:102940004201415A8905890D009104D06A8969695B
:10295000009B01F097FCE96900980844E861696907
:10296000009808446861A86918B1296900988142F3
:1029700004D929782046FEF7A7FA03E02946206803
:1029800001F000FA38063AD5226806EB860004EB1F
:10299000C00132F8260000EA0A0040F4004022F8A4
:1029A000260091F82B002831022801D1F80522D405
:1029B0002268B2F850300D7809EBC500034408EBEB
:1029C0004300105A8A69C0F3090082420CD9121AD6
:1029D0008A610BD04A6902444A61CA691044C861DD
:1029E000206801F0CFF90AE000208861E9B22046B2
:1029F000FEF761FA03E03A462046FEF736FB206810
:102A0000B0F8441009043FF591AE0020BDE8F88FFE
:102A100010B5502080F31188BFF34F8FBFF36F8F35
:102A200003F096FD18B104494FF080500860002073
:102A300080F3118810BD000004ED00E030B593B0C4
:102A400028216846FDF7E5FB14210AA8FDF7E1FB04
:102A5000002401200F9410941194010412948DE825
:102A6000130004904FF4E010CDE9081002250795FB
:102A70006846FEF7D1FF0F20CDE90A056802CDE9CF
:102A80000C4002210AA80E94FEF7BAFE12200F9005
:102A9000A803CDE911040FA8FEF73CFE13B030BD2A
:102AA000704700000148FFF7FDBA0000E80300206E
:102AB0000148FFF7F7BA0000D80200200148FFF7ED
:102AC000F1BA000020030020F0B50268164B174C45
:102AD000174D4FF08047984205D0B84203D0A0422E
:102AE00001D0A84203D122F070064A6832439842CE
:102AF00005D0B84203D0A04201D0A84203D122F4AD
:102B00004074CA6822434C6922F08002224302606A
:102B10008A68C2620A688262984201D109690163C7
:102B200001214161F0BD0000002C01400004004083
:102B30000008004010B5846842EA032224F47F4470
:102B40000A432243826010BD826822F070020A4369
:102B500042F007018160704710B5036A046A24F0EF
:102B600001040462846924F0F00444EA021423F0AE
:102B70000A020A438461026210BD10B5036A23F0A1
:102B8000100303628369046A23F4704343EA023248
:102B900024F0A00343EA01118261016210BD00002C
:102BA00070B5044600680169E26821F440511143A0
:102BB00001612169A0680843616908432168CA6806
:102BC00041F20C639A430243CA6020684169A269DA
:102BD00021F44071114341611E492068884202D1AD
:102BE000FEF7D4FE01E0FEF7C1FE00EBC00101EBF1
:102BF0000012606864218000B2FBF0F3B3FBF1F3D4
:102C00006FF018067343B2FBF0F5B2FBF0F605EB7C
:102C10008305322303EB0515B5FBF1F5B6FBF1F6A1
:102C200005F0F00505EB0615B2FBF0F6B2FBF0F08F
:102C3000B0FBF1F06FF01802504306EB800003EB9D
:102C40000010B0FBF1F0216800F00F00284488600C
:102C500070BD0000003801402DE9F041D0F8C032CD
:102C6000D0F8B822CAB101EB810500EB850400263B
:102C7000E7693FB103EBC5039B6BB7FBF3F503FBC0
:102C8000157323B1C2F814620020BDE8F08100235F
:102C90001A46E66100F081FCF6E70220F5E770B520
:102CA0000546D0F8B84200F07CFBC4F80C02D5F819
:102CB000B80248B1D5F8BC12D4F80402CA6804F5C9
:102CC00003719047002070BD022070BD70B50446AE
:102CD0000026812100F0B8FA002501212046E56296
:102CE00000F0B2FA82212046C4F86C5100F0ACFA30
:102CF0002564D4F8B80248B1D4F8BC0204F52E74A7
:102D000040688047206800F018FE2560304670BD9E
:102D100010B5D0E9AE4159B194F80002FF2807D0B0
:102D20008B6894F8012221469847FF2084F800021E
:102D3000002010BD0A210180004870471C010020BE
:102D400043210180004870476C010020432101802D
:102D50000048704728010020432101800048704747
:102D6000B00100202DE9F04104460026007C4FF41C
:102D70000077012590B3402302228121204600F0F4
:102D800065FB4023E56202220121204600F05EFB44
:102D90000823032282212046C4F86C5100F056FB20
:102DA0004FF40770256400F0C9FDC4F8B802F8B10B
:102DB0000546D4F8BC02006880470020C5F814021C
:102DC000C5F81802207CD5F8042298B140230121CF
:102DD000204600F047FB3046BDE8F081FFE73B4668
:102DE00002228121204600F031FB3B46E562CAE722
:102DF0000126F0E73B46EAE710B5D0F8B81269B112
:102E0000027C002AD1F8042205D04023012100F0E1
:102E100029FB002010BD4FF40073F7E7022010BD1E
:102E200002460220002902D00020C2F8BC127047DE
:102E3000D0F8B802C0F8041200207047D0F8B802E9
:102E4000C0F81022C0F80812002070472DE9FC419C
:102E50000546D0F8B87200208DF80000ADF80400E7
:102E6000064608780C4610F0600121D020293BD19D
:102E7000E288AAB10006607807D5D5F8BC128B6845
:102E800039469847E288394626E087F80002A0795B
:102E900087F80102E2883946284600F06AF828E0FF
:102EA000D5F8BC12607800228B682146984720E054
:102EB000607820B10A2809D00B2815D110E095F8C8
:102EC0009C02032810D1022201A905E095F89C027A
:102ED000032809D101226946284600F064F808E079
:102EE00095F89C02032804D02146284600F036F8C5
:102EF00002263046BDE8FC8110B5D0F8B812A1B169
:102F0000D1F814220AB1012010BD0122C1F8142207
:102F1000D1F810220263B1F8102293B2D1F808223E
:102F2000812100F03AFB002010BD022010BD10B539
:102F3000D0F8B42252689047002010BD134610B557
:102F40000A46002100F08EFA002010BD134610B58D
:102F50000A46002100F021FB002010BD10B50446F8
:102F6000802100F0FFFA2046BDE81040002100F06B
:102F7000F9BA10B50323C0F85C21C0F89432C0F848
:102F8000602113460A46002100F06CFA002010BDB3
:102F900010B505210023C0F894121A46194600F016
:102FA00061FA002010BD10B50223C261C0F894324E
:102FB000026213460A46002100F0EFFA002010BD1D
:102FC00010B504210023C0F894121A46194600F0E7
:102FD000E4FA002010BD000010B50A46024903A023
:102FE00000F0E4F8004810BDF406002043444320FC
:102FF000436F6E66696700001220088000487047C2
:103000005000002010B50A46024903A000F0CEF897
:10301000004810BDF406002043444320496E746507
:1030200072666163650000000420088000487047F4
:103030004C00002010B50A46024903A000F0B6F883
:10304000004810BDF406002053544D6963726F654B
:103050006C656374726F6E696373000010B50A4625
:10306000024903A000F0A2F8004810BDF4060020B9
:1030700054797065577269746572205669727475F7
:10308000616C20436F6D506F7274000010B51A2090
:1030900008800A480168001D0468001D00680818BF
:1030A00009D008220649FFF767F9054904221031C3
:1030B0002046FFF761F90248801E10BDE8F7FF1FA8
:1030C00066000020F8B504460020ADF800004888EE
:1030D0000D46010A082948D2DFE801F04704091724
:1030E00047473C45D4F8B012207C0A6819E0207CA0
:1030F00002260028D4F8B40205D0C16A6846884781
:10310000014646703EE0816AF8E7C0B206282CD23C
:10311000DFE800F0030A1014181CD4F8B00242686B
:1031200005E0694690471CE0D4F8B0028268E2B13D
:10313000207CF6E7D4F8B002C268F8E7D4F8B00211
:103140000269F4E7D4F8B0024269F0E7D4F8B002BB
:103150008269ECE7207C40B9D4F8B402416B684640
:10316000884701460EE0207C20B129462046FFF723
:10317000F5FEF8BDD4F8B402016B684688470146F5
:1031800007204870BDF8000048B1EA8852B1824279
:1031900000D90246ADF800202046FFF704FFE8887A
:1031A0000028E6D12046FFF70BFFF8BD70B50023DD
:1031B00000281ED00446002502E06D1CEDB2641C00
:1031C0002678002EF9D1022404EB450414801278ED
:1031D000CA545B1C0322CA5400245B1C06E0CA5478
:1031E0005B1CDAB28C54521CD3B2401C0278002A09
:1031F000F5D170BD01004FF0000004D0012901D0CD
:10320000022901D0022070470120704710B580B11B
:10321000D0F8B43213B10023C0F8B43209B1C0F809
:10322000B012012180F89C12027000F0BFF800205B
:1032300010BD022010BD10B5D0F8C002FDF774FE1D
:10324000BDE81040FFF7D6BF10B5D0F8C002FDF7BB
:1032500045FEBDE81040FFF7CDBF2DE9F041174610
:10326000044651B1D4F8B40242691AB194F89C02F0
:10327000032851D00220BDE8F081D4F89432002513
:1032800004F11400022B03D0042B3AD0C3B33CE06A
:10329000D0E903639E4207D9F11AC1608AB2394668
:1032A0002046FFF753FE12E08068B0FBF3F103FB0A
:1032B000110199B9984211D3D4F8981288420DD2CD
:1032C000002211462046FFF741FEC4F89852002321
:1032D0001A461946204600F0C5F816E0D4F8B402A4
:1032E000C16829B194F89C02032801D1204688477F
:1032F0008021204600F036F92046FFF749FE04E021
:10330000FFE78021204600F02DF994F8A002012863
:1033100004D184F8A05201E0204690470020AAE79B
:1033200070B51546044649B1D4F8B40282691AB1A1
:1033300094F89C02032830D0022070BDD4F8941277
:1033400004F5AA70032902D005291ED027E0D0E990
:1033500003218A420BD9531AC3600846834200D323
:1033600003469AB229462046FFF7E8FD17E0D4F855
:10337000B402016929B194F89C02032801D12046C6
:1033800088472046FFF71CFE09E000200146C4F8EC
:103390009402204600F0E6F801E020469047002025
:1033A00070BDD0F8C002FDF770BF000010B5044634
:1033B0001C481D49C0F8E842C4F8C0020160082159
:1033C00041600221816000218161C1610162FEF7DB
:1033D000ABF808B1FDF745FA0022D4F8C002182373
:1033E000114604F53074FDF747FD58230022802173
:1033F0002068FDF741FDC023002281212068FDF7F0
:103400003BFD4FF48873002201212068FDF734FD55
:103410004FF48073002282212068FDF72DFD0020EB
:1034200010BD0000E4120020005C00400A0601F01C
:103430007F01D0F8C00201EB810100EBC10002D591
:1034400090F82A00704790F86A01704710B51C4642
:103450001346D0F8C0022246FDF720FFBDE8104019
:10346000FFF7C8BE10B5D0F8C002FDF747FFBDE8B2
:103470001040FFF7BFBE70B500220446402311463E
:10348000FFF7E4FF40260125C4F8646133460022BB
:1034900080212046C4F85851FFF7D8FF6662A56125
:1034A00084F89C520020C4F894026060C4F8A4021E
:1034B000D4F8B80228B1D4F8B402002142682046FA
:1034C0009047002070BD90F89C12042903D190F819
:1034D0009D1280F89C120020704710B590F89C1245
:1034E000032904D1D0F8B412C96901B1884700207A
:1034F00010BD01740020704710B5D0F8C002FEF76F
:10350000C2F8BDE81040FFF775BE70B5044600F57F
:103510002A70054600F04AF80120C4F89402B4F875
:10352000AE02C4F8980294F8A80210F01F010AD065
:1035300001290DD0022910D000F08001204600F0B2
:1035400011F8002070BD2946204600F09EF8F8E7EB
:103550002946204600F0CAF9F3E72946204600F044
:103560001DF9EEE710B5D0F8C002FDF7E0FEBDE8AA
:103570001040FFF73FBE10B5D0F8C002FEF79EF82E
:10358000BDE81040FFF736BE90F89C1280F89D12FF
:10359000042180F89C120020704710B5D0F8C002BA
:1035A000FDF7FEFEBDE81040FFF724BE0A7802706A
:1035B0004A7842708A78CB7802EB032242800A79FB
:1035C0004B7902EB032282808A79C97902EB0121CF
:1035D000C18070470246002011B1C2F8B412704792
:1035E0000220704710B5D0F8B42202241AB1126834
:1035F000904700B90024204610BD000070B50E466B
:103600001E4D897804462970012931D894F89C020E
:1036100002280BD003280FD031462046FFF79EFC2E
:1036200029782046BDE87040FFF781BCD9B103205E
:10363000616084F89C0209E071B16068884212D030
:10364000C1B22046FFF773FC297861602046FFF77E
:10365000C9FF02280CD006E0022084F89C02204614
:103660006160FFF764FC2046BDE87040FFF7A8BC2E
:1036700031462046BDE87040FFF770BC18010020BD
:1036800010B5FFF778FF002010BD2DE9F0410A7852
:10369000002612F0600208D0202A01D0402A70D102
:1036A000D0F8B422926890476DE04B780022012553
:1036B0000A2B66D2DFE803F0405D655765080565B3
:1036C0002C29FFF7FFFC5EE004468888D8B9C8883B
:1036D000C8B94888802816D200F07F0794F89C0269
:1036E000032810D084F89E7239462046FFF704FF65
:1036F0002046FFF765FC1FB1022084F89C0242E0DF
:1037000084F89C523FE020463BE0FFF777FF3AE029
:10371000CB88012B35D190F89C32012B04D0022BA1
:1037200002D0032B2DD104E08260012200F10801B8
:1037300016E00122011D13E090F89C22012A03D01B
:10374000022A01D0032A1CD1CA88022A19D1C560D5
:10375000D0F8A41209B10321C160022200F10C01CA
:10376000FFF721FC0FE0498801290CD1C0F8A452D1
:1037700011E090F89C32012B08D0022B06D0032BCD
:1037800004D0FFF7EBFB3046BDE8F0814988012902
:10379000F9D1C0F8A422FFF713FCF4E72DE9F041BA
:1037A0000A46044610780027097910F060030AD011
:1037B000202B01D0402B50D1D4F8B402114683689D
:1037C000204698478FE0C0F34110012806D050787A
:1037D000D0B301282AD003283FD107E0D4F8B4029F
:1037E000114683682046BDE8F041184794F89C02D2
:1037F000022802D0032872D10AE071B380296ED06A
:103800002046FFF7AFFE80212046FFF7ABFE6AE0BF
:10381000508838B931B1802904D0D08810B92046F9
:10382000FFF7A0FE2046FFF7CBFB5CE094F89C027C
:103830000228E2D0032852D1508898BB4806F1D024
:103840002046FFF7F8FCEDE7FFE794F89C0200261E
:10385000022803D0032842D112E040E009B18029B8
:103860003DD1080601F07F0000EB800004EB8001F1
:1038700001D5143101E001F5AA7102220E602AE09F
:10388000080601F00F0000EB800004EB80000AD571
:10389000806920B301F07F0000EB800004EB80051D
:1038A00014350BE01FE0D0F85801C0B101F07F00E3
:1038B00000EB800004EB800505F5AA7541B1802975
:1038C00006D02046FFF7B2FD10B10120286000E0CD
:1038D0002E60022229462046FFF765FB03E01146D1
:1038E0002046FFF73BFB3846BDE8F08170B5054642
:1038F00008780C4610F0600003D0202801D0402842
:1039000016D195F89C02012803D0022801D0032883
:103910000ED1207901280BD8D5F8B4028268284648
:103920009047E188014306D12846FFF749FB02E0B2
:103930002846FFF713FB002070BD70470048704712
:10394000C41000202DE9F0470C78002630F8243010
:1039500048F68F121340CA78002A7DD0012A7CD005
:10396000022A02D0032A7FD0012648F280021343A4
:1039700020F824300D7830F8254048F68F731C402D
:103980002C43144320F825400D7B48F2C00C48F628
:10399000BF744CF280074BF68F79EDB391F800803D
:1039A000C24630F8285048F280181D4045EA080504
:1039B00020F82A50B0F8505091F80080054405EBEB
:1039C0000815B1F8088028F00108A5F80084B0F8BF
:1039D000505091F80080054405EB0815B1F80A80B5
:1039E00028F00108A5F808844D78002D0D7830F8EE
:1039F00025804FEA48487DD0B8F1000F07DA30F84B
:103A0000258008EA030848EA070820F825800F788F
:103A100030F827506D0600E02CE006D530F827502E
:103A20001D4045EA0C0520F82750CB780D78012B76
:103A300030F8253003EA040301D083F02003134358
:103A400020F825300B7830F8231001EA09011143E2
:103A500020F82310304602E003E008E004E0BDE86F
:103A6000F08743F4007380E743F4C0637DE743F4D9
:103A700080637AE74D782DB3B0F850500F78054445
:103A800005EB0715CF8827F00107A5F800740F781C
:103A900030F827506D0606D530F827501D4045EA0E
:103AA0000C0520F82750CB78012B06D00B7830F886
:103AB0002310214081F02001C9E70B7830F8231052
:103AC0002140C4E7B0F850400D78044404EB0514DD
:103AD000CD8825F00105A4F80854B0F850400D78C1
:103AE000044404EB05140D6904F20C4475B13E2D39
:103AF00014D800E030E04FEA550CED0701D00CF18E
:103B0000010C4FF6FF7505EA8C2511E0258825F498
:103B1000F8452580258845F4004509E04FEA551C05
:103B2000ED0601D1ACF1010C4FF4004545EA8C25BE
:103B300025800D7830F82540640405D530F82540FF
:103B40001C403C4320F825400B7830F8231001EA54
:103B5000090181F440517AE7B8F1000F07DA30F833
:103B6000258008EA030848EA070820F825800F782E
:103B700030F827506D0606D530F827501D4045EA2D
:103B80000C0520F827500D7830F8253003EA09039A
:103B900083F44053134320F825308EE7002070470C
:103BA0002DE9F04391F80C804F780A7848F6BF7CF5
:103BB0004BF68F7948F2800348F2C0054CF280063C
:103BC00048F68F74B8F1000F28D0002F30F822701B
:103BD0004FEA474748D0002F05DA30F822702740D7
:103BE000374320F822700A7830F822707F0605D516
:103BF00030F8227027402F4320F822700D7830F8DB
:103C000025202240324320F825200C7830F824204B
:103C100002EA0C021A4320F824201AE07FB130F89F
:103C20002260760605D530F8226026402E4320F823
:103C300022600A7830F8221001EA0C010EE030F818
:103C400022506D0405D530F822502540354320F828
:103C500022500A7830F8221001EA0901194320F8AD
:103C600022100020BDE8F083002F05DA30F8227022
:103C70002740374320F822700A7830F82260760611
:103C800005D530F8226026402E4320F822600E78B9
:103C900030F8262022402A4320F826200C7830F8DD
:103CA000242002EA09021A4320F82420C1E7002058
:103CB000704700207047012120F8401F002101803B
:103CC000818001820846704730F8401F21F43F414F
:103CD0000180002070470020704730B50A7BB2BBDE
:103CE0004A7848F68F7548F28004C2B10B7830F8F4
:103CF0002320520607D530F823202A4048F2C00579
:103D00002A4320F82320CA78012A20D00A7830F8E4
:103D1000221048F6BF73194081F0200114E00A78A0
:103D200030F822305B0407D530F822302B404CF2BB
:103D300080052B4320F822300A7830F822104BF609
:103D40008F73194081F44051214320F82210002044
:103D500030BD10B54A780978002A48F2800330F85F
:103D6000212005D048F6BF74224082F0100204E002
:103D70004BF68F74224082F480521A4320F821209F
:103D8000002010BD2DE9F04F0D464A78097B04460E
:103D90004FF0000948F68F7A48F2800B4FF6FF7714
:103DA0004FF40048012A09D000297DD0E878022884
:103DB0007BD001287AD00120BDE8F08FAE69286958
:103DC000864200D9064681B1E97802291CD02878BC
:103DD00034F820104906B4F85010214401EB0010CB
:103DE00070D5A0F80C646A8928E1B3B2EA8820464D
:103DF000696900F065FAB4F850002978204400EBB6
:103E00000110A0F8046435E1296A814276D9297845
:103E100034F8210048F2801200EA0A00104324F826
:103E20002100286A801B2862287834F8201049066F
:103E3000697876D511B1012921D027E0B4F8501066
:103E4000214401EB001000F20C404EB13E2E0FD881
:103E50007108F20700D0491C07EA8121018015E0B2
:103E6000018821F4F8410180018841F40041F5E71F
:103E70007109F20600D1491E48EA8121EEE7B4F843
:103E80005020111901EB0010A0F80C646A89B3B23C
:103E90002046696900F014FA68693044686129694C
:103EA000286A884206D902E0EDE00DE178E1801B46
:103EB000286202E00646C5F82090687818B101280B
:103EC00024D02BE0B7E0B4F850002978204400EB70
:103ED000011000F204404EB13E2E10D87108F207D6
:103EE00000D0491C07EA8121018017E0018821F4F4
:103EF000F8410180018841F40041F5E786E071094D
:103F0000F20600D1491E48EA8121EDE7B4F85000DD
:103F10002978204400EB0110A0F804642A896FE09E
:103F2000FFE711B1012921D027E0B4F85010214456
:103F300001EB001000F204404EB13E2E0FD8710884
:103F4000F20700D0491C07EA8121018015E00188B1
:103F500021F4F8410180018841F40041F5E771093D
:103F6000F20600D1491E48EA8121EEE7B4F850106C
:103F7000214401EB0010A0F804642A89B3B2204662
:103F8000696900F09DF96869304468612969286AA7
:103F9000884202D9801B286202E00646C5F82090BC
:103FA000687810B1012822D029E0B4F850002978AF
:103FB000204400EB011000F20C404EB13E2E0FD811
:103FC0007108F20700D0491C07EA8121018016E040
:103FD000018821F4F8410180018841F40041F5E7AE
:103FE0007109F20600D1491E48EA8121EEE7B4F8D2
:103FF00050100819297800EB0110A0F80C646A89A8
:10400000B3B22046696900F05BF933E02A7834F8EE
:10401000220048F68F63184040EA0B0024F8220083
:10402000B4F850002A78204400EB02108BB2A0F8BC
:1040300004342A89E5E7A0F804642A89B3B220464B
:10404000696900F03DF9687810B1012808D011E0E5
:10405000297834F8210048F2C00200EA0A0006E09C
:10406000297834F821004CF2800200EA0A0010435B
:1040700024F82100297834F8210048F6BF72104056
:1040800080F03000DFE0A9692869814202D9091A6D
:10409000A961B6E00846C5F81890B2E0088820F497
:1040A000F8400880088840F400400BE03E2876D8AD
:1040B0004208C00700D0521C07EA822002E000BF7D
:1040C00048EA82200880B6E092B9B4F85000297816
:1040D000204400EB0110296900F2044069B13E2937
:1040E00013D84A08C90700D0521C07EA8221018070
:1040F000687888B1012832D03AE0018821F4F8418B
:104100000180018841F40041F1E74A09C90600D164
:10411000521E48EA8221EAE7B4F850002978204488
:1041200000EB0110296900F20C4049B13E290FD87B
:104130004A08C90700D0521C07EA8221018017E013
:10414000018821F4F8410180018841F40041F5E73C
:104150004A09C90600D1521E48EA8221EEE7B4F8A6
:1041600050100819297800EB0110298AA0F80C14C6
:10417000E869B0B3297834F82100420401D5420639
:1041800003D444F24002104255D134F8210048F2E1
:10419000C00200EA0A00104324F821004BE03CE092
:1041A000A9692869814202D9091AA96102E0084671
:1041B000C5F818908AB9B4F850102A78214401EB58
:1041C000021101F2044168B13E2813D84208C30726
:1041D00000D0521C07EA82220A80697889B101293D
:1041E00021D028E00A8822F4F8420A800A8842F4A2
:1041F0000042F1E74209C30600D1521E48EA82227A
:10420000EAE7B4F850102A78214401EB021101F2D8
:104210000C4100287FF44AAF40E74209C0067FF412
:104220004FAF521E4CE7B4F8502011192A7801EB19
:104230000211A1F80C04297834F821004BF68F7292
:10424000104080F4405040EA0B0024F82100002088
:10425000B2E50021A0F844104FF43F41A0F840100F
:10426000002070470148FDF7B5B80000E4120020B7
:104270000148FDF7AFB80000E4120020B0F8440098
:104280007047000010B500EB42005C0800F580604C
:1042900009D000BF30F8042B01F8012B120A01F8F5
:1042A000012B641EF6D1DA0701D00088087010BD1A
:1042B0000020704711B98021A0F84C1000207047F1
:1042C00010B55B1C00EB42005B0800F5806009D074
:1042D00011F8012B11F8014B42EA042220F8042BBB
:1042E0005B1EF5D110BD000038B5002401F036FB8F
:1042F000002204210D4800F04DFD0D49C86940F031
:104300000400C861C869032200F004000090052180
:104310001E20FCF77FFD1E20FCF76EFD0548FDF713
:1043200029FE054901200870204638BD000C0140D7
:10433000001002402003002000000020FEE70000E3
:104340007CB50C001D461646014601D0601E00E0FB
:104350000020CDE90010064B6A462946304600F0A1
:10436000EBF8002C02D0009A002111707CBD0000F7
:104370003F4C00080907090E002804DB00F1E0208B
:1043800080F80014704700F00F0000F1E02080F882
:10439000141D704702E008C8121F08C1002AFAD194
:1043A00070477047002001E001C1121F002AFBD1B5
:1043B000704700002DE9FF5F82B00021DDE9043085
:1043C000020DDDF840B0034318D044F61050A2F2BD
:1043D000FF3242431514119801281FD0A5EB0B00A2
:1043E000401C5FEA000A4FF000064E4FDFF838919C
:1043F000B046504615D5CAF1000413E011980124C7
:104400004AA3012801D16FEA0B010298119AC0E971
:104410000031C0E9024206B0BDE8F09FCBF10000D8
:10442000DFE704460021404A491842EB0450CDE939
:10443000001012E0E00707D032463B4640464946AE
:10444000FBF7E0FF8046894632463B461046194658
:10445000FBF7D8FF06460F466410002CEAD1DDE9D1
:104460000401DDE90023BAF1000F06DAFBF7CAFF09
:1044700042464B46FBF7C6FF05E0FCF735F84246DF
:104480004B46FCF731F804460E460022284BFCF759
:10449000B3F803D84FF0FF30014607E00022254B68
:1044A00020463146FBF707FFFCF78DF8102409E0A2
:1044B000002C0ADB0A220023FBF7CCFE039B3032E0
:1044C0001A55641E50EA0102F2D1641C039AC4F129
:1044D00011031444119A012A03D0012208430DD17B
:1044E0000AE0084304D000204FF0110B119072E74E
:1044F000A3EB0B056D1E0DE05B4504DD4FF00002E4
:1045000005F1010504E003DA4FF00002A5F1010511
:10451000002AECD002981199C0E90231C0E90045A7
:1045200079E70000000014400000F03F3000000078
:104530000000F0430000E03F2DE9FF4F95B09A46A0
:10454000884606460025EEE1252877D10024274637
:10455000F94A0121039400E0044316F8013F203B8F
:1045600001FA03F01042F7D130782A2811D06FF009
:104570002F033078A0F13002092A16D8039A44F0AC
:10458000020402EB820203EB42021044761C039009
:10459000EFE758F8042B0392002A03DA504244F460
:1045A0000054039044F00204761C30782E2816D173
:1045B00016F8010F44F004042A280DD06FF02F02E2
:1045C0003078A0F13003092B09D807EB870302EB01
:1045D0004303C718761CF3E758F8047B761C307841
:1045E0006C280FD006DC4C2817D068280DD06A281C
:1045F00014D104E0742810D07A280FD10DE044F4CF
:1046000000140AE044F4801401E044F44014727889
:10461000824202D104F58014761C761C307866281C
:104620000BD013DC582877D009DC002875D045283A
:10463000F6D04628F4D047281AD193E118E0632831
:1046400035D0642879D0652812D18BE1702873D0D9
:1046500008DC6728F1D069286FD06E280DD06F284C
:1046600006D1ACE073282CD0752874D0782853D0AC
:104670005246179990476D1C54E1C4F3025002282A
:1046800009D003280DD0D8F8001004280DD00D60F3
:1046900008F1040846E1D8F80010EA17C1E9005211
:1046A000F6E7D8F800100D80F2E70D70F0E718F883
:1046B000041B8DF8001000208DF80100EB4601204E
:1046C00003E058F804BB4FF0FF3061074FF00001E2
:1046D00002D40DE009F101018946B9420FDA8145A2
:1046E000F8DB1BF809100029F4D108E009F10101F9
:1046F00089468142FADB1BF809100029F6D103989C
:104700005346A0EB090721463846179A00F080FA75
:10471000284400EB090507E044E008E10DE01BF840
:10472000010B524617999047B9F10109F7D2534648
:1047300021463846179AF2E039E00A21C4F30252C2
:104740004FF0000B0091022A06D058F8040BC11755
:10475000032A09D00AE023E008F1070020F007024D
:10476000F2E80201904605E000B2C117042A01D127
:1047700040B2C117002906DA0A460021404261EB27
:1047800002012D2202E0220504D52B228DF80420FF
:10479000012203E0E20701D02022F7E7914657E02B
:1047A0000A2100E010214FF0000B00910BE01021D6
:1047B0004FF0000B44F004040827009103E00820A8
:1047C0004FF0000B0090C4F30252022A05D058F8B3
:1047D000040B0021032A08D008E008F1070020F0AC
:1047E0000702F2E80201904603E080B2042A00D1F9
:1047F000C0B24FF0000922072AD53278702A07D0BC
:10480000DDF800C08CF0100C5CEA0B0C05D00EE05B
:1048100040228DF80420012208E050EA010306D06E
:1048200030238DF804308DF8052002229146009B3C
:1048300083F0080353EA0B030AD150EA010201D1C5
:10484000620705D530228DF804204FF001097F1E44
:104850003278582A04D039A20C920CAA02920BE0AA
:104860003BA2F9E75B46009AFBF7F4FC0C9B9B5CD0
:10487000029A521E0292137050EA0102F2D102987B
:1048800004A9081A00F1200B600702D524F4803433
:1048900000E001275F4502DDA7EB0B0000E00020F0
:1048A00000EB0B01009003984944401A0390E00389
:1048B00006D453462146179A039800F0A9F90544F7
:1048C000002706E001A85246C05D179990476D1C6D
:1048D0007F1C4F45F6DBE0030CD553462146179A63
:1048E000039800F095F9054404E0302052461799EA
:1048F00090476D1C0099481E00900029F5DC08E0E7
:104900000298029952460078491C029117999047E3
:104910006D1CBBF10001ABF1010BF1DC5BE100F0C0
:1049200065F90544761C307800287FF40DAE19B087
:104930002846BDE8F08F00000928010030313233ED
:1049400034353637383961626364656600000000CB
:1049500030313233343536373839414243444546B5
:1049600000000000600700D4062708F1070020F0CF
:104970000700F0E80223804603F0004C5FEA0C00D9
:1049800001D097A009E0200501D596A005E0E00739
:1049900001D095A001E0AFF24C001390307823F0E5
:1049A000004365280CD006DC452809D046281DD0D8
:1049B00047287FD13BE0662818D067287AD136E0B7
:1049C0000021112F01DB112000E0781CCDE900014E
:1049D00004A90CA8FFF7EEFCDDE90D010C9A4FF0DD
:1049E000000B07F10109109200914EE04FF00040DA
:1049F0000097CDE9011004A90CA8FFF7DBFCDDE965
:104A00000D020C9B0F994FF0000B914610930092F2
:104A100011B9791C00EB0109B7EB090003D4C0F10F
:104A2000FF3B07F10109A9EB0700019042E0012FCC
:104A300000DA01270021112F01DD112000E03846A6
:104A4000CDE9000104A90CA8FFF7B4FCDDE90D01D4
:104A50000C9A00914FF0000BB946109221070FD429
:104A6000009A4A4503DA914601E0A9F10109B9F13A
:104A7000010F05DD109AA9F10101515C3029F4D034
:104A8000B84202DA10F1040F03DA0121CDE9011076
:104A900010E0002803DC8344A9EB000102E0411C84
:104AA000494500DD8946A0EB0B00401C01904FF00A
:104AB00000400290200705D40198484502DB4FF0E2
:104AC000FF30019000208DF84B0002980DF14B074C
:104AD000B0F1004F25D002200C902B200D900298B1
:104AE00000280CDA404202902D200D9007E00A21A8
:104AF0000298FBF799FB3031029007F8011D0C99E1
:104B0000481E0C900029F2DC02980028EFD1791E93
:104B10000D980870307800F0200040F0450007F84C
:104B2000020D11A8C01BC01D02901398007800B19F
:104B3000012000EB0901019801EBE07102980144AA
:104B40000398401A401E0390E00306D453462146C2
:104B5000179A039800F05CF805441398007818B190
:104B60005246179990476D1CE00323D553462146C2
:104B7000179A039800F04CF805441BE0BBF1000FB6
:104B800007DB0098584504DD1098179910F80B00C2
:104B900001E0179930205246904701980BF1010B24
:104BA000401E05F10105019004D12E2052461799AF
:104BB00090476D1CB9F10001A9F10109DEDC05E0A7
:104BC00017F8010B5246179990476D1C0299481E21
:104BD00002900029F4DC53462146179A03989EE67A
:104BE0002D0000002B000000200000002DE9F04106
:104BF000044600251E461746880404D405E03946BD
:104C00002020B0476D1C641EF9D52846BDE8F08110
:104C10002DE9F041044600251E469046C80301D503
:104C2000302700E02027880404D505E041463846B7
:104C3000B0476D1C641EF9D52846BDE8F0814A686E
:104C4000002A06D00A68531C0B6010704868401E8A
:104C5000486070471748184C184D00780028FDD060
:104C6000174E4FF48058042720212046FCF734F8D3
:104C70000146002000F02AF802280AD141462046C9
:104C8000FCF72FF810212046FCF72BF80DA000F0C0
:104C900099FE40212046FCF71FF80146012000F054
:104CA00015F8707810B1687800B96F70052000F0C1
:104CB00023F9D9E700000020000C01402D0000205E
:104CC0000D00002068656C6C6F0D0A0070B5002443
:104CD000012801D9002070BD0D4D0023AA1C2E5CB7
:104CE0003EB139B1115C04290ED32B541354022464
:104CF0000CE009B1135409E0115C042904D301212B
:104D0000295413540C4601E0491C1154204670BD2F
:104D10000D0000202DE9F041DFF86C80002408F13F
:104D200008073E1F194D25E0325D7AB921464046FD
:104D300018F801305B1CDBB208F801307F2B01D979
:104D4000002343541249D8B2085C3855385D82427A
:104D500005EBC400817913D209B9012200E00022D9
:104D6000818855F83400FBF7C4FF305D401C305596
:104D7000641CE4B295F82000A042D5D8BDE8F081CB
:104D80000029ECD0E9E70000010000202C020020FF
:104D9000946800080C4B10B593F82040042C01D304
:104DA000012010BD43F8340093F8200003EBC0004D
:104DB000818093F8200003EBC000827113F8200F6C
:104DC000401C1870002010BD2C020020FBF7A4FF2F
:104DD000FDF734FEFDF74AFBFDF7EAFAFDF7A8FB05
:104DE000FDF7CCFBFDF732FCFDF74CFCFDF7FAFBC1
:104DF000FFF77AFA00F0BCF8FDF702FB00F0D4F8F8
:104E0000FEE7000070B5174C0020461E94F9011013
:104E1000002926D0207002DD4FF0010000E030466E
:104E2000104DA5F101052978084400F108004FEA6A
:104E3000E07100EB517121F00701A0EB0100C1B25C
:104E4000297009A000F0D6FD0C48297800EB8100FC
:104E500000F026F894F90100002800DC0126304417
:104E6000607070BD2D00002063757272656E745F96
:104E7000737465703A25640D0A000000CC6900085F
:104E800010B5054C2078002804D1044800F008F83B
:104E90000120207010BD00002D000020EC690008EA
:104EA00070B50446007808B1012200E00022114DDF
:104EB00001212846FBF71DFF607808B1012200E0C0
:104EC000002202212846FBF714FFA07808B1012236
:104ED00000E0002204212846FBF70BFFE07808B130
:104EE000012200E000222846BDE870400821FBF7BF
:104EF00000BF00000008014010B5EFF3058149B97B
:104F0000EFF3108131B908490968022905D1EFF39F
:104F1000118111B16FF0050403E0002408B100F025
:104F2000CDFE204610BD0000F000002010B54FF06F
:104F30000001EFF30582BAB9EFF31082A2B90B4A70
:104F40001268022A02D1EFF311826AB948B1D0E99E
:104F500002202AB1202807D3104600F0A3FF02E068
:104F600010B900F091FF0146084610BDF000002086
:104F7000EFF3058058B9EFF3108040B9094908688C
:104F8000022801D030B109E0EFF3118030B16FF0A9
:104F90000500704701200860002070474FF0FF3087
:104FA00070470000F000002010B5EFF3058060B9F5
:104FB000EFF3108048B90B490868022802D0012895
:104FC00006D00BE0EFF3118040B16FF0050010BD8B
:104FD0000220086000F0DAFE002010BD4FF0FF3024
:104FE00010BD0000F0000020F8B514464FF0000599
:104FF000EFF305826ABBEFF3108252BB164A1268C8
:10500000022A02D1EFF311821ABB10B309B3ACB17B
:10501000D4E902326BB1502A1BD32269CAB1676945
:1050200000FB01F6B74214D30025009500F0C8FF3D
:1050300007E072B9226962B9626952B9002200F0D0
:105040009BFF050005D00CB1216800E0002100F0B5
:10505000FFFD2846F8BD0000F0000020F0B585B047
:105060004FEA01034FF00004EFF305810394A1BB65
:10507000EFF3108189BB21490968022902D1EFF3BE
:10508000118151BB48B3402618218DF8104004AD62
:1050900042B3176807B13D4697691FB139467F1E75
:1050A000382F02D21779FF0702D0002005B0F0BDDB
:1050B000576907B1BE08D2F808C0BCF1000F0DD087
:1050C000D4685C2C18D312693AB137B18DE8061058
:1050D0003246294601F0FDF903900DE0D7685FB92B
:1050E00012694AB903AACDE90012B2B2294601F009
:1050F000C3F9012800D003940398D7E7F0000020FB
:10510000FDF7DCFA00F004F80120FFF7F5FEFBE7FD
:1051100010B50024FFF7B4FE204610BD2DE9F04184
:10512000134C0F46054666692068001D00F098FC88
:10513000681C07D137B12168BDE8F0410D48091D51
:1051400000F0DCBC20683544B5424560216805D2DA
:10515000A068BDE8F041091D00F0B8BC6068091DF9
:1051600000F0B4FC206B854200D22563BDE8F081DD
:10517000A0000020C01A00202DE9F041054600F0F3
:10518000C9FC2D4C2069401C206120682B4F10B1B8
:10519000E06930B32BE025602069012827D1002683
:1051A00006EB860007EB800000F082FC761C382EB0
:1051B000F6D3234800F07CFC2148143000F078FC42
:1051C0001F48283000F074FC1D483C3000F070FC93
:1051D0001B48503000F06CFC194860601430A0602F
:1051E00005E02068E96AC06A884200D82560E06A64
:1051F000401CE0626864E86AA169884200D9A06145
:1052000000EB800007EB8000291D00F077FC00F028
:10521000A1FCE06900280CD02068E96AC06A8842D5
:1052200007D208494FF080500860BFF34F8FBFF39B
:105230006F8FBDE8F0810000A00000201016002054
:10524000701A002004ED00E038B500F063FC104C4B
:10525000A068C8B90F4800F02BFC0E48143000F0CD
:1052600027FC0C482060143060600A4B0020283373
:10527000009003F1500210210A2000F0A1FEA0606E
:1052800010B105A100F0E4FCBDE8384000F062BCBC
:10529000DC000020D41A0020546D72510000000080
:1052A00030B4026C0B46002A0BD0C1681144C160B7
:1052B0004468A14201D30168C16030BC1846FAF7C6
:1052C0008FBF30BC70472DE9F041856B174604460F
:1052D0000026026C82B1C7B1E068FAF781FFE1688D
:1052E000206C091AE1602268914202D26168081AB2
:1052F000E060022F16D017E02068A8B9606801F0BE
:105300008BF90646002060600EE0A068FAF768FF9F
:10531000216CA0680844A0606168884204D32068BA
:10532000A06001E005B16D1E6D1CA5633046BDE8AF
:10533000F08110B5044690F8590058B101280CD0FE
:1053400002280FD0502080F31188BFF34F8FBFF396
:105350006F8FFEE7206B00F011FC2046BDE8104087
:1053600000F00CBC10BD000010484FF44061420733
:1053700006D0C01D0D4920F00700411AC1F540615B
:105380000B4A00230144C2E900030839103A21F016
:10539000070111604B600B600B1AC0E900139360AA
:1053A0004FF000405360D06070470000A41F002001
:1053B00004010020144E154CA6F29C474FF0805873
:1053C000DFF84C9012E000BF00F0A4FBF068C56865
:1053D000281D00F045FB2069401E2061E068401E4A
:1053E000E06000F0B7FB2846FFF7A3FFE068002865
:1053F000EAD138680128F9D9C9F80080BFF34F8F86
:10540000BFF36F8FF2E70000AC1A0020A00000206D
:1054100004ED00E070B51D46049C51B1C4F80020B5
:10542000C4E90F010121204600F0FEFD84F84C5034
:1054300070BD2460F4E72DE9F0470E46DDE90984EC
:105440001746824691009946089DA522206BFAF7DF
:10545000D9FE6FF00301206B01EB8701084420F0B7
:105460000707780707D0502080F31188BFF34F8FCC
:10547000BFF36F8FFEE72218315C82F83410315C85
:1054800011B1401C1028F6D3002684F84360382D53
:1054900000D33725E562C4E91356201D00F013FB45
:1054A00004F1180000F00FFB2461C5F138006462BC
:1054B000A061666584F858604A465146384600F057
:1054C0003BFA2060B8F1000F01D0C8F80040BDE8F9
:1054D000F087000030B5114900E011460A688242A9
:1054E000FBD34B685C18844203D140681844486081
:1054F000084643681C18944209D1084C103C2468A3
:10550000A24209D052681A4442600A6812680260D6
:10551000814200D0086030BD0460F9E7040100203A
:1055200070B5002441600B4D0061914206D8D11A3C
:105530008269914206D2011D686807E09A4203D24F
:10554000994201D3012403E0011D286800F0BEFA4E
:10555000204670BDDC00002010B5044600F0DAFAE9
:10556000A06B28B15FF0000400F0F4FA204610BDF3
:105570000124F9E730B589B0304D55E00498002892
:1055800006DADDE90601059A9047049800284BDB0E
:10559000069C606910B1201D00F062FA02A800F0BC
:1055A000B9F8024604980A283ED2DFE800F0050563
:1055B000053D263705053D260598A16903460144AA
:1055C0002046FFF7ADFF00B3616A20468847E069D7
:1055D000012829D1002000900598A16900234218D4
:1055E0001946204601F022F978B9502080F311883D
:1055F000BFF34F8FBFF36F8FFEE70598A06128B10F
:10560000811813462046FFF78BFF0DE0502080F3F2
:105610001188BFF34F8FBFF36F8FFEE794F82C0014
:1056200010B9204600F0AAFA002204A9A86800F0E8
:105630004DFE0028A2D109B030BD0000DC000020E2
:105640002DE9FC410F46054600F0E4FB01A800F0FF
:1056500061F80446019818B101F056F8BDE8FC81E4
:10566000224EAFB170680068A8B30027291B3A46E4
:10567000B06800F001FB01F047F80028EED11C49AA
:105680004FF080500860BFF34F8FBFF36F8FE5E797
:10569000A542EBD801F038F830682746C068C468E6
:1056A000201D00F0DDF9E069012810D1A0692B462A
:1056B00041193A462046FFF733FF40B10020034628
:1056C000014600902A46204601F0B0F820B1616AF8
:1056D00020468847C2E707E0502080F31188BFF3D7
:1056E0004F8FBFF36F8FFEE70127BFE7DC0000207D
:1056F00004ED00E006484168096829B14168C968BD
:10570000C9684968016370474FF0FF31FAE700004C
:10571000A000002070B5054600F014FF064E0446B8
:105720003069844203D200F009F8012000E0002033
:1057300028602046346170BDDC000020F8B5194DAA
:105740001FE0C068C4680668201D00F089F9616A1E
:1057500020468847E069012813D1A0693044B0424F
:1057600006D924616060211D286800F0AFF908E0C7
:1057700000200346014600903246204601F056F8CC
:1057800038B1286801680029DBD16968C5E90010D3
:10579000F8BD502080F31188BFF34F8FBFF36F8F98
:1057A000FEE70000DC00002008484068401C4FF085
:1057B000500080F3118804D0BFF34F8FBFF36F8F79
:1057C000FEE7BFF34F8FBFF36F8FFEE70C010020A2
:1057D000074C2068016841B1C0680021D0F8000082
:1057E000FFF72EFFFFF7C6FEF3E701210020F7E7E2
:1057F000DC0000202DE9F041044600F08BF994F91B
:10580000455004F1240609E0606A48B1304600F0D2
:1058100043FF08B100F080FA6D1E6DB2002DF3DC7D
:105820004FF0FF3684F8456000F094F900F072F90B
:1058300094F9445004F1100709E0206948B1384652
:1058400000F02AFF08B100F067FA6D1E6DB2002D5E
:10585000F3DC84F84460BDE8F04100F07BB900005F
:105860002DE9F0410546002700F0D4FA314E3068AA
:1058700008B9FFF779FDF06805424BD1C5B308358B
:1058800068070ED005F00700C0F10800054468075E
:1058900007D0502080F31188BFF34F8FBFF36F8F75
:1058A000FEE72DB37068854234D822481030014697
:1058B0000C6801E020460C466168A94202D22168CA
:1058C0000029F7D131688C4224D007682168016033
:1058D00060680837411B10290FD96019420708D0AA
:1058E000502080F31188BFF34F8FBFF36F8FFEE717
:1058F00010E041606560FFF7EDFD61687068401A77
:105900007060B268904200D2B060F068014300203D
:10591000C4E9000100F0F8FE780707D0502080F3BA
:105920001188BFF34F8FBFF36F8FFEE73846BDE896
:10593000F0810000F400002010B5031F4FF08074C8
:105940001C601B1F21F001011960191F024B0B6025
:10595000143940380A6010BDA957000830B51748FF
:1059600085B0816941F0040181618069144D00F0C6
:1059700004004FF480540490002221462846FBF78F
:10598000B8F9012002210094CDE901010391694693
:105990002846FBF7B1F8002221462846FBF7A9F973
:1059A0004120FBF797F8012221462846FBF7A1F991
:1059B0004120FBF78FF805B030BD00000010024019
:1059C000000801400FB4142100B587B009AB684648
:1059D000089AFEF7B5FCADF8140005480023032231
:1059E0006946006800F064FB07B05DF814FB000036
:1059F000240000200FB4142100B587B009AB68461D
:105A0000089AFEF79DFCADF814000548002306AA8D
:105A10006946006800F0FCFB07B05DF814FB00006D
:105A2000240000200120FFF767FAFBE70A4886B050
:105A300000780028FDD0094C01226946206900F059
:105A400045FC012804D1BDF814106846FAF7F2FEAF
:105A50000120FFF751FAEFE70000002014000020BA
:105A6000D0E9013201699A60D0E901235A604A689D
:105A7000824201D182684A60002202610868401EA9
:105A80000860086870470000034B036003F15C0086
:105A90000860402010607047EC1B0020034B03603F
:105AA00003F15C000860802010607047481D0020F2
:105AB00000F108014FF0FF32C0E90112C16001613D
:105AC00000210160704700210161704730B50B680B
:105AD0005A1C02D000F1080202E0026904E02246EA
