:020000040800F2
:10000000D82E0020990100087F1E00081D1D000841
:100010007D1E0008CD020008033A00080000000021
:1000200000000000000000000000000001010008C6
:100030001503000800000000450100087D210008AC
:10004000B3010008B3010008B3010008B3010008C0
:10005000B3010008B3010008B3010008B3010008B0
:10006000B3010008B3010008B3010008B3010008A0
:10007000B3010008B3010008B3010008B301000890
:10008000B3010008B3010008B3010008813900087A
:100090008D390008B3010008B3010008B30100085E
:1000A000B301000811220008B3010008B3010008E1
:1000B000B3010008B3010008B3010008B301000850
:1000C000B3010008B3010008B3010008B301000840
:1000D000B3010008B3010008B3010008B301000830
:1000E000B3010008B3010008B3010008DFF80CD029
:1000F00000F088F800480047453A0008D82E002054
:10010000224B19680868B0E8F00F80F30988BFF344
:100110006F8F4FF0000080F311884EF00D0E704786
:100120000000000006480068006880F3088862B696
:1001300061B6BFF34F8FBFF36F8F00DF00BF00BF0B
:1001400008ED00E0EFF30980BFF36F8F0F4B1A68E3
:1001500020E9F00F106008B54FF0500080F31188CF
:10016000BFF34F8FBFF36F8F04F07AFB4FF00000A7
:1001700080F31188BDE8084019680868B0E8F00FFE
:1001800080F30988BFF36F8F704700BF7C000020A9
:10019000EFF3058070470000064880470648004797
:1001A000FEE7FEE7FEE7FEE7FEE7FEE7FEE7FEE727
:1001B000FEE7FEE70D220008ED00000840EA01031B
:1001C0009B0703D009E008C9121F08C0042AFAD20D
:1001D00003E011F8013B00F8013B521EF9D27047D1
:1001E000D2B201E000F8012B491EFBD27047002279
:1001F000F6E710B513460A4604461946FFF7F0FF26
:10020000204610BD064C074D06E0E06840F00103B3
:1002100094E8070098471034AC42F6D3FFF76AFF22
:10022000F45200081453000870B58C1810F8015BE4
:1002300015F0070301D110F8013B2A1106D110F87F
:10024000012B03E010F8016B01F8016B5B1EF9D183
:100250002B0705D40023521E0DD401F8013BFAE709
:1002600010F8013BCB1A921C03E013F8015B01F874
:10027000015B521EF9D5A142D8D3002070BD000009
:1002800070B5044600688168C943C9071CD18168FC
:1002900021F00101816000F067FA05460FE000BF20
:1002A00000F062FA401B022809D9A06A40F0100051
:1002B000A062E06A40F00100E062012070BD2068A9
:1002C0008068C043C007EBD0002070BDFEE700206F
:1002D000704700207047000010B50022044905480F
:1002E00002F056F90449034802F04CF9002010BD11
:1002F0000C0C0020600300202408002010B50146EB
:10030000034802F03FF9024802F020F9002010BD36
:100310006003002070477047F8B50024009490F8FF
:1003200024202546012A12D0012280F824204A6880
:100330001F23072A0DD20668776B521E02EB82023A
:1003400093409F430B6893401F43776319E002205B
:10035000F8BD06680D2A0AD2376BD21F02EB820263
:1003600093409F430B6893401F43376309E0F76A4C
:100370000D3A02EB820293409F430B6893401F4368
:10038000F7620A68072306680A2A0AD3F7680A3A56
:1003900002EB420293409F438B6893401F43F760F8
:1003A00008E0376902EB420293409F438B68934019
:1003B0001F4337610A68102A01D0112A20D1124B3D
:1003C00002689A4217D193681B0219D4936843F4C8
:1003D000000393600968102912D10C490C4A09687E
:1003E000B1FBF2F101EB8101490000E0491E0091EF
:1003F0000029FBD104E0816A41F0200181620124DF
:1004000080F824502046F8BD0024014078000020E8
:1004100040420F002DE9F0414FF0000704003D4637
:100420007ED0A06A002628B9E66284F824602046BF
:1004300000F07EF82046FFF723FFA16AC90600D42A
:1004400020B1A06A40F01000A06269E0A16A21F426
:10045000885141F00201A1626268E169237B0A438D
:1004600047EA43010A43A1684FF48077B94209D0B3
:10047000012907D05FF0000194F814C0BCF1010F0E
:1004800002D00AE03946F7E7F3B1A36A43F020034C
:10049000A362E36A43F00103E3622368D3F804C074
:1004A0002CF4694C4CEA010CC3F804C021688B6839
:1004B000DFF870C003EA0C0313438B60A168B942F4
:1004C0000BD0012909D00CE0DFF85CC0A3690CEB6C
:1004D00043330B4343F40061DFE7218A0D05A5F5A3
:1004E00080152168CB6A23F470032B43CB6221680B
:1004F00089680E4B1940914208D1E662A16A21F049
:10050000020141F00101A162BDE8F081A06A20F082
:10051000020040F01000A062E06A40F00100E062DA
:100520000120F1E7FDF7E1FF00E0FFFFFE0E1FFFF6
:1005300000B585B0002100910191029103910068FE
:100540000E49884218D10E48816941F400718161D9
:10055000816901F400710491816941F004018161B4
:100560008069694600F00400049010200090032088
:100570000190044800F008F805B000BD00240140D7
:1005800000100240000801402DE9F84FDFF8B89153
:10059000002409F1040A0AF1040B23460F270BF18A
:1005A000040EC9E00125A5402A40AA427DD1674E2C
:1005B000D1F804C0ACEB0608B44532D014DCBCF171
:1005C000030F3AD009DCBCF1000F2AD0BCF1010FB7
:1005D0001CD0BCF1020F31D11DE0BCF1110F17D0BE
:1005E000BCF1120F2AD119E0B8F5881F19D006DC2A
:1005F000B8F5803F15D0B8F5801F1FD111E0B8F5D0
:10060000001F0ED0B8F5041F18D10AE0CB6815E022
:10061000CB681B1D12E0CB6808330FE0CB680C33AE
:100620000CE08B682BB1012B4FF0080303D0456120
:1006300004E0042302E0056100E00023FF2A01D862
:10064000064601E000F104064FEA840501D9A5F150
:100650002005D6F8008007FA05FC28EA0C0803FA02
:1006600005F548EA0508C6F800804D68ED0062D53A
:10067000374DAE6946F00106AE61AD6924F0030660
:1006800005F001050095334D06EB050CDCF808502C
:10069000A607360F07FA06F825EA0805DFF8B8803E
:1006A000404503D14FF0000817E044E0DFF8AC808C
:1006B000404502D14FF001080FE0DFF8A48040452B
:1006C00002D14FF0020808E0DFF89880404502D1DF
:1006D0004FF0030801E04FF0040808FA06F848EA72
:1006E0000508CCF808804D68D9F80060ED034D4648
:1006F00001D5164300E096432E604D68DAF800609D
:10070000AD03554601D5164300E096432E604D6873
:10071000DBF80060ED025D4601D5164300E096432C
:100720002E604D68DEF80060AD02754601D51643B7
:1007300000E096432E60641C0D682A46E5407FF475
:1007400031AFBDE8F88F0000000401400000111037
:10075000001002400000014000080140000C014070
:1007600000100140001401400148806870470000FB
:100770006C00002002488168027811448160704753
:100780006C000020074810B5016841F010010160BD
:10079000032000F08FF8002000F006F800F03EF88B
:1007A000002010BD0020024000B5014687B00022A5
:1007B000192000F05FF8192000F04EF81348816905
:1007C00041F400618161806905A900F40060069030
:1007D000684600F0DBFD00F009FE0D490D4AB0FB54
:1007E000F1F10D48491E0260416040F2E7320021FC
:1007F000C0E90321816001F08DF810B1012007B03C
:1008000000BD054801F0C8F8F9E7000000100240FB
:1008100040420F00002C0140180300200C4808B58E
:10082000816941F001018161816901F0010100915B
:10083000C16941F08051C161C06900F080500090F1
:100840000448416821F0E06141F00071416008BD59
:100850000010024000000140002809DB00F01F02E8
:10086000012191404009800000F1E020C0F8001112
:1008700070470000F0B40E4B1B680C46C3F3022314
:10088000C3F10705042D00D90425191D072901D23C
:10089000002300E0DB1E012606FA05F1491E214077
:1008A00099409E40761E16403143F0BC03F0AAB832
:1008B0000CED00E0064900F0070208684FF6FF0360
:1008C000184040EA0220034A1043086070470000C5
:1008D0000CED00E00000FA0510B50C0607D501F09C
:1008E000070101EB810100EBC100283005E001EBBD
:1008F000810100EBC10000F5B47099B232B1012260
:1009000002730181190C4181002010BD0022027385
:10091000C180F9E7704701EB810200EBC202D0F819
:10092000E802D26B02F027B801EB810200EBC202B1
:10093000D0F8E802D2F87C2102F080B870B5044605
:100940000B0601F0070000EB800104EBC1014FF042
:1009500001024FF0000503D581F82920283103E07A
:1009600081F8695101F5B471087094F8A802012862
:1009700008D084F8A822206802F0A0FC84F8A852CD
:10098000002070BD022070BD70B5044601F00F005C
:100990006268904201D9012070BD0B0601F007008A
:1009A00000EB800104EBC1014FF001024FF00005A4
:1009B00003D581F82920283103E081F8695101F538
:1009C000B4718D70087094F8A802012808D084F8DA
:1009D000A822206802F00FFD84F8A852002070BD04
:1009E000022070BD2DE9F05F04685FEA424C0B788D
:1009F0008D69B4F850C04FF000064BF68F7948F27D
:100A0000800A48F68F7B48F2C00E4FF480672AD5E3
:100A10004FF0020808EBC308C44407EB4C07E45B43
:100A2000C4F30904A54203D32D1B8D6101D00BE053
:100A30008E61066836F8235005EA090585F40055ED
:100A400045EA0A0526F82350520609D50D780368B1
:100A500033F8252002EA0B0242EA0E0223F8252091
:100A600084B30A8929E04FF0060808EBC308C444A0
:100A700007EB4C07E45BC4F30904A54203D32D1B29
:100A80008D6101D00BE08E61066836F8235005EACF
:100A9000090585F4005545EA0A0526F82350520653
:100AA00009D40B78056835F8232002EA0B0242EAE4
:100AB0000E0225F823202CB14A8949690068234693
:100AC00002F06EFF2046BDE8F09F2DE9F05F05467D
:100AD0000C4600685FEA426C16462278A369B0F8BB
:100AE00050C04FF0000148F68F774CF280094FF666
:100AF000FF7B4FF4004E4FF4806A6CD54FF0020834
:100B000008EBC208E0440AEB480C30F80C00C0F3D4
:100B10000900834211D91B1AA3610FD0730407D5B2
:100B20002E6836F822303B4043EA090326F822308B
:100B300094F82420012A08D0C6E0A1611146284675
:100B4000FFF7E9FE70046CD4BEE0626902446261A2
:100B5000E2690244E2612369226A9A4202D318469A
:100B6000111A03E084F824100AB11046216261785A
:100B700011B1012923D02BE02968B1F8502011448C
:100B8000227801EB021101F2044148B13E280FD84E
:100B90004208C30700D0521C0BEA82220A8017E0E9
:100BA0000A8822F4F8420A800A8842F40042F5E7F3
:100BB0004209C30600D1521E4EEA8222EEE729689E
:100BC000B1F850201144227801EB0211A1F804047D
:100BD00083B2228974E04FF0060808EBC208E044B3
:100BE0000AEB480C30F80C00C0F30900834211D323
:100BF0001B1AA3610FD0730407D42E6836F8223075
:100C00003B4043EA090326F8223094F82420012AC5
:100C100011D059E0A16111462846FFF77CFE70040F
:100C200052D42278296831F82200384040EA09007D
:100C300021F8220048E0626902446261E2690244EC
:100C4000E2612369226A9A4203D31846111A21628B
:100C500004E00AB11046216284F824106278296801
:100C600012B1012A22D029E0B1F850201144227893
:100C700001EB021101F20C4148B13E280FD84208A5
:100C8000C30700D0521C0BEA82220A8016E00A88B1
:100C900022F4F8420A800A8842F40042F5E7420949
:100CA000C30600D1521E4EEA8222EEE7B1F8502070
:100CB0001144227801EB0211A1F80C04628983B27D
:100CC0006169286802F08AFE2278296831F82200DA
:100CD00048F6BF73184080F0300048F28003184394
:100CE00021F822000020BDE8F09F01F0070101EB90
:100CF000810100EBC100D0F8840170472DE9F0417B
:100D000004460F0601F0070000EB800104EBC1016F
:100D10004FF001064FF0000503D581F82960283116
:100D200003E081F8695101F5B47108700A61CB7074
:100D30004A7802B1C881022B00D10D7194F8A80243
:100D4000012809D084F8A862206802F089F92846B1
:100D500084F8A852BDE8F0810220FBE770B50C468C
:100D600001F0070505EB850100EBC101C1E95F2337
:100D70000022C1F8842181F8692181F8685101F5C8
:100D8000B4716207006802F08BFB002070BD70B583
:100D900004460D4601F007006168884201D9012030
:100DA00070BD29064FF000064FF0010207D500EB99
:100DB000800104EBC10181F82920283107E005EB0F
:100DC000850104EBC10181F8696101F5B4718A7094
:100DD000087094F8A802012807D084F8A822206897
:100DE00002F045FB680702D006E0022070BD04F562
:100DF0002C71206802F0FDFA84F8A862002070BD12
:100E000070B50C4601F0070505EB850100EBC1014B
:100E1000C1E90F23012281F84C208B6400234B642D
:100E200081F8292001F8285F6207006802F038FB8A
:100E3000002070BD1FB50446006802F0ADFD00043F
:100E400002D5204601F01CF8206802F0A5FD4005FF
:100E50000CD5206830F8441F21F4806101802046C1
:100E600000F026F90021204600F03DF9206802F04C
:100E700093FD400405D5206830F8441F21F48041DB
:100E80000180206802F088FD800405D5206830F8D4
:100E9000441F21F400510180206802F07DFDC00450
:100EA00014D5206830F8401F21F00401018020682B
:100EB00030F8401F21F008010180204600F00BF9B6
:100EC000206830F8441F21F480510180206802F02E
:100ED00063FD00053ED522680020694632F82030C7
:100EE00021F81030401CC0B20828F7D332F8400F68
:100EF00040F001001080206830F8402F22F00102FD
:100F000002802068B0F844205205FBD530F8442F09
:100F100022F4806202800020236831F8102023F838
:100F20002020401CC0B20828F6D3206830F8401FAB
:100F300041F008010180206830F8441F21F400616D
:100F40000180206830F8401F41F0040101802046F4
:100F500000F0FEF8206802F01FFD800508D520682B
:100F600030F8441F21F400710180204600F0B7F8EA
:100F7000206802F011FDC00505D5206830F8441F37
:100F800021F4807101801FBD2DE9F04186B004007D
:100F900004D094F8A902002520B108E0012006B091
:100FA000BDE8F08184F8A852204600F05BF80320E9
:100FB00084F8A902206802F015FA04F11001142245
:100FC00088466846FFF7FAF894E80F0002F074F9D3
:100FD0000226D0BB0021206802F0F8FC0020012787
:100FE0000FE000BF00EB800104EBC10181F8297024
:100FF00001F8280FC881CD700D614D61401CC0B251
:101000008D6161688142EDD8002011E000EB800124
:1010100004EBC10181F8695181F8680181F86B51D5
:10102000C1F87851C1F87C51401CC0B2C1F8805160
:1010300061688142EAD8142241466846FFF7BEF84B
:1010400094E80F0002F0C5F910B184F8A962A5E791
:1010500084F8245084F8A972206802F0B8F90020BE
:101060009DE7000008B500680F4988421AD10F4873
:10107000C16941F40001C161C069002200F40000AF
:10108000009011461320FFF7F5FB1320FFF7E4FB58
:10109000002211461420FFF7EDFBBDE808401420A4
:1010A000FFF7DABB08BD0000005C00400010024002
:1010B00070B5044680680125022801D0FFF72BF99E
:1010C0002946D4F8E80201F0A2FDD4F8E802BDE810
:1010D000704001F05EBDD0F8E80201F082BDD0F8AA
:1010E000E80201F088BD10B5044690F8A802012876
:1010F0000BD0012084F8A80284F82410206802F0A4
:1011000067FC002084F8A80210BD022010BDD0F8B2
:10111000E82200F52C71104601F085BD10B504469B
:1011200090F8A802012810D0012084F8A8022068B5
:1011300002F01DFC01212046FFF7ECFB206802F0C5
:1011400044F9002084F8A80210BD022010BD000060
:1011500010B50446D0F8E80201F0A4FDA06900280B
:1011600004D00348016841F00601016010BD000091
:1011700010ED00E02DE9F84305460078354CC00736
:1011800054D0E0690026C00008D4E06940F08050E7
:10119000E061E069012600F0805000902E4801686F
:1011A000C90512D40168804641F480710160FFF7DF
:1011B000DBFA074605E000BFFFF7D6FAC01B64283C
:1011C00023D8D8F80000C005F6D5206A10F4407086
:1011D00021D0A98801F4407181421CD0206A1F49A6
:1011E000012220F440700A6000220A602062C007D9
:1011F00011D0FFF7B9FA074641F2883808E000BF7E
:10120000FFF7B2FAC11B414502D90320BDE8F883BC
:10121000206A8007F4D5206A696820F4407008438A
:1012200020621EB1E06920F08050E06128788007DC
:1012300005D56068A96820F44040084360602878BC
:10124000C00605D56068E96820F480000843606046
:101250000020DBE7001002400070004040044242E2
:101260002DE9F0470F46050061D0434E306800F08D
:101270000700B84209D2306820F0070038433060D8
:10128000306800F00700B84251D128683B4C810714
:1012900012D5400703D5606840F4E06060602878AC
:1012A000000703D5606840F4605060606068A9681A
:1012B00020F0F000084360602878C00728D06868F4
:1012C000012810D02168022810D0890700292EDAC1
:1012D000616821F0030101436160FFF745FA804630
:1012E00041F288390DE021688903EFE78901EDE7D4
:1012F000FFF73AFAA0EB0801494502D90320BDE8FF
:10130000F0876068696800F00C00B0EB810FEFD1E6
:10131000306800F00700B8420BD9306820F00700B1
:1013200038433060306800F00700B84201D0012037
:10133000E5E72878400705D56068E96820F4E060B3
:10134000084360602878000706D56068296920F4A2
:10135000605040EAC100606000F058F86168084AD7
:10136000C1F30311515CC840064908600648006893
:10137000FFF71AFA0020C2E70020024000100240E6
:10138000AC52000878000020700000200F2202609C
:101390000C4A536803F003034360536803F0F003FF
:1013A0008360536803F4E063C36052684FF4E06302
:1013B00003EAD20202610448006800F007000860F6
:1013C0007047000000100240002002400448054918
:1013D00000684968044AC1F30221515CC840704763
:1013E0007800002000100240BC5200080448054963
:1013F00000684968044AC1F3C221515CC840704783
:101400007800002000100240BC52000812A185B0F4
:101410000FC98DE80F0014A0144A006804905168A9
:10142000134801F00C03042B10D0082B0ED1C1F38C
:101430008343C9031DF803000AD5516804AAC1F308
:101440004041515C0A4A5043B0FBF1F005B070478F
:1014500008494843FAE700000203040506070809A3
:101460000A0B0C0D0E0F10100102000000100240BC
:1014700000127A0000093D002DE9F84F040070D0F9
:101480002078C04DC00749D06868C0F381000128AA
:1014900007D06868C0F38100022809D16868C003DA
:1014A00006D52868800339D560680028E7D035E084
:1014B0006068B0F5803F0BD010B1B0F5A02F11D00F
:1014C000286820F480302860286820F4802002E01A
:1014D000286840F480302860606890B1FFF744F9D4
:1014E00006460AE0286840F480202860F0E700BF44
:1014F000FFF73AF9801B642873D828688003F7D572
:101500000CE0FFF731F9064605E000BFFFF72CF9C4
:10151000801B6428F0D828688003F7D420789A4E7E
:1015200080074FF001094FF0000839D5686810F0C6
:101530000C0F07D06868C0F38100022809D16868E1
:10154000C00306D42868800714D52069012808D173
:1015500010E02069B0B1C6F80090FFF705F9074622
:1015600005E00AE1FFF700F9C01B0228C4D828688B
:101570008007F7D52868616920F0F80040EAC100CB
:1015800028600DE0C6F80080FFF7EEF8074604E09B
:10159000FFF7EAF8C01B022823D828688007F7D491
:1015A000207800072CD57948A169D9B1C0F80090FE
:1015B000FFF7DAF8074604E0FFF7D6F8C01B022869
:1015C0000FD8686A8007F7D571484FF4FA51006860
:1015D000B0FBF1F0009000BF0098411E0091FAD2DC
:1015E0000EE080E0C0F80080FFF7BEF8074604E098
:1015F000FFF7BAF8C01B022875D8686A8007F7D4CD
:101600002078400760D5E8690027C00008D4E86961
:1016100040F08050E861E869012700F080500090B8
:101620005C480168C90513D40168834641F48071A0
:101630000160FFF799F8824606E000BFFFF794F8D3
:10164000A0EB0A0064284ED8DBF80000C005F5D5F1
:10165000E06801280AD008B1052813D0286A20F0D4
:1016600001002862286A20F0040002E0286A40F0A5
:1016700001002862E06841F2883B98B1FFF774F8F6
:1016800082460BE0286A40F004002862EEE700BFC3
:10169000FFF76AF8A0EB0A0159455AD8286A800773
:1016A000F6D50CE0FFF760F8824605E0FFF75CF83E
:1016B000A0EB0A0159454CD8286A8007F6D41FB11F
:1016C000E86920F08050E861E06988B36968C1F397
:1016D0008101022944D00228C6F8608004D0FFF7B7
:1016E00043F8044638E034E0FFF73EF8074604E0EC
:1016F000FFF73AF8C01B02282BD828688001F7D4DE
:10170000206AB0F5803F05D16868A16820F40030F8
:1017100008436860D4E908010843696821F474113A
:1017200008436860C6F86090FFF71EF8044606E0BC
:1017300025E000BFFFF718F8001B022809D8286829
:101740008001F7D51BE000BFFFF70EF8001B022851
:1017500002D90320BDE8F88F28688001F4D40EE098
:101760000128F7D06868226A00F48031914204D1E0
:10177000616A00F47010884201D00120EAE700207D
:10178000E8E70000001002400000424280044242AC
:10179000780000200070004070B5040009D0606A35
:1017A000002540B125616561A56294F8510040B102
:1017B0000CE0012070BD6068B0F5827FF4D0E56177
:1017C000F2E784F85050204600F040F8022084F8F8
:1017D00051002068016821F040010160A088218942
:1017E00000F4827001F404410843A18901F400610E
:1017F0000843217C01F002010843217D01F0010131
:101800000843218B01F400710843217F01F0380166
:10181000084394F8201001F080010843218D01F461
:101820000051084321680860A069042101EA1040C2
:10183000216848602068C16921F40061C161656563
:10184000012084F85100002070BD000000B585B073
:101850000021009101910291039100680F49884293
:101860001AD10F48816941F480518161816901F485
:1018700080510491816941F0040181618069694668
:1018800000F004000490A0200090022001900320AA
:1018900003900448FEF778FE05B000BD003001401B
:1018A00000100240000801407047704770B590F882
:1018B0003C20012A26D0012480F83C40022280F8F6
:1018C0003D2003685A689D6822F070060A6832431A
:1018D0005A600D4B02689A4208D0B2F1804F05D091
:1018E0000A4B9A4202D00A4B9A4204D1496825F029
:1018F00080031943916080F83D40002180F83C103E
:10190000084670BD022070BD002C0140000400405C
:101910000008004010B5040003D094F83D0010B159
:1019200007E0012010BD002084F83C00204600F0B4
:101930001FF8022084F83D00211D206800F06EFC95
:10194000012084F8460084F83E0084F83F0084F8C3
:10195000400084F8410084F8420084F8430084F891
:10196000440084F8450084F83D00002010BD0000CC
:1019700008B500680649884208D10648C16941F0A7
:101980000201C161C06900F00200009008BD0000C2
:10199000000400400010024090F83D10012901D0E1
:1019A00001207047022180F83D100168CA6842F0AA
:1019B0000102CA6000680B49884208D0B0F1804F2C
:1019C00005D00949884202D00849884204D181687B
:1019D00001F00701062903D0016841F0010101600F
:1019E00000207047002C0140000400400008004027
:1019F00070B5044690F83C00012817D0012584F802
:101A00003C50022084F83D002068826822F0770272
:101A100022F47F4282600868502830D00DDC2028F4
:101A20004DD005DC98B310283BD148E0022070BDB2
:101A3000302844D0402834D139E0602828D070289C
:101A400006D0B0F5805F2CD0B0F5005F29D10AE058
:101A5000CB68D1E90121206800F016FC206881687C
:101A600041F0770109E0CB68D1E90121206800F05D
:101A70000BFC2068816841F48041816011E0CA68F4
:101A80004968206800F012FC5021206807E016E049
:101A9000CA684968206800F01AFC6021206800F0DC
:101AA000FDFB84F83D50002084F83C0070BDCA68FE
:101AB0004968206800F0FAFB40212068EFE72268BF
:101AC00001461046EBE7704770B5044600680169AF
:101AD0004FF00005C943890715D4C168C943890778
:101AE00011D4E91E016101202077206880698007F8
:101AF000204602D0FFF7E7FF04E000F098F8204608
:101B000000F096F8257720680169C943490717D482
:101B1000C168C943490713D46FF004010161022071
:101B200020772068806910F4407F204602D0FFF7BC
:101B3000CAFF04E000F07BF8204600F079F8257732
:101B400020680169C943090716D4C168C943090758
:101B500012D46FF008010161042020772068C06969
:101B60008007204602D0FFF7AEFF04E000F05FF8E8
:101B7000204600F05DF8257720680169C943C90651
:101B800017D4C168C943C90613D46FF010010161AD
:101B9000082020772068C06910F4407F204602D0DA
:101BA000FFF791FF04E000F042F8204600F040F813
:101BB000257720680169C943C90708D1C168C943AD
:101BC000C90704D1891E0161204600F033F820685E
:101BD0000169C943090609D4C168C943090605D486
:101BE0006FF0800101612046FFF75EFE2068016909
:101BF000C943490609D4C168C943490605D46FF0F1
:101C000040010161204600F01FF820680169C943C6
:101C100089060BD4C168C943890607D46FF0200137
:101C200001612046BDE87040FFF73FBE70BD7047C0
:101C30007047000000680349884201D1FEF79ABD51
:101C400070470000002C0140704770B5040004D0BC
:101C500094F83900002510B106E0012070BD84F829
:101C60003850204600F022F8242084F839002068FB
:101C7000C16821F40051C160204600F03BFB2068A0
:101C8000016921F4904101612068416921F02A0134
:101C900041612068C16841F40051C160E5632020C2
:101CA00084F8390084F83A00002070BD30B585B062
:101CB000002400940194029403940068144988421B
:101CC00024D11448816941F480418161816901F422
:101CD00080410491816941F00401816180690E4D68
:101CE00000F0040004904FF4007000900220019076
:101CF0000320039069462846FEF746FC2815CDE9E7
:101D00000004694628460294FEF73EFC05B030BD4B
:101D1000003801400010024000080140FEE70000CA
:101D2000F0B500230A24302537261F4611E000BFF6
:101D3000B4EB107F02D905EB107C01E006EB107CC0
:101D400001F813C001EB430C00015B1C8CF801701F
:101D5000DBB29342ECD3F0BD3EB500240D480094B5
:101D6000019402940A49846001600473047501259A
:101D700005614FF460214460C161FEF74BFB042014
:101D8000CDE90005694602940248FEF7C5FA3EBD5A
:101D900000240140080200200D480C494FF4007255
:101DA00001604FF4827141604FF400418160002175
:101DB000C1600161C0E905123022C0E9072141621A
:101DC00081620A21C162FFF7E7BC000000300140D8
:101DD0003802002010B586B0002412480094019407
:101DE0000294039404940E49059401606321C0E9B0
:101DF000011440F2CF21C0E903148461FFF78AFD8A
:101E00004FF48050009069460648FFF7F1FD0494B6
:101E100004A904480594FFF749FD06B010BD000071
:101E2000000400409002002010B500220F49104825
:101E300000F07AFD08B1FEF76EFA0E490C4800F08A
:101E400057FF08B1FEF767FA0B49094800F092FB0B
:101E500008B1FEF760FA064800F0A0FF002803D0A2
:101E6000BDE81040FEF757BA10BD00000C0000207E
:101E700060030020D00100205C000020FEE77047D6
:101E80002DE9F84F044640F68F7B48F60F7A4FF065
:101E900002094FF4806868E1B0F8441011F00F06B1
:101EA00038D030F8267039047ED530F8261001EA93
:101EB0000B0141F0800120F8261006EB860004EBB0
:101EC000C00595F8740105F5B47500286DD0E87863
:101ED00002286BD02A78216831F8220048F68F73E7
:101EE000184048F2C003184321F8220029782068DE
:101EF00030F82120B0F8503052047DD509EBC101F3
:101F00005A1808EB4201415A8905890D009174D095
:101F10002A89D2E0C9062DD4018801EA0A0141F4D8
:101F200000410180206804F12805B0F850302A787B
:101F300009EBC2015A1808EB4201405AC0F30900EC
:101F40006064E16B0844E06300212046FEF7E3FC97
:101F500094F8240000289ED0A86900289BD194F80A
:101F6000240040F080012068A0F84C10002084F884
:101F70002400FAE0018804F5B4750A0521D5B0F80B
:101F800050302A78062101EBC2015A1808EB4201B1
:101F9000405A04F52C71C0F30903EB61EA8820680C
:101FA00001F0FEFC216802E0A2E062E072E0088835
:101FB00000EA0B0040F0800008802046FFF7A7F8F9
:101FC000D3E00904D5D5018801EA0B0141F0800175
:101FD00001802068B0F850202B78062101EBC30166
:101FE0000A4408EB4201405A83059B0DEB6110D077
:101FF000696971B1EA8801E053E051E0206801F0BD
:10200000CFFCE96968690844686100212046FEF751
:102010008BFC2068B0F850100844296900F20C408D
:1020200051B13E2910D84A08C90700D0521C4FF6BA
:10203000FF7101EA82210FE0018821F4F84101805B
:10204000018841F4004107E04A09C90600D1521E47
:102050004FF4004141EA82210180206801884BF65B
:102060008F72114081F4405148F280021143018087
:102070007BE02068B0F850102A78062303EBC202F8
:102080000A4408EB4201415A8905890D009118D094
:10209000EA8812E03A4629462046FEF7A3FC009063
:1020A0000FE0062202EBC1015A1808EB4201415A27
:1020B0008905890D009104D06A896969009B01F046
:1020C0006FFCE96900980844E86169690098084470
:1020D0006861A86918B129690098814204D92978F2
:1020E0002046FEF721FC03E02946206801F0D8F9DC
:1020F00038063AD5226806EB860004EBC00132F8B8
:10210000260000EA0A0040F4004022F8260091F878
:102110002B002831022801D1F80522D42268B2F818
:1021200050300D7809EBC500034408EB4300105A0A
:102130008A69C0F3090082420CD9121A8A610BD055
:102140004A6902444A61CA691044C861206801F0C2
:10215000A7F90AE000208861E9B22046FEF7DBFB20
:1021600003E03A462046FEF7B0FC2068B0F8441081
:1021700009043FF591AE0020BDE8F88F10B550205E
:1021800080F31188BFF34F8FBFF36F8F02F0B6FE5D
:1021900018B104494FF080500860002080F3118886
:1021A00010BD000004ED00E030B593B02821684672
:1021B000FEF71DF814210AA8FEF719F800240120E3
:1021C0000F9410941194010412948DE8130004905C
:1021D0004FF4E010CDE90810022507956846FFF797
:1021E0004BF90F20CDE90A056802CDE90C40022128
:1021F0000AA80E94FFF734F812200F90A803CDE937
:1022000011040FA8FEF7B6FF13B030BD70470000F1
:102210000148FFF759BC000018030020F0B5026820
:10222000164B174C174D4FF08047984205D0B842D7
:1022300003D0A04201D0A84203D122F070064A6820
:102240003243984205D0B84203D0A04201D0A84200
:1022500003D122F44074CA6822434C6922F0800200
:10226000224302608A68C2620A688262984201D18F
:102270000969016301214161F0BD0000002C0140AA
:10228000000400400008004010B5846842EA0322C0
:1022900024F47F440A432243826010BD826822F006
:1022A00070020A4342F007018160704710B5036A6B
:1022B000046A24F001040462846924F0F00444EA0E
:1022C000021423F00A020A438461026210BD10B5B1
:1022D000036A23F0100303628369046A23F47043E2
:1022E00043EA023224F0A00343EA01118261016251
:1022F00010BD000070B5044600680169E26821F471
:102300004051114301612169A06808436169084394
:102310002168CA6841F20C639A430243CA6020688C
:102320004169A26921F44071114341611E4920684D
:10233000884202D1FFF75AF801E0FFF747F800EBB7
:10234000C00101EB0012606864218000B2FBF0F371
:10235000B3FBF1F36FF018067343B2FBF0F5B2FB79
:10236000F0F605EB8305322303EB0515B5FBF1F51C
:10237000B6FBF1F605F0F00505EB0615B2FBF0F63D
:10238000B2FBF0F0B0FBF1F06FF01802504306EB37
:10239000800003EB0010B0FBF1F0216800F00F00AB
:1023A0002844886070BD0000003801402DE9F041EC
:1023B000D0F8C032D0F8B822CAB101EB810500EBE9
:1023C00085040026E7693FB103EBC5039B6BB7FBB0
:1023D000F3F503FB157323B1C2F814620020BDE8C6
:1023E000F08100231A46E66100F065FCF6E7022062
:1023F000F5E770B50546D0F8B84200F060FBC4F8C8
:102400000C02D5F8B80248B1D5F8BC12D4F80402D1
:10241000CA6804F503719047002070BD022070BDAA
:1024200070B504460026812100F09CFA00250121A8
:102430002046E56200F096FA82212046C4F86C51ED
:1024400000F090FA2564D4F8B80248B1D4F8BC0280
:1024500004F52E7440688047206800F0FCFD25607C
:10246000304670BD10B5D0E9AE4159B194F80002C4
:10247000FF2807D08B6894F8012221469847FF2057
:1024800084F80002002010BD0A2101800048704736
:10249000F8000020432101800048704748010020D7
:1024A000432101800048704704010020432101803E
:1024B000004870478C0100202DE9F04104460026B9
:1024C000007C4FF40077012590B340230222812144
:1024D000204600F049FB4023E5620222012120460C
:1024E00000F042FB0823032282212046C4F86C51ED
:1024F00000F03AFB4FF40770256400F0ADFDC4F81E
:10250000B802F8B10546D4F8BC0200688047002044
:10251000C5F81402C5F81802207CD5F8042298B139
:1025200040230121204600F02BFB3046BDE8F0811E
:10253000FFE73B4602228121204600F015FB3B4687
:10254000E562CAE70126F0E73B46EAE710B5D0F8B6
:10255000B81269B1027C002AD1F8042205D04023C8
:10256000012100F00DFB002010BD4FF40073F7E7D0
:10257000022010BD02460220002902D00020C2F82D
:10258000BC127047D0F8B802C0F80412002070479F
:10259000D0F8B802C0F81022C0F808120020704726
:1025A0002DE9FC410546D0F8B87200208DF80000F6
:1025B000ADF80400064608780C4610F0600121D002
:1025C00020293BD1E288AAB10006607807D5D5F86A
:1025D000BC128B6839469847E288394626E087F86E
:1025E0000002A07987F80102E2883946284600F007
:1025F0004FF828E0D5F8BC12607800228B6821469D
:10260000984720E0607820B10A2809D00B2815D11E
:1026100010E095F89C02032810D1022201A905E0E0
:1026200095F89C02032809D101226946284600F04A
:1026300049F808E095F89C02032804D02146284672
:1026400000F01BF802263046BDE8FC8110B5D0F83A
:10265000B42252689047002010BD134610B50A46B8
:10266000002100F08DFA002010BD134610B50A4677
:10267000002100F020FB002010BD10B50446802191
:1026800000F0FEFA2046BDE81040002100F0F8BA44
:1026900010B50323C0F85C21C0F89432C0F8602163
:1026A00013460A46002100F06BFA002010BD10B559
:1026B00005210023C0F894121A46194600F060FA6A
:1026C000002010BD10B50223C261C0F8943202622E
:1026D00013460A46002100F0EEFA002010BD10B5A6
:1026E00004210023C0F894121A46194600F0E3FAB8
:1026F000002010BD10B50A46024903A000F0E4F81E
:10270000004810BD2406002043444320436F6E66FA
:102710006967000012200880004870472C000020E4
:1027200010B50A46024903A000F0CEF8004810BDDB
:102730002406002043444320496E74657266616339
:102740006500000004200880004870472800002031
:1027500010B50A46024903A000F0B6F8004810BDC3
:102760002406002053544D6963726F656C65637471
:10277000726F6E696373000010B50A46024903A0C8
:1027800000F0A2F8004810BD2406002054797065BE
:10279000577269746572205669727475616C204352
:1027A0006F6D506F7274000010B51A2008800A48CF
:1027B0000168001D0468001D0068081809D008227F
:1027C0000649FFF7ADFA0549042210312046FFF70C
:1027D000A7FA0248801E10BDE8F7FF1F4200002044
:1027E000F8B504460020ADF8000048880D46010AFF
:1027F000082948D2DFE801F04704091747473C455C
:10280000D4F8B012207C0A6819E0207C0226002847
:10281000D4F8B40205D0C16A6846884701464670BC
:102820003EE0816AF8E7C0B206282CD2DFE800F06B
:10283000030A1014181CD4F8B002426805E0694677
:1028400090471CE0D4F8B0028268E2B1207CF6E741
:10285000D4F8B002C268F8E7D4F8B0020269F4E72D
:10286000D4F8B0024269F0E7D4F8B0028269ECE72C
:10287000207C40B9D4F8B402416B684688470146D1
:102880000EE0207C20B129462046FFF7F6FEF8BD79
:10289000D4F8B402016B68468847014607204870A7
:1028A000BDF8000048B1EA8852B1824200D9024620
:1028B000ADF800202046FFF705FFE8880028E6D1A4
:1028C0002046FFF70CFFF8BD70B5002300281ED08E
:1028D0000446002502E06D1CEDB2641C2678002E33
:1028E000F9D1022404EB450414801278CA545B1C0D
:1028F0000322CA5400245B1C06E0CA545B1CDAB2F3
:102900008C54521CD3B2401C0278002AF5D170BD01
:1029100001004FF0000004D0012901D0022901D0AC
:10292000022070470120704710B580B1D0F8B43252
:1029300013B10023C0F8B43209B1C0F8B0120121BC
:1029400080F89C12027000F0BFF8002010BD022039
:1029500010BD10B5D0F8C002FEF716F8BDE8104063
:10296000FFF7D6BF10B5D0F8C002FDF7E7FFBDE80E
:102970001040FFF7CDBF2DE9F0411746044651B195
:10298000D4F8B40242691AB194F89C02032851D0D9
:102990000220BDE8F081D4F89432002504F114003F
:1029A000022B03D0042B3AD0C3B33CE0D0E903633D
:1029B0009E4207D9F11AC1608AB239462046FFF714
:1029C00054FE12E08068B0FBF3F103FB110199B9EA
:1029D000984211D3D4F8981288420DD200221146A1
:1029E0002046FFF742FEC4F8985200231A461946C3
:1029F000204600F0C5F816E0D4F8B402C16829B149
:102A000094F89C02032801D1204688478021204663
:102A100000F036F92046FFF74AFE04E0FFE7802188
:102A2000204600F02DF994F8A002012804D184F882
:102A3000A05201E0204690470020AAE770B5154655
:102A4000044649B1D4F8B40282691AB194F89C02E0
:102A5000032830D0022070BDD4F8941204F5AA7077
:102A6000032902D005291ED027E0D0E903218A429C
:102A70000BD9531AC3600846834200D303469AB267
:102A800029462046FFF7E9FD17E0D4F8B4020169B2
:102A900029B194F89C02032801D12046884720469A
:102AA000FFF71DFE09E000200146C4F8940220460D
:102AB00000F0E6F801E020469047002070BDD0F815
:102AC000C002FEF712B9000010B504461C481D49AB
:102AD000C0F8E842C4F8C002016008214160022148
:102AE000816000218161C1610162FEF74DFA08B188
:102AF000FDF711FC0022D4F8C0021823114604F59A
:102B00003074FDF7E9FE5823002280212068FDF78C
:102B1000E3FEC023002281212068FDF7DDFE4FF493
:102B20008873002201212068FDF7D6FE4FF48073E0
:102B3000002282212068FDF7CFFE002010BD00009A
:102B400014120020005C00400A0601F07F01D0F85A
:102B5000C00201EB810100EBC10002D590F82A0010
:102B6000704790F86A01704710B51C461346D0F8BC
:102B7000C0022246FEF7C2F8BDE81040FFF7C8BE0B
:102B800010B5D0F8C002FEF7E9F8BDE81040FFF735
:102B9000BFBE70B50022044640231146FFF7E4FF94
:102BA00040260125C4F86461334600228021204676
:102BB000C4F85851FFF7D8FF6662A56184F89C52AB
:102BC0000020C4F894026060C4F8A402D4F8B802EB
:102BD00028B1D4F8B4020021426820469047002072
:102BE00070BD90F89C12042903D190F89D1280F8D2
:102BF0009C120020704710B590F89C12032904D154
:102C0000D0F8B412C96901B18847002010BD017421
:102C10000020704710B5D0F8C002FEF764FABDE896
:102C20001040FFF775BE70B5044600F52A700546E2
:102C300000F04AF80120C4F89402B4F8AE02C4F8D7
:102C4000980294F8A80210F01F010AD001290DD0B3
:102C5000022910D000F08001204600F011F8002079
:102C600070BD2946204600F09EF8F8E72946204628
:102C700000F0CAF9F3E72946204600F01DF9EEE717
:102C800010B5D0F8C002FEF782F8BDE81040FFF79B
:102C90003FBE10B5D0F8C002FEF740FABDE81040C4
:102CA000FFF736BE90F89C1280F89D12042180F840
:102CB0009C120020704710B5D0F8C002FEF7A0F8B3
:102CC000BDE81040FFF724BE0A7802704A784270CF
:102CD0008A78CB7802EB032242800A794B7902EBA7
:102CE000032282808A79C97902EB0121C180704771
:102CF0000246002011B1C2F8B4127047022070479A
:102D000010B5D0F8B42202241AB11268904700B965
:102D10000024204610BD000070B50E461E4D897877
:102D200004462970012931D894F89C0202280BD05E
:102D300003280FD031462046FFF79FFC2978204614
:102D4000BDE87040FFF782BCD9B10320616084F810
:102D50009C0209E071B16068884212D0C1B220467D
:102D6000FFF774FC297861602046FFF7C9FF02284D
:102D70000CD006E0022084F89C0220466160FFF738
:102D800065FC2046BDE87040FFF7A9BC31462046EF
:102D9000BDE87040FFF771BCF400002010B5FFF7EC
:102DA00078FF002010BD2DE9F0410A78002612F0CE
:102DB000600208D0202A01D0402A70D1D0F8B42275
:102DC000926890476DE04B78002201250A2B66D26D
:102DD000DFE803F0405D6557650805652C29FFF7BE
:102DE000FFFC5EE004468888D8B9C888C8B948881E
:102DF000802816D200F07F0794F89C02032810D098
:102E000084F89E7239462046FFF704FF2046FFF7FC
:102E100066FC1FB1022084F89C0242E084F89C52B8
:102E20003FE020463BE0FFF777FF3AE0CB88012BFD
:102E300035D190F89C32012B04D0022B02D0032B09
:102E40002DD104E08260012200F1080116E0012288
:102E5000011D13E090F89C22012A03D0022A01D020
:102E6000032A1CD1CA88022A19D1C560D0F8A4123D
:102E700009B10321C160022200F10C01FFF722FC1D
:102E80000FE0498801290CD1C0F8A45211E090F854
:102E90009C32012B08D0022B06D0032B04D0FFF765
:102EA000ECFB3046BDE8F08149880129F9D1C0F832
:102EB000A422FFF714FCF4E72DE9F0410A4604468A
:102EC00010780027097910F060030AD0202B01D078
:102ED000402B50D1D4F8B40211468368204698475D
:102EE0008FE0C0F34110012806D05078D0B30128FC
:102EF0002AD003283FD107E0D4F8B40211468368F2
:102F00002046BDE8F041184794F89C02022802D000
:102F1000032872D10AE071B380296ED02046FFF7F2
:102F2000AFFE80212046FFF7ABFE6AE0508838B93B
:102F300031B1802904D0D08810B92046FFF7A0FE17
:102F40002046FFF7CCFB5CE094F89C020228E2D01C
:102F5000032852D1508898BB4806F1D02046FFF78D
:102F6000F8FCEDE7FFE794F89C020026022803D066
:102F7000032842D112E040E009B180293DD1080682
:102F800001F07F0000EB800004EB800101D51431DB
:102F900001E001F5AA7102220E602AE0080601F0A4
:102FA0000F0000EB800004EB80000AD5806920B39D
:102FB00001F07F0000EB800004EB800514350BE08E
:102FC0001FE0D0F85801C0B101F07F0000EB800095
:102FD00004EB800505F5AA7541B1802906D020468D
:102FE000FFF7B2FD10B10120286000E02E60022240
:102FF00029462046FFF766FB03E011462046FFF70F
:103000003CFB3846BDE8F08170B5054608780C46B3
:1030100010F0600003D0202801D0402816D195F888
:103020009C02012803D0022801D003280ED1207968
:1030300001280BD8D5F8B402826828469047E18869
:10304000014306D12846FFF74AFB02E02846FFF776
:1030500014FB002070BD704700487047F40F00203B
:103060002DE9F0470C78002630F8243048F68F120E
:103070001340CA78002A7DD0012A7CD0022A02D0CF
:10308000032A7FD0012648F28002134320F824301F
:103090000D7830F8254048F68F731C402C431443BC
:1030A00020F825400D7B48F2C00C48F6BF744CF266
:1030B00080074BF68F79EDB391F80080C24630F867
:1030C000285048F280181D4045EA080520F82A508B
:1030D000B0F8505091F80080054405EB0815B1F8A0
:1030E000088028F00108A5F80084B0F8505091F845
:1030F0000080054405EB0815B1F80A8028F00108A6
:10310000A5F808844D78002D0D7830F825804FEA19
:1031100048487DD0B8F1000F07DA30F8258008EA7A
:10312000030848EA070820F825800F7830F8275070
:103130006D0600E02CE006D530F827501D4045EA2A
:103140000C0520F82750CB780D78012B30F825306E
:1031500003EA040301D083F02003134320F8253051
:103160000B7830F8231001EA0901114320F82310ED
:10317000304602E003E008E004E0BDE8F08743F4F5
:10318000007380E743F4C0637DE743F480637AE72C
:103190004D782DB3B0F850500F78054405EB071566
:1031A000CF8827F00107A5F800740F7830F8275072
:1031B0006D0606D530F827501D4045EA0C0520F86D
:1031C0002750CB78012B06D00B7830F82310214004
:1031D00081F02001C9E70B7830F823102140C4E7C3
:1031E000B0F850400D78044404EB0514CD8825F068
:1031F0000105A4F80854B0F850400D78044404EBDD
:1032000005140D6904F20C4475B13E2D14D800E08C
:1032100030E04FEA550CED0701D00CF1010C4FF6F0
:10322000FF7505EA8C2511E0258825F4F8452580F1
:10323000258845F4004509E04FEA551CED0601D10B
:10324000ACF1010C4FF4004545EA8C2525800D7842
:1032500030F82540640405D530F825401C403C4337
:1032600020F825400B7830F8231001EA090181F499
:1032700040517AE7B8F1000F07DA30F8258008EA04
:10328000030848EA070820F825800F7830F827500F
:103290006D0606D530F827501D4045EA0C0520F88C
:1032A00027500D7830F8253003EA090383F44053A2
:1032B000134320F825308EE7002070472DE9F043B6
:1032C00091F80C804F780A7848F6BF7C4BF68F79DE
:1032D00048F2800348F2C0054CF2800648F68F742D
:1032E000B8F1000F28D0002F30F822704FEA47477E
:1032F00048D0002F05DA30F822702740374320F8F5
:1033000022700A7830F822707F0605D530F82270D6
:1033100027402F4320F822700D7830F825202240D6
:10332000324320F825200C7830F8242002EA0C02E1
:103330001A4320F824201AE07FB130F82260760684
:1033400005D530F8226026402E4320F822600A7806
:1033500030F8221001EA0C010EE030F822506D0422
:1033600005D530F822502540354320F822500A7800
:1033700030F8221001EA0901194320F82210002038
:10338000BDE8F083002F05DA30F82270274037437C
:1033900020F822700A7830F82260760605D530F8D9
:1033A000226026402E4320F822600E7830F8262036
:1033B00022402A4320F826200C7830F8242002EA04
:1033C00009021A4320F82420C1E70020704700209A
:1033D0007047012120F8401F002101808180018277
:1033E0000846704730F8401F21F43F41018000201B
:1033F00070470020704730B50A7BB2BB4A7848F668
:103400008F7548F28004C2B10B7830F82320520641
:1034100007D530F823202A4048F2C0052A4320F877
:103420002320CA78012A20D00A7830F8221048F6E2
:10343000BF73194081F0200114E00A7830F822307F
:103440005B0407D530F822302B404CF280052B432B
:1034500020F822300A7830F822104BF68F7319408A
:1034600081F44051214320F82210002030BD10B5D6
:103470004A780978002A48F2800330F8212005D0E4
:1034800048F6BF74224082F0100204E04BF68F74BD
:10349000224082F480521A4320F82120002010BDDF
:1034A0002DE9F04F0D464A78097B04464FF000099C
:1034B00048F68F7A48F2800B4FF6FF774FF40048BA
:1034C000012A09D000297DD0E87802287BD0012884
:1034D0007AD00120BDE8F08FAE692869864200D914
:1034E000064681B1E97802291CD0287834F82010EA
:1034F0004906B4F85010214401EB001070D5A0F833
:103500000C646A8928E1B3B2EA882046696900F050
:1035100065FAB4F850002978204400EB0110A0F8B7
:10352000046435E1296A814276D9297834F821008A
:1035300048F2801200EA0A00104324F82100286AA9
:10354000801B2862287834F820104906697876D5DF
:1035500011B1012921D027E0B4F85010214401EB2A
:10356000001000F20C404EB13E2E0FD87108F20749
:1035700000D0491C07EA8121018015E0018821F46F
:10358000F8410180018841F40041F5E77109F20634
:1035900000D1491E48EA8121EEE7B4F85020111904
:1035A00001EB0010A0F80C646A89B3B22046696987
:1035B00000F014FA6869304468612969286A884211
:1035C00006D902E0EDE00DE178E1801B286202E01F
:1035D0000646C5F82090687818B1012824D02BE061
:1035E000B7E0B4F850002978204400EB011000F255
:1035F00004404EB13E2E10D87108F20700D0491C8D
:1036000007EA8121018017E0018821F4F841018057
:10361000018841F40041F5E786E07109F20600D126
:10362000491E48EA8121EDE7B4F85000297820448A
:1036300000EB0110A0F804642A896FE0FFE711B1E4
:10364000012921D027E0B4F85010214401EB0010EB
:1036500000F204404EB13E2E0FD87108F20700D0A0
:10366000491C07EA8121018015E0018821F4F84115
:103670000180018841F40041F5E77109F20600D1AB
:10368000491E48EA8121EEE7B4F85010214401EBCD
:103690000010A0F804642A89B3B22046696900F0DA
:1036A0009DF96869304468612969286A884202D9AD
:1036B000801B286202E00646C5F82090687810B1A9
:1036C000012822D029E0B4F850002978204400EBEA
:1036D000011000F20C404EB13E2E0FD87108F207D7
:1036E00000D0491C07EA8121018016E0018821F4FD
:1036F000F8410180018841F40041F5E77109F206C3
:1037000000D1491E48EA8121EEE7B4F850100819AB
:10371000297800EB0110A0F80C646A89B3B2204646
:10372000696900F05BF933E02A7834F8220048F642
:103730008F63184040EA0B0024F82200B4F85000D0
:103740002A78204400EB02108BB2A0F804342A89B6
:10375000E5E7A0F804642A89B3B22046696900F05D
:103760003DF9687810B1012808D011E0297834F8C3
:10377000210048F2C00200EA0A0006E0297834F885
:1037800021004CF2800200EA0A00104324F82100D4
:10379000297834F8210048F6BF72104080F03000DC
:1037A000DFE0A9692869814202D9091AA961B6E056
:1037B0000846C5F81890B2E0088820F4F840088060
:1037C000088840F400400BE03E2876D84208C00745
:1037D00000D0521C07EA822002E000BF48EA8220A3
:1037E0000880B6E092B9B4F850002978204400EB84
:1037F0000110296900F2044069B13E2913D84A0832
:10380000C90700D0521C07EA82210180687888B17C
:10381000012832D03AE0018821F4F8410180018882
:1038200041F40041F1E74A09C90600D1521E48EAB5
:103830008221EAE7B4F850002978204400EB011017
:10384000296900F20C4049B13E290FD84A08C9073E
:1038500000D0521C07EA8221018017E0018821F480
:10386000F8410180018841F40041F5E74A09C906A1
:1038700000D1521E48EA8221EEE7B4F85010081930
:10388000297800EB0110298AA0F80C14E869B0B37C
:10389000297834F82100420401D5420603D444F2C9
:1038A0004002104255D134F8210048F2C00200EA2B
:1038B0000A00104324F821004BE03CE0A969286984
:1038C000814202D9091AA96102E00846C5F8189098
:1038D0008AB9B4F850102A78214401EB021101F2A0
:1038E000044168B13E2813D84208C30700D0521CD7
:1038F00007EA82220A80697889B1012921D028E06B
:103900000A8822F4F8420A800A8842F40042F1E769
:103910004209C30600D1521E48EA8222EAE7B4F8FF
:1039200050102A78214401EB021101F20C410028C9
:103930007FF44AAF40E74209C0067FF44FAF521E02
:103940004CE7B4F8502011192A7801EB0211A1F8C4
:103950000C04297834F821004BF68F72104080F463
:10396000405040EA0B0024F821000020B2E500217D
:10397000A0F844104FF43F41A0F8401000207047D9
:103980000148FDF757BA0000141200200148FDF766
:1039900051BA000014120020B0F844007047000033
:1039A00010B500EB42005C0800F5806009D000BF54
:1039B00030F8042B01F8012B120A01F8012B641EC8
:1039C000F6D1DA0701D00088087010BD00207047DA
:1039D00011B98021A0F84C100020704710B55B1C75
:1039E00000EB42005B0800F5806009D011F8012B64
:1039F00011F8014B42EA042220F8042B5B1EF5D19A
:103A000010BDFEE70907090E002804DB00F1E020E5
:103A100080F80014704700F00F0000F1E02080F8FB
:103A2000141D704702E008C8121F08C1002AFAD10D
:103A300070477047002001E001C1121F002AFBD12E
:103A40007047000008B5FCF79DFEFEF7ADFB20486F
:103A5000816941F020018161816901F020010091BB
:103A6000816941F004018161806900F004000090E7
:103A7000FEF772F9FEF790F9FEF7ACF91648154912
:103A80000C2201604FF4E131416000218160C1608E
:103A9000C0E904128161C161FEF7D7F800F042F875
:103AA0000E4A00210E4800F079F80E4C0B4A002116
:103AB000206024320C4800F071F8084A60604832F7
:103AC00000210A4800F06AF8A06000F047F8FEE71D
:103AD0000010024000380140D80200204052000887
:103AE000413C000800000020954400088D44000877
:103AF00010B5EFF3058149B9EFF3108131B90849E9
:103B00000968022905D1EFF3118111B16FF00504A5
:103B100003E0002408B100F0EFFD204610BD0000D6
:103B2000CC000020EFF3058058B9EFF3108040B9C6
:103B300009490868022801D030B109E0EFF311808B
:103B400030B16FF005007047012008600020704719
:103B50004FF0FF3070470000CC00002010B5EFF3AD
:103B6000058060B9EFF3108048B90B490868022856
:103B700002D0012806D00BE0EFF3118040B16FF0C6
:103B8000050010BD0220086000F01EFE002010BDE0
:103B90004FF0FF3010BD0000CC000020F0B585B024
:103BA0004FEA01034FF00004EFF305810394A1BB3A
:103BB000EFF3108189BB21490968022902D1EFF393
:103BC000118151BB48B3402618218DF8104004AD37
:103BD00042B3176807B13D4697691FB139467F1E4A
:103BE000382F02D21779FF0702D0002005B0F0BDB0
:103BF000576907B1BE08D2F808C0BCF1000F0DD05C
:103C0000D4685C2C18D312693AB137B18DE806102C
:103C10003246294601F033F903900DE0D7685FB9C9
:103C200012694AB903AACDE90012B2B2294601F0DD
:103C3000F9F8012800D003940398D7E7CC000020BE
:103C4000FEF7F2F80120FFF753FFFBE72DE9F04103
:103C5000134C0F46054666692068001D00F01EFCE7
:103C6000681C07D137B12168BDE8F0410D48091D36
:103C700000F062BC20683544B5424560216805D239
:103C8000A068BDE8F041091D00F03EBC6068091D58
:103C900000F03AFC206B854200D22563BDE8F0813C
:103CA0007C000020F01900202DE9F041054600F0CD
:103CB0004FFC2D4C2069401C206120682B4F10B117
:103CC000E06930B32BE025602069012827D1002668
:103CD00006EB860007EB800000F008FC761C382E0F
:103CE000F6D3234800F002FC2148143000F0FEFB1C
:103CF0001F48283000F0FAFB1D483C3000F0F6FB6E
:103D00001B48503000F0F2FB194860601430A0608E
:103D100005E02068E96AC06A884200D82560E06A48
:103D2000401CE0626864E86AA169884200D9A06129
:103D300000EB800007EB8000291D00F0FDFB00F088
:103D400027FCE06900280CD02068E96AC06A884234
:103D500007D208494FF080500860BFF34F8FBFF380
:103D60006F8FBDE8F08100007C000020401500202E
:103D7000A019002004ED00E038B500F0E9FB104C7C
:103D8000A068C8B90F4800F0B1FB0E48143000F02D
:103D9000ADFB0C482060143060600A4B00202833D3
:103DA000009003F1500210210A2000F0DFFDA06016
:103DB00010B105A100F06AFCBDE8384000F0E8BB96
:103DC000B8000020041A0020546D72510000000059
:103DD00030B4026C0B46002A0BD0C1681144C1609C
:103DE0004468A14201D30168C16030BC1846FCF7A9
:103DF000E5B930BC70472DE9F041856B17460446A4
:103E00000026026C82B1C7B1E068FCF7D7F9E1681F
:103E1000206C091AE1602268914202D26168081A96
:103E2000E060022F16D017E02068A8B9606801F0A2
:103E3000C9F80646002060600EE0A068FCF7BEF9F5
:103E4000216CA0680844A0606168884204D320689F
:103E5000A06001E005B16D1E6D1CA5633046BDE894
:103E6000F08110B5044690F8590058B101280CD0E3
:103E700002280FD0502080F31188BFF34F8FBFF37B
:103E80006F8FFEE7206B00F097FB2046BDE81040E7
:103E900000F092BB10BD000010484FF44061420793
:103EA00006D0C01D0D4920F00700411AC1F5406140
:103EB0000B4A00230144C2E900030839103A21F0FB
:103EC000070111604B600B600B1AC0E9001393608F
:103ED0004FF000405360D06070470000D41E0020B7
:103EE000E0000020144E154CA6F29C474FF080587D
:103EF000DFF84C9012E000BF00F02AFBF068C568C4
:103F0000281D00F0CBFA2069401E2061E068401EA9
:103F1000E06000F03DFB2846FFF7A3FFE0680028C3
:103F2000EAD138680128F9D9C9F80080BFF34F8F6A
:103F3000BFF36F8FF2E70000DC1900207C00002047
:103F400004ED00E070B51D46049C51B1C4F800209A
:103F5000C4E90F010121204600F03CFD84F84C50DB
:103F600070BD2460F4E72DE9F0470E46DDE90984D1
:103F70001746824691009946089DA522206BFCF7C2
:103F80002FF96FF00301206B01EB8701084420F04B
:103F90000707780707D0502080F31188BFF34F8FB1
:103FA000BFF36F8FFEE72218315C82F83410315C6A
:103FB00011B1401C1028F6D3002684F84360382D38
:103FC00000D33725E562C4E91356201D00F099FAA5
:103FD00004F1180000F095FA2461C5F1380064621C
:103FE000A061666584F858604A465146384600F03C
:103FF0003BFA2060B8F1000F01D0C8F80040BDE8DE
:10400000F087000030B5114900E011460A6882428D
:10401000FBD34B685C18844203D140681844486065
:10402000084643681C18944209D1084C103C246887
:10403000A24209D052681A4442600A6812680260BB
:10404000814200D0086030BD0460F9E7E000002044
:1040500070B5002441600B4D0061914206D8D11A21
:104060008269914206D2011D686807E09A4203D234
:10407000994201D3012403E0011D286800F044FAAD
:10408000204670BDB800002010B5044600F060FA6C
:10409000A06B28B15FF0000400F07AFA204610BD52
:1040A0000124F9E730B589B0304D55E00498002877
:1040B00006DADDE90601059A9047049800284BDBF3
:1040C000069C606910B1201D00F0E8F902A800F01C
:1040D000B9F8024604980A283ED2DFE800F0050548
:1040E000053D263705053D260598A169034601448F
:1040F0002046FFF7ADFF00B3616A20468847E069BC
:10410000012829D1002000900598A16900234218B8
:104110001946204601F060F878B9502080F31188E4
:10412000BFF34F8FBFF36F8FFEE70598A06128B1F3
:10413000811813462046FFF78BFF0DE0502080F3D7
:104140001188BFF34F8FBFF36F8FFEE794F82C00F9
:1041500010B9204600F030FA002204A9A86800F047
:104160008BFD0028A2D109B030BD0000B8000020AE
:104170002DE9FC410F46054600F06AFB01A800F05E
:1041800061F80446019818B100F094FFBDE8FC8185
:10419000224EAFB170680068A8B30027291B3A46C9
:1041A000B06800F087FA00F085FF0028EED11C49C6
:1041B0004FF080500860BFF34F8FBFF36F8FE5E77C
:1041C000A542EBD800F076FF30682746C068C46887
:1041D000201D00F063F9E069012810D1A0692B4689
:1041E00041193A462046FFF733FF40B1002003460D
:1041F000014600902A46204600F0EEFF20B1616A99
:1042000020468847C2E707E0502080F31188BFF3BB
:104210004F8FBFF36F8FFEE70127BFE7B800002085
:1042200004ED00E006484168096829B14168C968A1
:10423000C9684968016370474FF0FF31FAE7000031
:104240007C00002070B5054600F052FE064E044684
:104250003069844203D200F009F8012000E0002018
:1042600028602046346170BDB8000020F8B5194DB3
:104270001FE0C068C4680668201D00F00FF9616A7D
:1042800020468847E069012813D1A0693044B04234
:1042900006D924616060211D286800F035F908E026
:1042A00000200346014600903246204600F094FF6D
:1042B00038B1286801680029DBD16968C5E90010B8
:1042C000F8BD502080F31188BFF34F8FBFF36F8F7D
:1042D000FEE70000B800002008484068401C4FF08E
:1042E000500080F3118804D0BFF34F8FBFF36F8F5E
:1042F000FEE7BFF34F8FBFF36F8FFEE7E8000020AC
:10430000074C2068016841B1C0680021D0F8000066
:10431000FFF72EFFFFF7C6FEF3E701210020F7E7C6
:10432000B80000202DE9F041044600F011F994F99D
:10433000455004F1240609E0606A48B1304600F0B7
:1043400081FE08B100F006FA6D1E6DB2002DF3DC9F
:104350004FF0FF3684F8456000F01AF900F0F8F8E5
:1043600094F9445004F1100709E0206948B1384637
:1043700000F068FE08B100F0EDF96D1E6DB2002D81
:10438000F3DC84F84460BDE8F04100F001B90000BE
:104390002DE9F0410546002700F05AFA314E306809
:1043A00008B9FFF779FDF06805424BD1C5B3083570
:1043B00068070ED005F00700C0F108000544680743
:1043C00007D0502080F31188BFF34F8FBFF36F8F5A
:1043D000FEE72DB37068854234D82248103001467C
:1043E0000C6801E020460C466168A94202D22168AF
:1043F0000029F7D131688C4224D007682168016018
:1044000060680837411B10290FD96019420708D08E
:10441000502080F31188BFF34F8FBFF36F8FFEE7FB
:1044200010E041606560FFF7EDFD61687068401A5B
:104430007060B268904200D2B060F0680143002022
:10444000C4E9000100F036FE780707D0502080F361
:104450001188BFF34F8FBFF36F8FFEE73846BDE87B
:10446000F0810000D000002010B5031F4FF08074D1
:104470001C601B1F21F001011960191F024B0B600A
:10448000143940380A6010BDD94200080120FFF7F6
:104490002FFBFBE70120FFF72BFBFBE7D0E9013205
:1044A00001699A60D0E901235A604A68824201D1C9
:1044B00082684A60002202610868401E086008683D
:1044C00070470000034B036003F15C00086040206C
:1044D000106070471C1B0020034B036003F15C005D
:1044E0000860802010607047781C002000F10801EF
:1044F0004FF0FF32C0E90112C1600161002101608B
:10450000704700210161704730B50B685A1C02D01A
:1045100000F1080202E0026904E0224654682568BE
:104520009D42FAD953684B6099608A605160086176
:104530000168491C016030BD42684A6093688B6025
:1045400093685960916008610168491C0160704777
:10455000502080F31188BFF34F8FBFF36F8F0A494C
:104560004868401C486001280CD10848006810F0D9
:10457000FF0F07D0502080F31188BFF34F8FBFF398
:104580006F8FFEE770470000E800002004ED00E0B8
:104590000849486828B1401E486001D180F311885D
:1045A0007047502080F31188BFF34F8FBFF36F8F98
:1045B000FEE70000E800002070B5002827D0144D69
:1045C000A0F108046168E868014207D1502080F337
:1045D0001188BFF34F8FBFF36F8FFEE722683AB1A8
:1045E000502080F31188BFF34F8FBFF36F8FFEE72A
:1045F0008143616000F02CF9606869680844686074
:104600002046FFF7FFFCBDE8704000F053BD70BDD1
:10461000D00000204FF0E0200021016181610549B8
:104620004FF47A720968B1FBF2F1491E416107212A
:10463000016170477800002010B5FBF7A9FD114912
:1046400010280ED300F1E02090F8F0030A78904291
:1046500007D2502080F31188BFF34F8FBFF36F8FC5
:10466000FEE709480068896800F4E060884207D9DD
:10467000502080F31188BFF34F8FBFF36F8FFEE799
:1046800010BD0000E80000200CED00E010B5084B64
:10469000002200BF53F832401CB1521C082AF9D343
:1046A00010BD43F8321003EBC201486010BD00009A
:1046B0000015002070B515460E460446FFF748FF6A
:1046C00094F944100020491C01D184F8440094F965
:1046D0004510491C01D184F84500FFF759FFA06B34
:1046E00028B92A46314604F1240000F051F820464A
:1046F000BDE87040FFF716BE10B5020014D00F4899
:10470000806B38B1502080F31188BFF34F8FBFF317
:104710006F8FFEE700F09CF800211046FFF796FA35
:1047200000F0C8FC002807D105494FF08050086010
:10473000BFF34F8FBFF36F8F10BD00007C000020D0
:1047400004ED00E002498A6A0260496941607047ED
:104750007C00002001490120486270477C00002055
:1047600010B50C4650B1094909681831FFF7CCFE65
:104770002046BDE810400121FFF768BA502080F3C1
:104780001188BFF34F8FBFF36F8FFEE77C000020CF
:1047900070B514460D4668B10A4909681831FFF72B
:1047A000CBFE0CB14FF0FF3521462846BDE87040E6
:1047B000FFF74CBA502080F31188BFF34F8FBFF33F
:1047C0006F8FFEE77C00002030B587B00024039493
:1047D00005AA04A903A80494FFF774FEDDE9030108
:1047E0000094CDE90110002315A11748059A00F0A7
:1047F00046FB164D002868631FD000F0BDFC012861
:1048000009D0401C19D1502080F31188BFF34F8F7D
:10481000BFF36F8FFEE7502080F31188BFF34F8FF7
:10482000BFF36F8F4FF0FF3028630120E8616C61A8
:1048300007B0BDE8304000F045B807B030BD00001B
:1048400049444C4500000000E53E00087C00002083
:104850000248816B491C8163704700007C00002086
:10486000164810B5816B11B10121416210BD0021C4
:1048700041628169124A01E0B9B1491E01EB81032D
:1048800052F82330002BF7D001EB810302EB8302B7
:1048900002F1080453685B685360A34201D15B686E
:1048A0005360DA680260816110BD502080F3118886
:1048B000BFF34F8FBFF36F8FFEE700007C00002037
:1048C000401500201CB5264908780190FF2008708B
:1048D00008788DF800009DF800009DF8002000F099
:1048E000F000904207D0502080F31188BFF34F8F23
:1048F000BFF36F8FFEE79DF800001A4B00F05000E9
:1049000018700720986005E09DF8002052008DF88F
:104910000020401E9DF800201206F5D49860032860
:1049200007D0502080F31188BFF34F8FBFF36F8FF4
:10493000FEE74FF440709860019808700A480168DB
:1049400041F470010160016841F070410160FFF7BE
:1049500061FE00205860FBF7E5FB00201CBD000055
:1049600000E400E0E800002020ED00E038B5049D00
:1049700018B153B1CAB181B120E0502080F3118841
:10498000BFF34F8FBFF36F8FFEE7502080F3118886
:10499000BFF34F8FBFF36F8FFEE7502080F3118876
:1049A000BFF34F8FBFF36F8FFEE739B1502080F315
:1049B0001188BFF34F8FBFF36F8FFEE750241C4663
:1049C000012384F846302B460094FFF7BBFA2046BB
:1049D00038BD000070B50D46040025D0FFF7B8FDC6
:1049E000D4E90F20216802FB001161600021A1635E
:1049F0002168A1600A46D4E90F01401E00FB012195
:104A0000E16021464FF0FF3001F8440F487004F197
:104A100010008DB1FFF76AFD04F12400FFF766FD79
:104A2000FFF7B6FD012070BD502080F31188BFF361
:104A30004F8FBFF36F8FFEE721690029F0D000F0A0
:104A400001FB0028ECD004494FF080500860BFF310
:104A50004F8FBFF36F8FE3E704ED00E02DE9FF47D1
:104A600082B01D468A464FF00008040003D0BAF118
:104A7000000F08D011E0502080F31188BFF34F8F52
:104A8000BFF36F8FFEE7206C38B1502080F31188A0
:104A9000BFF34F8FBFF36F8FFEE7022D0AD1E06B9C
:104AA000012807D0502080F31188BFF34F8FBFF348
:104AB0006F8FFEE700F00EFA3F4F4FF000094FF006
:104AC000805648B9049838B1502080F31188BFF35C
:104AD0004F8FBFF36F8FFEE7FFF73AFDA06BE16BDF
:104AE000884207D3022D05D00498D0B1B8F1000F49
:104AF0001AD01EE02A4651462046FFF77CF9616A2B
:104B000019B104F1240000F09DFA20B13E60BFF31A
:104B10004F8FBFF36F8FFFF73BFD012006B0BDE85D
:104B2000F087FFF735FD22E06846FFF70BFE4FF0F8
:104B30000108FFF72DFDFFF78BFEFFF709FD94F944
:104B40004400401C01D184F8449094F94500401C75
:104B500001D184F84590FFF71BFD04A9684600F0D9
:104B600027F930B12046FFF7DDFB00F0A3FA002063
:104B7000D4E7FFF7EDFCA06BE16B884213D1FFF7A0
:104B800007FD04F110000499FFF7EAFD2046FFF746
:104B9000C9FB00F08FFA00289ED13E60BFF34F8F13
:104BA000BFF36F8F98E7FFF7F3FC2046FFF7BAFBE0
:104BB00000F080FA90E7000004ED00E02DE9F047F6
:104BC0001F4690468946040003D0B9F1000F08D073
:104BD00011E0502080F31188BFF34F8FBFF36F8F28
:104BE000FEE7206C38B1502080F31188BFF34F8F5F
:104BF000BFF36F8FFEE7022F0AD1E06B012807D0C9
:104C0000502080F31188BFF34F8FBFF36F8FFEE703
:104C1000FFF712FD5020EFF3118680F31188BFF3E8
:104C20004F8FBFF36F8FA06BE16B884206D3022FCB
:104C300004D0002086F31188BDE8F08794F9455030
:104C40003A4649462046FFF7D6F8681C04D06D1C4A
:104C500084F845500120EDE7606A0028FAD004F19D
:104C6000240000F0EFF90028F4D0B8F1000FF1D0E3
:104C70000121C8F80010EDE72DE9F747002683B0C1
:104C80008A46040003D0BAF1000F08D011E050208A
:104C900080F31188BFF34F8FBFF36F8FFEE7206C57
:104CA00038B1502080F31188BFF34F8FBFF36F8F5F
:104CB000FEE700F00FF9DFF8F4804FF000094FF045
:104CC000805748B9059838B1502080F31188BFF358
:104CD0004F8FBFF36F8FFEE7FFF73AFCA56BC5B1AF
:104CE00051462046FFF774F86D1EA563206950B148
:104CF00004F1100000F0A6F928B1C8F80070BFF365
:104D00004F8FBFF36F8FFFF743FC012006B0BDE864
:104D1000F087059808B11EB106E0FFF739FC27E0DF
:104D20006846FFF70FFD0126FFF732FCFFF790FD05
:104D3000FFF70EFC94F94400401C01D184F8449024
:104D400094F94500401C01D184F84590FFF720FC00
:104D500005A9684600F02CF8002820460AD0FFF785
:104D6000E1FA00F0A7F92046FFF78EF90028B3D04A
:104D70000020CBE7FFF788F990B104F124000599F2
:104D8000FFF7EEFC2046FFF7CDFA00F093F900287C
:104D9000A2D1C8F80070BFF34F8FBFF36F8F9BE7AE
:104DA0002046FFF7BFFA00F085F995E704ED00E033
:104DB0002DE9F0410C46050011D0C4B1FFF7C8FB46
:104DC000174B5A696E682068911B471C17D02F68D3
:104DD0009B6A9F4219D0964217D8012410E05020B8
:104DE00080F31188BFF34F8FBFF36F8FFEE7502022
:104DF00080F31188BFF34F8FBFF36F8FFEE700245E
:104E0000FFF7C6FB2046BDE8F081884205D9401A6D
:104E100020602846FFF796FCF1E700202060DCE7E1
:104E20007C0000202DE9FF5F8346DDE90E8799466F
:104E300016468A469000FFF7ABFA05001CD05C20AE
:104E4000FFF7A6FA040014D00020256384F8590067
:104E5000CDE90240CDE900874B46324651465846DF
:104E6000FFF781F82046FEF71FFF012004B0BDE8E0
:104E7000F09F2846FFF7A0FB4FF0FF30F6E7F0B5B4
:104E800085B0DDE90B640A9DA6B1DCB15C27009713
:104E90002663022684F85960002604AFCDE9024655
:104EA000CDE90057FFF75FF82046FEF7FDFE0498B6
:104EB00005B0F0BD502080F31188BFF34F8FBFF3D2
:104EC0006F8FFEE7502080F31188BFF34F8FBFF341
:104ED0006F8FFEE70548C16919B1806B18B10020DA
:104EE0007047012070470220704700007C000020BE
:104EF00001484069704700007C0000202DE9F04126
:104F00002E4C0027A06B40B1206A401C2062606AD2
:104F100000B101273846BDE8F0816669761C6661FC
:104F200013D16068006838B1502080F31188BFF356
:104F30004F8FBFF36F8FFEE76068A1686160A0606C
:104F4000A06A401CA062FFF76DF9206BDFF870804B
:104F5000864209D36068006880B16068C068C5682F
:104F6000686886420DD220632068C06A00EB800129
:104F700058F821000128CAD90127C8E74FF0FF30AF
:104F8000F1E7281DFFF78AFAA86A18B105F11800A1
:104F9000FFF784FAE86AA169884200D9A06100EBB2
:104FA000800108EB8100291DFFF7C6FAE86A216835
:104FB000C96A8842CED30127CCE700007C000020DC
:104FC0004015002070B504004FF0000133D01B4D98
:104FD0002868844207D0502080F31188BFF34F8F98
:104FE000BFF36F8FFEE7206D38B1401E2065E36C84
:104FF000E26A9A421FD040B11DE0502080F3118830
:10500000BFF34F8FBFF36F8FFEE7201DFFF746FA08
:10501000E06CE062C0F13800A061E06AA9698842F2
:1050200000D9A861064900EB800001EB8000211D3A
:10503000FFF782FA0121084670BD00007C000020C5
:105040004015002070B5C068C46854B104F1180060
:105050000646FFF723FA144DA86B50B131461348AA
:1050600015E0502080F31188BFF34F8FBFF36F8F8F
:10507000FEE7201DFFF712FAE06AA969884200D90D
:10508000A8610B4900EB800001EB8000211DFFF7B8
:1050900053FAE06A2968C96A884202D90120686225
:1050A00070BD002070BD00007C000020C8190020E9
:1050B000401500202DE9F0472C4D00242746A86B11
:1050C00038B1FFF745FAA86B401EA863A86B40B142
:1050D00046E0502080F31188BFF34F8FBFF36F8FEE
:1050E000FEE72969224E0120D1B3A6F591698046D9
:1050F0003068E0B1F068C46804F11800FFF7CEF939
:10510000201DFFF7CBF9E06AA969884200D9A861A0
:1051100000EB800109EB8100211DFFF70DFAE06A29
:105120002968C96A8842E3D3C5F82480E0E70CB156
:10513000FFF778F82C6A4CB14FEA0806FFF7DEFE5D
:1051400000B16E62641EF9D100202862686A38B12D
:105150000849012738070860BFF34F8FBFF36F8FEF
:10516000FFF716FA3846BDE8F08700007C00002003
:10517000C819002004ED00E010B586B0FEF7FCFD74
:10518000114CA068B8B100200390049005AA04A9AE
:1051900003A8FFF7A1F9DDE9032102208DE807004C
:1051A00000230AA10B48059AFFF769FEE06010B1E1
:1051B00006B0012010BD502080F31188BFF34F8F3F
:1051C000BFF36F8FFEE70000B8000020546D72201F
:1051D00053766300014300082DE9FF411E46134644
:1051E00002000A9D4FF0000016D0144CA768002F53
:1051F0000FD0CDE900130292062917DAFFF76AFEF5
:1052000002284FF000030FD000226946A068FFF784
:1052100025FC04B0BDE8F081502080F31188BFF375
:105220004F8FBFF36F8FFEE72A46EEE7002332462B
:1052300069463846FFF7C2FCEBE70000B8000020E3
:10524000C452000800000000000000000000000040
:10525000000000000001000020000000000000002D
:1052600000000000E4520008000000000000000000
:105270000000000000000000000100000800000025
:105280000000000000000000D452000800000000F0
:10529000000000000000000000000000000100000D
:1052A00008000000000000000000000000000000F6
:1052B00000000000010203040607080900000000C6
:1052C000010203047065726970686572616C5461F3
:1052D000736B00007573626C696E6B527854617306
:1052E0006B0000007573626C696E6B547854617367
:1052F0006B000000145300080000002008020000AA
:1053000028020008DC53000808020020D02C00000E
:10531000343A0008C11315271B0845041A51041A12
:1053200079041AA90413F5261B0821081704030998
:10533000041201140202021640830440572602019F
:10534000020301031A1A0313D9021B08D3041ACF4C
:10535000041AFD04192F118210037124F41AAA01F2
:1053600081130A0632022A40941C090243CF1125F8
:10537000C03209041B01020B130524161001052479
:105380000110090104240202052406170107058201
:105390000308151009040133020A1D070501024321
:1053A0002C070581070938442A40072A8107112B59
:1053B0000907440A3B044413B9241B08210413A120
:1053C0002542081A650C13AD231B08F304C11AA16A
:0C53D000182A951C19041A89040000001A
:04000005080000ED02
:00000001FF
