:020000040800F2
:10000000483000209D0100083934000825300008E0
:1000100035340008F1070008FD6200080000000008
:1000200000000000000000000000000005010008C2
:100030008D0900080000000049010008453900084A
:10004000B7010008B7010008B7010008B7010008B0
:10005000B7010008B7010008B7010008B7010008A0
:10006000B7010008B7010008B7010008B701000890
:10007000B7010008B7010008B7010008B701000880
:10008000B7010008B7010008B7010008D5610008F2
:10009000E5610008B7010008B7010008B7010008D2
:1000A000B7010008053A0008B7010008B7010008C9
:1000B000B7010008153A0008253A0008B701000802
:1000C000B7010008B7010008B7010008B701000830
:1000D000B7010008B7010008B7010008B701000820
:1000E000B7010008B7010008B7010008DFF810D019
:1000F00000F09AFA00480047216E0008AFF3008034
:1001000048300020224B19680868B0E8F00F80F3EF
:100110000988BFF36F8F4FF0000080F311884EF015
:100120000D0E70470000000006480068006880F36C
:10013000088862B661B6BFF34F8FBFF36F8F00DFE1
:1001400000BF00BF08ED00E0EFF30980BFF36F8F41
:100150000F4B1A6820E9F00F106008B54FF05000FF
:1001600080F31188BFF34F8FBFF36F8F08F0F0FA61
:100170004FF0000080F31188BDE808401968086856
:10018000B0E8F00F80F30988BFF36F8F704700BFAE
:10019000A8060020EFF3058070470000064880475E
:1001A00006480047FEE7FEE7FEE7FEE7FEE7FEE75C
:1001B000FEE7FEE7FEE7FEE7033A0008ED00000871
:1001C000202A04DB203A21FA02F00021704721FAAC
:1001D00002F3D040C2F12002914008431946704713
:1001E00040EA01039B0703D009E008C9121F08C0B9
:1001F000042AFAD203E011F8013B00F8013B521E39
:10020000F9D27047D2B201E000F8012B491EFBD2AF
:1002100070470022F6E710B513460A460446194611
:10022000FFF7F0FF204610BD30B50B460146002019
:100230002022012409E021FA02F59D4205D303FAA8
:1002400002F5491B04FA02F52844151EA2F1010229
:10025000F1DC30BD2DE9F05F0546002092469B465B
:1002600088460646814640241BE0284641464746CC
:100270002246FFF7A5FF53465A46C01A914110D3B4
:1002800011461846224600F0E1F92D1A67EB0108E5
:100290004F4622460120002100F0D8F917EB000953
:1002A0004E41201EA4F10104DFDC484631462A46B7
:1002B0004346BDE8F09F2DE9FE4F804681EA0300EA
:1002C000C00F0C46009021F0004123F00045B8EB30
:1002D0000200A94105D24046214690461C460B46E5
:1002E000024623F00040104347D0270DC7F30A0011
:1002F000C3F30A510290401A019040286BDAC3F30D
:10030000130040F4801B0098924620B10023D2EBEA
:10031000030A63EB0B0B01985946C0F140025046AB
:1003200000F094F906460D4650465946019A00F0F1
:100330009CF910EB08006141002487EA115284EA1D
:10034000E7731A4340D0009A62B3019A012A4FEA38
:10035000075215DC001B61EB02014FF0004202EA7C
:100360000752CDE90042001C41F5801132462B4670
:1003700000F09CF903B0BDE8F08F40462146F9E754
:10038000001B61EB0201001C41F5801300185B416A
:100390002018A2F5001747EB030140EAD570B61903
:1003A0006D4111E06D084FEA360645EAC0754FEA27
:1003B0000752001B61EB0201001C41F58011490846
:1003C0004FEA30000019514132462B4603B0BDE8D8
:1003D000F04F00F05CB90098012240000023D0EB00
:1003E000020263EBE073009821464FEAE074B8EB39
:1003F000000061EB0401E9E783F000435BE781F073
:10040000004158E72DE9FE4F81EA030404F000445F
:1004100021F0004100944FF0000B23F0004350EA1C
:1004200001045ED052EA03045BD0C3F30A54C1F363
:100430000A552C44A4F2F3340194A0FB0254C1F3F6
:10044000130141F48011C3F3130343F4801301FB40
:10045000024400FB034E840A970A44EA815447EAA7
:100460008357A4FB076802958D0A05FB07854FEAB1
:10047000932C04FB0C542705029D4FEA065847EACB
:100480001637B5EB08056EEB070C870E920E47EAA0
:10049000811742EA8312A7FB0201B6EB0B0164EB62
:1004A00000042B0D43EA0C335E1844EB1C50DA4673
:1004B0005146E7FB0201C5F313044FEA0B3343EA4D
:1004C00014534FEA0432019C43EA0603A4F10C04DE
:1004D0000294009CCDE900B400F0E8F803B0BDE858
:1004E000F08F00200146F9E72DE9F04D81EA030481
:1004F00004F0004B21F0004514464FF0000A23F0B1
:10050000004150EA050220D054EA01021DD0C5F393
:100510000A570246C5F31303C1F31300C1F30A5689
:1005200040F4801543F48013A7EB0608101BD64651
:1005300008F2FD3873EB050002D308F1010801E071
:1005400092185B41B8F1000F03DA00200146BDE8C4
:10055000F08D00204FF48011064684460EE0171BF4
:1005600073EB050705D3121B63EB050306434CEA47
:10057000010C49084FEA300092185B4150EA01072C
:10058000EDD152EA030012D082EA040083EA0501A9
:10059000084305D0101BAB4106D20122002306E020
:1005A00000224FF0004302E06FF0010253101AEBFB
:1005B00006004CEB085110EB0A0041EB0B01BDE8C3
:1005C000F04D00F064B8C1F30A52C1F3130140F2D8
:1005D000FF3341F480119A4202DA0020014670474D
:1005E00040F233439A42A2F2334202DC5242FFF716
:1005F000E7BD00F02BB8000030B5041E71F1000417
:1006000004DB4FF00044404264EB0101141E73F11F
:10061000000405DB1C464FF00043524263EB040329
:10062000994208BF904230BD064C074D06E0E06895
:1006300040F0010394E8070098471034AC42F6D329
:10064000FFF758FD84970008A4970008202A04DBD0
:10065000203A00FA02F1002070479140C2F12003D5
:1006600020FA03F3194390407047202A06DBCB178A
:10067000203A41FA02F043EAE07306E041FA02F35D
:10068000D040C2F12002914008431946704710B58E
:10069000141E73F1000408DA401C41F100019218A5
:1006A0005B411A4301D120F0010010BD2DE9F04D4E
:1006B00092469B4611B1B1FA81F202E0B0FA80F2A3
:1006C00020329046FFF7C2FF04460F4640EA0A0078
:1006D00041EA0B0153465A46084313D0114653EAE8
:1006E000010019D0C8F140025046FFF769FD0546E8
:1006F0000E46504659464246FFF7A8FF084305D02C
:10070000012004E020463946BDE8F08D0020054375
:1007100046EAE0762C4337430A986305E40AA0EBE7
:1007200008000022FD0A44EA47540A3002D500209E
:100730000146E9E7010510196941DDE9084500199D
:100740006941BDE8F04DA2E770B58C1810F8015B67
:1007500015F0070301D110F8013B2A1106D110F85A
:10076000012B03E010F8016B01F8016B5B1EF9D15E
:100770002B0705D40023521E0DD401F8013BFAE7E4
:1007800010F8013BCB1A921C03E013F8015B01F84F
:10079000015B521EF9D5A142D8D3002070BD70B5BF
:1007A000044600252068806800F00100F0B1206850
:1007B000806820F001002168886000F049FC05464F
:1007C0000EE000F045FC401B022809D9A06A40F069
:1007D0001000A062E06A40F00100E062012070BDFC
:1007E0002068806800F001000028EAD10020F6E7C8
:1007F00000BFFEE70346042B15D007DC7BB1012BBD
:100800000ED0022B0DD0032B12D10BE0202B0BD0DE
:10081000212B0AD0222B09D0232B09D107E008E095
:1008200007E006E005E004E003E002E001E000E0AC
:1008300000BF00BF002070470020704710B50022A5
:100840000B490C4803F029FB0B490A4803F01EFB37
:1008500007480A4908600020887107488860F52029
:10086000074908705F2081F8CB00002010BD000010
:10087000C40F0020380A0020FC0E00208C1000203D
:100880009C1000202DE9FC4104460D4621462648D7
:1008900003F0FCFA244803F0D5FA207823490978BC
:1008A000884239D12868052836D92868401E205C3E
:1008B0001E4991F8CB1088422ED16678701D2968A8
:1008C000814229D10027022004E0215C3944CFB2C3
:1008D000411CC8B2F11C8842F7DB2868801E205CEE
:1008E000B84218D112A007F07FFCA0780F494870D9
:1008F000084686708278E11CC01CFFF771FC01205D
:1009000001900020009000236A4601A90C4800686D
:1009100008F0DCF904E000BF0AA007F065FC00BFA6
:100920000020BDE8FC810000380A00209C10002057
:1009300072656365697665206F6B0D0A00000000C3
:100940002C06002072656365697665206572726F9A
:10095000720D0A002DE9F04104460D4600260A48B2
:10096000D0F8B872D7F8140210B10120BDE8F081B8
:100970002A462146044803F090FA034803F011FB8D
:1009800006463046F2E70000380A002070477047FC
:1009900070B50A480468001D0568001D06683444E7
:1009A00054B108220649204602F03EFB04220449C5
:1009B0001031284602F038FB70BD0000E8F7FF1F39
:1009C0006E06002038B5024600230020009000BFCC
:1009D00092F82400012801D1022038BD012082F8BC
:1009E000240000BF4868072812D21068406B0C79B9
:1009F000641E04EB84051F24AC40A0430D796D1EDA
:100A000005EB85050C68AC4020431468606327E063
:100A100048680D2812D21068006B0C79E41F04EBB3
:100A200084051F24AC40A0430D79ED1F05EB85051F
:100A30000C68AC4020431468206311E01068C06A61
:100A40000C790D3C04EB84051F24AC40A0430D79C8
:100A50000D3D05EB85050C68AC4020431468E06251
:100A600008680A2812D31068C0680C780A3C04EBA6
:100A700044050724AC40A0430D780A3D05EB45052D
:100A80008C68AC4020431468E0600FE01068006997
:100A90000C7804EB44050724AC40A0430D7805EB2B
:100AA00045058C68AC402043146820610868102814
:100AB00002D00868112827D1174C1068A0421ED117
:100AC0001068806800F40000F0B91068806840F495
:100AD00000001468A0600868102815D10F4800684D
:100AE0000F4CB0FBF4F000EB80004000009002E0FF
:100AF0000098401E009000980028F9D104E0906A08
:100B000040F020009062012300BF002082F8240002
:100B100000BF184661E7000000240140A406002041
:100B200040420F002DE9F041044600270025002631
:100B3000A84614B90120BDE8F081A06810B1207D5D
:100B400000B100BFA06A30B90020E06284F8240040
:100B5000204600F089F82046FFF721FE0746A06AEC
:100B600000F01000002873D1002F71D1A06A20F48A
:100B7000885040F00200A062E16960680843217B70
:100B800040EA41000643A068B0F5807F02D0A0682B
:100B9000012802D14FF4807000E000200543207D41
:100BA000012811D1207B38B9A069401E4FF40061A3
:100BB00041EA4030054307E0A06A40F02000A0620F
:100BC000E06A40F00100E0622068406820F469407B
:100BD00028432168486020688068214908403043E4
:100BE00021688860A068B0F5807F02D0A0680128E5
:100BF00002D14FF4807000E00020B0F5807F03D177
:100C0000208A401E4FEA00582068C06A20F4700015
:100C100040EA08002168C8622068806811490840DD
:100C2000B04208D10020E062A06A20F0020040F04B
:100C30000100A06211E0A06A20F0020040F0100064
:100C4000A062E06A40F00100E062012705E0FFE7F2
:100C5000A06A40F01000A062012738466BE7000050
:100C6000FDF7E1FFFE0E1FFF10B586B00446002021
:100C7000029003900490059014492068884222D184
:100C800000BF1348806940F400701149886108462C
:100C9000806900F40070019000BF00BF00BF0846EB
:100CA000806940F0040088610846806900F0040013
:100CB000019000BF00BF102002900320039002A902
:100CC000044800F01DF806B010BD000000240140EB
:100CD000001002400008014070B5044600F0B8F969
:100CE00006462546681C10B104480078054400BF3C
:100CF00000F0AEF9801BA842FAD370BDA006002018
:100D00002DE9F8470346002294466EE14FF00108B2
:100D100008FA02F4D1F8008008EA0400A0427DD16C
:100D2000DFF8DCA2D1F80480A8EB0A09D0453AD05C
:100D300014DCB8F1030F50D009DCB8F1000F31D04A
:100D4000B8F1010F1CD0B8F1020F49D120E0B8F181
:100D5000110F18D0B8F1120F42D11EE0B9F5881F5B
:100D600025D006DCB9F5803F20D0B9F5801F37D1FA
:100D70001AE0B9F5001F18D0B9F5041F30D117E0FB
:100D8000D1F80CC02DE0D1F80C8008F1040C28E05B
:100D9000D1F80C8008F1080C23E0D1F80C8008F1A0
:100DA0000C0C1EE000BF00BF00BF00BF00BF00BFB3
:100DB000D1F80880B8F1000F02D14FF0040C0BE01D
:100DC000D1F80880B8F1010F03D14FF0080C1C6175
:100DD00002E04FF0080C5C6103E04FF0000C00E013
:100DE00000BF00BFFF2801D8984601E003F10408C6
:100DF0004646FF2802D84FEA820803E0A2F108081D
:100E00004FEA88084746D6F800804FF00F0909FAE4
:100E100007F928EA09080CFA07F900E088E048EA2F
:100E20000908C6F80080D1F8048008F08058B8F1AD
:100E3000805F7DD100BFDFF8CC81D8F8188048F002
:100E40000108DFF8C091C9F81880C846D8F81880A2
:100E500008F00108CDF8008000BF00BF4FEAB938A4
:100E60004FEA920958F829504FEA82784FEA1879E8
:100E70004FF00F0808FA09F825EA0805DFF888811D
:100E8000434502D14FF0000816E0DFF8808143456A
:100E900002D14FF001080FE0DFF87481434502D121
:100EA0004FF0020808E0DFF86C81434502D14FF0B3
:100EB000030801E04FF004084FEA82794FEA1979FC
:100EC00008FA09F848EA0505DFF84C814FEA92096B
:100ED00048F82950D1F8048008F48038B8F5803FEC
:100EE0000AD1DFF83881D8F8008048EA0008DFF836
:100EF0002C91C9F8008009E0DFF82081D8F8008043
:100F000028EA0008DFF81491C9F80080D1F80480BD
:100F100008F40038B8F5003F10D1DFF8008108F17F
:100F20000408D8F8008048EA0008DFF8F09000E0F4
:100F30005AE009F10409C9F800800DE0DFF8DC800F
:100F400008F10408D8F8008028EA0008DFF8CC90FF
:100F500009F10409C9F80080D1F8048008F4801868
:100F6000B8F5801F0ED1DFF8B48008F10808D8F872
:100F7000008048EA0008DFF8A49009F10809C9F8E0
:100F800000800DE0DFF8948008F10808D8F80080B0
:100F900028EA0008DFF8849009F10809C9F8008000
:100FA000D1F8048008F40018B8F5001F0ED1DFF85E
:100FB0006C8008F10C08D8F8008048EA0008DFF8D7
:100FC0005C9009F10C09C9F800800DE0DFF84C8055
:100FD00008F10C08D8F8008028EA0008DFF83C90F7
:100FE00009F10C09C9F80080521CD1F8008028FAD8
:100FF00002F8B8F1000F7FF489AEBDE8F887000071
:10100000000011100010024000080140000C0140D7
:10101000001001400014014008000140000401409C
:10102000024693680B400BB1012000E0002070479E
:1010300010B5C26821EA020302EA010443EA04434C
:10104000036110BD0AB1016101E00B040361704747
:1010500001480068704700009806002003480068B7
:101060000349097808440149086070479806002040
:10107000A006002010B50848006840F0100006499E
:101080000860032000F0CCF8002000F007F800F022
:1010900049F8002010BD00000020024070B588B063
:1010A00004460025002600222146192000F07AF887
:1010B000192000F067F800BF1648806940F400600E
:1010C000144988610846806900F40060019000BFFF
:1010D00000BF02A903A801F053F801F089F8054602
:1010E0000D48B5FBF0F0461E0C480D49086040F273
:1010F000E7310B48C160466000210161816001F069
:10110000B9FC20B9064801F027FD08B070BD0120E8
:10111000FBE700000010024040420F00002C01409D
:10112000F009002008B500BF1448806940F00100B4
:10113000124988610846806900F00100009000BFF4
:1011400000BF00BF0846C06940F08050C861084633
:10115000C06900F08050009000BF00BF00220F2146
:10116000901E00F01FF800BF0549486820F0E060BD
:1011700040F00070486000BF08BD00000010024051
:101180000000014001460846002809DB00F01F036B
:1011900001229A4043099B0003F1E023C3F8002198
:1011A00000BF70472DE9F05F80460D4616460027C8
:1011B00005F0C0F8074639462A46334601F00700D5
:1011C000C0F1070ABAF1040F02D94FF0040A01E096
:1011D000C0F1070AD14600F1040ABAF1070F02D2A2
:1011E0004FF0000A01E0A0F1030AD4464FF0010AD3
:1011F0000AFA09FAAAF1010A0AEA020A0AFA0CFA38
:101200004FF0010B0BFA0CFBABF1010B0BEA030BDC
:101210004AEA0B042146404605F094F8BDE8F09FE9
:1012200000BF00F00702064B19684FF6FF03194094
:10123000044B0B4343EA0221014B196000BF704786
:101240000CED00E00000FA0570B505460C4604F010
:101250008000802808D104F0070000EB800605F12B
:10126000280000EBC60105E004EB840605F5B47028
:1012700000EBC6011AB900200873CB8004E00120FE
:1012800008730B81180C4881002070BD704770B541
:1012900004460D4605EB850304F1280101EBC3016B
:1012A0004A692946D4F8E80203F08CF970BD70B59C
:1012B00004460D4605EB850304F5B47101EBC3014B
:1012C0004A692946D4F8E80203F0FCF970BD70B50C
:1012D00004460E4606F0800080280AD106F007007A
:1012E00000EB800104F1280000EBC10501206870CB
:1012F00009E006F0070000EB800104F5B47000EB94
:10130000C1050020687006F00700287000BF94F83F
:10131000A802012801D1022070BD012084F8A80292
:1013200000BF2946206804F055F800BF002084F86B
:10133000A80200BF00BFEFE770B504460E4606F0F6
:101340000F006168884201D9012070BD06F080005D
:1013500080280AD106F0070000EB800104F1280084
:1013600000EBC1050120687009E006F0070000EB02
:10137000800104F5B47000EBC10500206870002006
:10138000A87006F00700287000BF94F8A802012892
:1013900001D10220D9E7012084F8A80200BF294624
:1013A000206804F073F900BF002084F8A80200BF91
:1013B00000BFCAE72DE9F04105460C46174607F481
:1013C0008040002850D02868B0F85010207801EBF9
:1013D000C000801C296801F5806131F81000C0F35D
:1013E0000906A069B04203D3A069801BA06101E097
:1013F0000020A061A069A8B900BF22785200296826
:1014000031F812104BF68F7201EA020080F400509E
:1014100040F4004141F0800123785B002A6822F803
:10142000131000BF07F04000A8B100BF00BF227832
:101430005200296831F8121048F68F7201EA020052
:1014400040F4004141F0C00123785B002A6822F893
:10145000131000BF00BF002E55D0228961693346AA
:10146000286804F0CBFE4EE02868B0F850102078D1
:1014700001EBC000801D296801F5806131F8100082
:10148000C0F30906A069B04203D3A069801BA06124
:1014900001E00020A061A069A8B900BF2278520035
:1014A000296831F812104BF68F7201EA020080F4BD
:1014B000005040F4004141F0800123785B002A682D
:1014C00022F8131000BF07F04000A8B900BF00BF0A
:1014D00022785200296831F8121048F68F7201EA1A
:1014E000020040F4004141F0C00123785B002A680B
:1014F00022F8131000BF00BF2EB162896169334624
:10150000286804F07BFE3046BDE8F0812DE9F04705
:1015100005460C46904608F0400000287ED028681A
:10152000B0F85010207801EBC000801C296801F54C
:10153000806131F81000C0F30907A069B84203D9EF
:10154000A069C01BA06101E00020A061A069E8B90A
:1015500021782846FFF79BFE08F48040002814D02D
:1015600000BF00BF22785200296831F8121048F6F7
:101570008F7201EA020040F4004141F48141237876
:101580005B002A6822F8131000BF5FE108F4804076
:10159000A8B100BF00BF22785200296831F81210AC
:1015A00048F68F7201EA020040F4004141F48141A3
:1015B00023785B002A6822F8131000BF00BF94F85C
:1015C00024000128E1D1606938446061E069384451
:1015D000E0612169206A884204D32669206A801B61
:1015E00020620BE0206A20B93E46002084F82400E7
:1015F00004E0002084F82400266A206200BF60789E
:10160000C8BB00BF2A682968B1F850100A44217885
:10161000022303EBC10102F5806300E047E003EB26
:101620004101084600BF56B9038848F2FF3C03EA6F
:101630000C030380038843F40043038019E03E2E2B
:101640000BD800BF710806F0010303B1491C4FF627
:10165000FF7303EA812303800BE000BF710906F0EA
:101660001F0303B9491E4FF4004343EA812303805B
:1016700000BF00BF13E0FFE7607801280FD100BF73
:1016800028682A68B2F8502010442278022303EB1D
:10169000C20200F5806303EB42010E8000BF00BF71
:1016A000B3B222896169286804F0D7FDCEE02868CA
:1016B000B0F85010207801EBC000801D296801F5BA
:1016C000806131F81000C0F30907A069B84203D364
:1016D000A069C01BA06101E00020A061A069E8B979
:1016E00021782846FFF7D3FD08F480400028DDD19B
:1016F00000BF00BF22785200296831F8121048F666
:101700008F7201EA020040F4004141F481412378E4
:101710005B002A6822F8131000BF97E008F48040AD
:10172000A8B900BF00BF22785200296831F8121012
:1017300048F68F7201EA020040F4004141F4814111
:1017400023785B002A6822F8131000BF00BF94F8CA
:10175000240001287AD1606938446061E069384426
:10176000E0612169206A884204D32669206A801BCF
:1017700020620BE0206A20B93E46002084F8240055
:1017800004E0266A0020206284F8240000BF2A6852
:10179000607890BB00BFD5F800C02968B1F8501040
:1017A0008C4421784FF0060909EBC1010CF58069E2
:1017B00009EB4101084600BF76B9B0F8009048F245
:1017C000FF3A09EA0A09A0F80090B0F8009049F43D
:1017D0000049A0F8009020E03E2E0FD800BF71080D
:1017E00006F00109B9F1000F00D0491C4FF6FF794E
:1017F00009EA8129A0F800900FE010E000BF71090C
:1018000006F01F09B9F1000F00D1491E4FF400493D
:1018100049EA8129A0F8009000BF00BF0FE060787E
:1018200001280CD12868B0F8500002442078062125
:1018300001EBC00002F5806101EB40031E8000BF98
:10184000B3B262896169286804F007FD00BF22789D
:101850005200296831F8121048F6BF7201EA0200FE
:1018600080F0100080F0200040F4004141F0800141
:1018700023785B002A6822F8131000BF0020BDE81F
:10188000F087024601F0070000EB800302F5B47018
:1018900000EBC300C06970472DE9F04705460E46CE
:1018A00090461F464FF0000906F0800080280AD1BC
:1018B00006F0070000EB800105F1280000EBC104F1
:1018C0000120607009E006F0070000EB800105F5DB
:1018D000B47000EBC1040020607006F007002070B7
:1018E000C4F81080E770607808B12078E081022F9A
:1018F00001D10020207100BF95F8A802012802D173
:101900000220BDE8F087012085F8A80200BF21462B
:10191000286803F035FB00BF002085F8A80200BF4F
:101920004846EEE72DE9F04105460E461746984633
:1019300006F0070000EB800105F5B47000EBC10470
:101940006761C4F818800020E061607006F007004D
:10195000207006F0070020B92146286803F031FF07
:1019600003E02146286803F02CFF0020BDE8F08149
:1019700070B504460D4605F007006168884201D93C
:10198000012070BD05F0800080280AD105F0070015
:1019900000EB800104F1280000EBC106012070700B
:1019A00007E005EB850104F5B47000EBC1060020EB
:1019B00070700120B07005F00700307000BF94F81F
:1019C000A802012801D10220DBE7012084F8A80247
:1019D00000BF3146206803F0C6FE05F0070020B9BD
:1019E00004F52C71206803F04EFE00BF002084F83F
:1019F000A80200BF00BFC4E72DE9F04105460E462E
:101A000090461F4606F0070000EB800105F1280014
:101A100000EBC104C4F81480A761012084F82400FD
:101A200027620020E0610120607006F0070020704E
:101A300006F0070020B92146286803F0C2FE03E043
:101A40002146286803F0BDFE0020BDE8F0817FB587
:101A50000446206804F0CEFB00F40040B0F5004FCF
:101A600002D1204601F0E9FC206804F0C3FB00F439
:101A70008060B0F5806F0FD12068B0F844004FF659
:101A8000FF3108402168A1F84400204600F0A6F983
:101A90000021204600F0C2F9206804F0ABFB00F4FE
:101AA0008040B0F5804F08D12068B0F844004BF674
:101AB000FF7108402168A1F84400206804F09AFBF7
:101AC00000F40050B0F5005F08D12068B0F8440081
:101AD0004DF6FF7108402168A1F84400206804F029
:101AE00089FB00F48050B0F5805F1DD12068B0F80C
:101AF00040004FF6FB7108402168A1F840002068C3
:101B0000B0F840004FF6F77108402168A1F8400096
:101B1000204600F075F92068B0F844004EF6FF71D9
:101B200008402168A1F84400206804F063FB00F439
:101B30000060B0F5006F55D1002507E0690020680E
:101B400030F811002DF81500681CC5B2082DF5D32A
:101B50002068B0F8400040F001002168A1F8400082
:101B60002068B0F840004FF6FE7108402168A1F8E7
:101B7000400000BF2068B0F8440000F480600028F6
:101B8000F8D02068B0F844004FF6FF3108402168D3
:101B9000A1F84400002507E03DF815006A0021681F
:101BA00021F81200681CC5B2082DF5D32068B0F8E2
:101BB000400040F008002168A1F840002068B0F81B
:101BC00044004FF2FF7108402168A1F844002068EA
:101BD000B0F8400040F004002168A1F84000204621
:101BE00000F05EF9206804F005FB00F40070B0F529
:101BF000007F0BD12068B0F844004FF6FF51084039
:101C00002168A1F84400204600F001F9206804F0A2
:101C1000F1FA00F48070B0F5807F08D12068B0F848
:101C200044004FF6FF6108402168A1F844007FBDE1
:101C300030B585B0044614B9012005B030BD94F824
:101C4000A90228B9002084F8A802204600F09CF8D8
:101C5000032084F8A902206803F00BFD142204F18C
:101C600010016846FEF7BCFA94E80F0003F0AEFBE3
:101C700020B1022084F8A9020120DEE700212068BB
:101C800004F0E1FA002531E0012105EB850204F1C1
:101C9000280000EBC200417005EB850104F128002B
:101CA00000F8315005EB850100EBC100C581002132
:101CB00005EB850204F1280000EBC200C17005EBC2
:101CC000850204F1280000EBC200016105EB8502EA
:101CD00004F1280000EBC200416105EB850204F12C
:101CE000280000EBC2008161681CC5B26068A84290
:101CF000CAD800252AE0002105EB850204F5B4705E
:101D000000EBC200417005EB850104F5B47000F8EA
:101D10003150002105EB850200EBC200C17005EBDC
:101D2000850204F5B47000EBC200016105EB850289
:101D300004F5B47000EBC200416105EB850204F5C7
:101D4000B47000EBC2008161681CC5B26068A84233
:101D5000D1D8142204F110016846FEF741FA94E844
:101D60000F0003F07BFC20B1022084F8A9020120BF
:101D700063E7002084F82400012084F8A902206889
:101D800003F069FC002058E738B504461149206883
:101D900088421DD100BF1048C06940F400000E49C0
:101DA000C8610846C06900F40000009000BF00BF91
:101DB000002205211320FFF7F5F91320FFF7E2F9C0
:101DC000002205211420FFF7EDF91420FFF7DAF9BE
:101DD00038BD0000005C00400010024070B50446B1
:101DE0000125A068022801D0FEF7D1FD2946D4F8CC
:101DF000E80202F09BFDD4F8E80202F04DFD70BD50
:101E000010B50446D4F8E80202F074FD10BD10B518
:101E10000446D4F8E80202F078FD10BD70B504461F
:101E20000D4600BF94F8A802012801D1022070BD20
:101E3000012084F8A80200BF84F8245029462068B5
:101E400004F004FA00BF002084F8A80200BF00BF1D
:101E5000EDE710B5044604F52C71D4F8E80202F061
:101E60007CFD10BD10B5044600BF94F8A8020128FF
:101E700001D1022010BD012084F8A80200BF206813
:101E800004F09EF901212046FFF700FA206803F0D4
:101E9000DFFB00BF002084F8A80200BF00BFE9E715
:101EA00010B50446D4F8E80202F0B0FDA06928B1EC
:101EB0000348006840F006000149086010BD0000BA
:101EC00010ED00E0F8B5044600260025207800F06B
:101ED000010000286BD000274348C06900F0805003
:101EE00070B900BF4048C06940F080503E49C861A9
:101EF0000846C06900F08050009000BF00BF012775
:101F00003A48006800F48070B0B93848006840F47E
:101F1000807036490860FFF79BF8064606E0FFF739
:101F200097F8801B642801D90320F8BD2F4800686A
:101F300000F480700028F2D02B48006A00F440754D
:101F40002DB3A08800F44070A84220D02648006A33
:101F500020F44075012026490860002008602248CE
:101F6000056205F0010090B1FFF772F8064608E03F
:101F7000FFF76EF8801B41F28831884201D90320B7
:101F8000D3E71948006A00F002000028F0D0164894
:101F9000006A20F440706168084313490862012F09
:101FA00004D10846C06920F08050C86100BF207885
:101FB00000F00200022807D10B48406820F440409E
:101FC000A168084308494860207800F010001028F4
:101FD00007D10548406820F48000E16808430249C1
:101FE00048600020A1E7000000100240007000409F
:101FF0004004424270B504460D460CB9012070BD44
:102000005A48006800F00700A8420ED257480068FE
:1020100020F007002843554908600846006800F092
:102020000700A84201D00120E9E7207800F0020073
:1020300002281DD1207800F00400042805D14C4866
:10204000406840F4E0604A494860207800F00800A9
:10205000082805D14648406840F46050444948602B
:102060004348406820F0F000A168084340494860B8
:10207000207800F0010078B36068012806D13C4860
:10208000006800F4003090B90120B8E760680228C9
:1020900006D13748006800F0007040B90120AEE773
:1020A0003348006800F0020008B90120A7E7304873
:1020B000406820F00300616808432D494860FEF73E
:1020C000C7FF064609E0FEF7C3FF801B41F28831D7
:1020D000884202D9032092E707E02548406800F0D3
:1020E0000C006168B0EB810FEDD12048006800F072
:1020F0000700A8420ED91D48006820F007002843B9
:102100001A4908600846006800F00700A84201D09C
:10211000012074E7207800F00400042807D1144857
:10212000406820F4E060E168084311494860207885
:1021300000F00800082808D10D48406820F46050DD
:10214000216940EAC1000A49486000F061F8084985
:102150004968C1F30311074A515CC8400649086049
:1021600006480068FEF79AFF002048E7002002407A
:1021700000100240F4960008A40600209C060020EF
:102180000F2202600D4A526802F0030242600B4ABD
:10219000526802F0F0028260084A526802F4E0627B
:1021A000C260064A526802F46052D2080261044AD0
:1021B000126802F007020A60704700000010024037
:1021C000002002400148006870470000A40600207B
:1021D00000B5FFF7F7FF04494968C1F30221034A3C
:1021E000515CC84000BD0000001002400497000888
:1021F00000B5FFF7E7FF04494968C1F3C221034A6C
:10220000515CC84000BD0000001002400497000867
:10221000F0B585B00FF26C0C9CE8E01001A8A0E8C6
:10222000E0101CA52D680095002100220023002449
:102230000020194D696801F00C05F5B1042D02D09C
:10224000082D19D101E0154819E001ADC1F383460D
:10225000AC5D01F4803555B10F4D6D68C5F3404557
:102260001DF805200D4D6543B5FBF2F302E00C4D62
:1022700004FB05F3184602E000BF084800BF00BF9A
:1022800005B0F0BD02030405060708090A0B0C0D92
:102290000E0F1010010200000010024000127A0020
:1022A00000093D00F8B504460CB90120F8BD2078BE
:1022B00000F00100002878D0F848406800F00C00D9
:1022C00004280CD0F548406800F00C00082811D113
:1022D000F248406800F48030B0F5803F0AD1EF4802
:1022E000006800F4003000285FD0606800285CD1EE
:1022F0000120DBE700BF6068B0F5803F06D1E7480A
:10230000006840F48030E549086028E0606858B90A
:10231000E248006820F48030E04908600846006820
:1023200020F4802008601AE06068B0F5A02F0BD17F
:10233000DA48006840F48020D84908600846006800
:1023400040F4803008600AE0D448006820F480300F
:10235000D24908600846006820F48020086000BF69
:10236000606888B1FEF774FE054606E0FEF770FE71
:10237000401B642801D9032098E7C848006800F48E
:1023800000300028F2D010E0FEF762FE054606E0BD
:10239000FEF75EFE401B642801D9032086E7BF4894
:1023A000006800F400300028F2D1207800F002002C
:1023B000022857D1B948406800F00C0050B1B74826
:1023C000406800F00C00082818D1B448406800F4B8
:1023D000803098B9B148006800F0020020B120694F
:1023E000012801D0012061E7AC48006820F0F80026
:1023F000616940EAC100A949086033E02069E8B199
:102400000120A7490860FEF723FE054606E0FEF717
:102410001FFE401B022801D9032047E79F480068A0
:1024200000F002000028F2D09C48006820F0F8007C
:10243000616940EAC1009949086013E000209849A9
:102440000860FEF705FE054606E0FEF701FE401BAC
:10245000022801D9032029E79048006800F0020013
:102460000028F2D1207800F0080008282DD1A069BA
:10247000B8B101208B490860FEF7EAFD054606E089
:10248000FEF7E6FD401B022801D903200EE7834832
:10249000406A00F002000028F2D0012001F0BEF9ED
:1024A00013E000207F490860FEF7D2FD054606E0F4
:1024B000FEF7CEFD401B022801D90320F6E677483F
:1024C000406A00F002000028F2D1207800F00400F9
:1024D000042873D100277148C06900F0805070B99A
:1024E00000BF6E48C06940F080506C49C861084622
:1024F000C06900F08050009000BF00BF01276A480B
:10250000006800F48070B0B96748006840F48070DB
:1025100065490860FEF79CFD054606E0FEF798FD5C
:10252000401B642801D90320C0E65F48006800F41E
:1025300080700028F2D000BFE068012806D157481B
:10254000006A40F001005549086227E0E06858B988
:102550005248006A20F00100504908620846006AAB
:1025600020F00400086219E0E06805280BD14B4810
:10257000006A40F00400494908620846006A40F0D9
:10258000010008620AE04548006A20F00100434962
:1025900008620846006A20F00400086200BFE06894
:1025A000A0B1FEF755FD054609E0FEF751FD401BC1
:1025B00041F28831884202D9032077E622E0374889
:1025C000006A00F002000028EFD012E0FEF740FDA4
:1025D000054608E0FEF73CFD401B41F28831884289
:1025E00001D9032062E62D48006A00F002000028AD
:1025F000F0D1012F05D12948C06920F0805027492A
:10260000C86100BFE069C8B32448406800F00C000E
:10261000082860D0E069022848D1002020490866D7
:10262000FEF716FD054606E0FEF712FD401B0228E8
:1026300001D903203AE61948006800F0007000282C
:10264000F2D1206AB0F5803F07D11448406820F4E9
:102650000030A168084311494860D4E908010843E3
:102660000E49496821F4741108430C49486001205F
:102670000B490866FEF7ECFC054607E03DE0FEF777
:10268000E7FC401B022801D903200FE6034800683D
:1026900000F000700028F2D02FE00000001002408F
:1026A0000000424280044242007000400020144971
:1026B0000866FEF7CDFC054606E0FEF7C9FC401BA8
:1026C000022801D90320F1E50E48006800F00070EF
:1026D0000028F2D111E0E069012800D1E6E50948BF
:1026E000466806F48031206A814204D106F47011F4
:1026F000606A814201D00120D8E50020D6E50000C3
:10270000000042420010024010B504460CB90120FE
:1027100010BD606A38B96068B0F5827F00D105E00D
:102720000021E16102E00021216161610021A162DB
:1027300094F8510028B9002084F85000204600F099
:1027400043F8022084F851002068006820F040001F
:1027500021680860A08800F48270218901F4044196
:102760000843A18901F400610843217C01F00201C2
:102770000843217D01F001010843218B01F4007120
:102780000843217F01F0380108432021095D01F051
:1027900080010843218D01F400510843216808603D
:1027A0000421A06901EA1040216848602068C069DE
:1027B00020F400602168C86100206065012084F871
:1027C00051000020A4E7000010B586B004460020A8
:1027D000029003900490059015492068884224D106
:1027E00000BF1448806940F480501249886108464F
:1027F000806900F48050019000BF00BF00BF084610
:10280000806940F0040088610846806900F0040097
:10281000019000BF00BFA02002900220039003207F
:10282000059002A90448FEF76BFA06B010BD00003F
:102830000030014000100240000801402DE9F84F2F
:102840000446884616461D464FF0000A00BF94F81D
:102850005000012802D10220BDE8F88F012084F841
:10286000500000BFFEF7F4FB0746B14694F8510054
:10287000012802D04FF0020AADE0B8F1000F00D0FD
:1028800016B94FF0010AA6E0032084F85100002099
:102890006065C4F83080A686E686A063A087E087DE
:1028A00060642064A068B0F5004F0BD12068006818
:1028B00020F04000216808602068006840F48040F3
:1028C000216808602068006800F04000402805D0BA
:1028D0002068006840F0400021680860E068B0F5BA
:1028E000006F2FD1606810B1B9F1010F09D1206BD1
:1028F00000882168C860206B801C2063E08E401E29
:10290000E0861BE02068806800F0020002280AD1FF
:10291000206B00882168C860206B801C2063E08EDB
:10292000401EE0860AE0FEF793FBC01BA84201D3DD
:10293000681C00B915B94FF0030A4CE0E08E00287E
:10294000E0D12EE0606810B1B9F1010F09D1206B20
:10295000007821680873206B401C2063E08E401EC5
:10296000E0861BE02068806800F0020002280AD19F
:10297000206B007821680873206B401C2063E08E78
:10298000401EE0860AE0FEF763FBC01BA84201D3AD
:10299000681C00B915B94FF0030A1CE0E08E00284E
:1029A000E0D13A462946204600F04CFF08B12020ED
:1029B0006065A06850B900BF002000902068C06822
:1029C000009020688068009000BF00BF606D08B173
:1029D0004FF0010A00BF012084F8510000BF002021
:1029E00084F8500000BF504636E77047704700003B
:1029F00030B502460B4600BF92F83C00012801D1D9
:102A0000022030BD012082F83C0000BF022082F885
:102A10003D00106844681068816824F070041868EC
:102A2000044310684460104D1068A8420BD0106831
:102A3000B0F1804F07D00D4D1068A84203D00C4D67
:102A40001068A84205D121F0800158680143106840
:102A50008160012082F83D0000BF002082F83C0028
:102A600000BF00BFCDE70000002C01400004004083
:102A70000008004010B504460CB9012010BD94F8C0
:102A80003D0028B9002084F83C00204600F026F8DC
:102A9000022084F83D00211D206800F0CBFF0120BA
:102AA00084F8460000BF84F83E0001213F20015514
:102AB000402001554120015500BF00BF012084F88E
:102AC000420043200155442001554520015500BFD7
:102AD000012084F83D000020D0E7000038B504460E
:102AE0001A492068884216D100BF1948C06940F0D1
:102AF00002001749C8610846C06900F00200009052
:102B000000BF00BF002205211D20FEF74BFB1D204A
:102B1000FEF738FB19E00F492068884215D100BF45
:102B20000B48C06940F004000949C8610846C06903
:102B300000F00400009000BF00BF002205211E200D
:102B4000FEF730FB1E20FEF71DFB38BD00040040E1
:102B50000010024000080040014691F83D000128A5
:102B600001D001207047022081F83D000868C0684C
:102B700040F001000B68D860124B086898420BD0F7
:102B80000868B0F1804F07D00F4B0868984203D017
:102B90000E4B086898420CD10868806800F0070264
:102BA000062A0CD00868006840F001000B68186025
:102BB00005E00868006840F001000B68186000201C
:102BC000D0E70000002C0140000400400008004055
:102BD0002DE9F04104460D4600BF94F83C00012861
:102BE00002D10220BDE8F081012084F83C0000BF42
:102BF000022084F83D002068866826F0770626F4D7
:102C00007F46206886602868502833D00CDC202856
:102C100050D004DC00284BD0102851D149E0302896
:102C200049D040284CD139E060282DD0702807D0F9
:102C3000B0F5805F03D0B0F5005F41D10DE040E01A
:102C4000D5E902136A68206800F02EFF20688668C4
:102C500046F077062068866033E0D5E902136A689B
:102C6000206800F021FF2068806840F480402168DF
:102C7000886026E0EA686968206800F029FF502132
:102C8000206800F01CFF1CE0EA686968206800F01A
:102C900032FF6021206800F012FF12E0EA686968E4
:102CA000206800F015FF4021206800F008FF08E0D0
:102CB00000BF00BF00BF2968206800F000FF00E0EF
:102CC00000BF00BF012084F83D0000BF002084F851
:102CD0003C0000BF00BF85E7704710B50446206880
:102CE0000069C0F34000D8B12068C068C0F340005C
:102CF000B0B16FF0020021680861012020772068E0
:102D0000806900F0030018B12046FFF7E5FF05E0F9
:102D1000204600F0ADF8204600F0ABF80020207708
:102D200020680069C0F38000D8B12068C068C0F393
:102D30008000B0B16FF004002168086102202077A4
:102D40002068806900F4407018B12046FFF7C4FF86
:102D500005E0204600F08CF8204600F08AF80020BC
:102D6000207720680069C0F3C000D8B12068C0682F
:102D7000C0F3C000B0B16FF0080021680861042002
:102D800020772068C06900F0030018B12046FFF7E3
:102D9000A3FF05E0204600F06BF8204600F069F83C
:102DA0000020207720680069C0F30010D8B12068A7
:102DB000C068C0F30010B0B16FF010002168086166
:102DC000082020772068C06900F4407018B12046C0
:102DD000FFF782FF05E0204600F04AF8204600F0A9
:102DE00048F8002020772068006900F0010058B101
:102DF0002068C06800F0010030B16FF00100216868
:102E00000861204600F036F820680069C0F3C01061
:102E100058B12068C068C0F3C01030B16FF08000B6
:102E2000216808612046FFF7E0FD20680069C0F3D3
:102E3000801058B12068C068C0F3801030B16FF0C6
:102E4000400021680861204600F036F820680069DB
:102E5000C0F3401058B12068C068C0F3401030B1D2
:102E60006FF02000216808612046FFF7BFFD10BD0C
:102E70007047704710B504460C492068884201D15C
:102E8000FEF7ECF80A49206888420DD103F058FF9C
:102E900008480078401CC0B206490870052803DDC8
:102EA0000020087003F0D8FF10BD0000002C014086
:102EB000000800401B060020704710B504460CB9FE
:102EC000012010BDA06900B100E000BF94F83900F6
:102ED00028B9002084F83800204600F027F8242084
:102EE00084F839002068C06820F400502168C86068
:102EF000204600F015FE2068006920F4904021680B
:102F000008612068406920F02A0021684861206833
:102F1000C06840F400502168C8600020E0632020B1
:102F200084F8390084F83A000020CAE710B586B06A
:102F300004460020029003900490059034492068D4
:102F400088422FD100BF3348806940F48040314926
:102F500088610846806900F48040019000BF00BF8E
:102F600000BF0846806940F0040088610846806917
:102F700000F00400019000BF00BF4815029002203D
:102F800003900320059002A92348FDF7B9FE4FF4F2
:102F90008060029000200390049002A91E48FDF773
:102FA000AFFE32E01D49206888422ED100BF19488B
:102FB000C06940F480201749C8610846C06900F420
:102FC0008020019000BF00BF00BF0846806940F02C
:102FD000080088610846806900F00800019000BF81
:102FE00000BF08150290022003900320059002A95B
:102FF0000B48FDF785FE4FF400600290002003901F
:10300000049002A90648FDF77BFE06B010BD000043
:103010000038014000100240000801400048004014
:10302000000C014000BFFEE730B50B46002100BF99
:1030300016E00A24B4EB107F05D9302404EB107499
:1030400003F8114005E0412404EB10740A3C03F836
:103050001140000100254C00641C1D554C1CE1B2C0
:103060009142E6DB30BD00000EB5002000900190DB
:1030700002901248124908600021114881600173D2
:1030800001754FF46021C16100200D4948600121A4
:103090000B480161FDF746FD08B1FDF778FC0420FF
:1030A0000090012001900720029069460448FDF736
:1030B00089FC08B1FDF76BFC0EBD00000024014047
:1030C0005808002010B5184A0121084603F0D8FF1F
:1030D00016490860164A0121202003F0D1FF154946
:1030E0000860154A0021154804F026F814490860C4
:1030F000144A0021144804F01FF814490860144AC7
:103100000021144804F018F813490860134A0021FC
:10311000134804F011F813490860134803F03EFF08
:103120001249086010BD0000B49600082C0600206B
:10313000CC9600083006002024960008157200087E
:103140001C0600204896000859820008200600202E
:103150006C9600082582000824060020909600083E
:103160003D6C000828060020E49600083406002084
:1031700000B585B00020019002900390049000BF3C
:103180003248806940F020003049886108468069F3
:1031900000F02000009000BF00BF00BF084680691B
:1031A00040F0040088610846806900F00400009047
:1031B00000BF00BF00BF0846806940F0080088617A
:1031C0000846806900F00800009000BF00BF0022A0
:1031D0000F211F48FDF736FF002217211D48FDF77C
:1031E00031FF01224FF4E0411A48FDF72BFF0F2079
:1031F000019001200290002003900220049001A978
:103200001348FDF77DFD40200190002002900390BF
:1032100001A90F48FDF774FD47F217000190012046
:103220000290002003900220049001A90948FDF7B4
:1032300067FD60200190002002900120039001A909
:103240000448FDF75DFD05B000BD00000010024020
:1032500000080140000C014010B50F480F490860FC
:103260004FF4827048604FF400410C4881600021A7
:10327000C160016141614FF4007181613021C16120
:1032800000210162416281620A21C162FFF73CFABA
:1032900008B1FDF77CFB10BD00300140880800201C
:1032A00000B587B00020039004900590069001902F
:1032B00002901448144908606320486000211248B5
:1032C000816040F2CF21C160002101618161FFF77F
:1032D000D1FB08B1FDF75BFB4FF48050039003A9CD
:1032E0000948FFF775FC08B1FDF751FB002001907C
:1032F000029001A90448FFF77BFB08B1FDF747FBEB
:1033000007B000BD00040040E008002000B587B011
:1033100000200390049005900690019002901448BC
:1033200014490860472048600021124881606321E9
:10333000C1600021016180218161FFF79BFB08B121
:10334000FDF725FB4FF48050039003A90948FFF7D0
:103350003FFC08B1FDF71BFB00200190029001A982
:103360000448FFF745FB08B1FDF711FB07B000BDAE
:10337000000800402809002010B50B480B490860E0
:103380004FF4E1304860002108488160C16001616C
:103390000C21416100218161C161FFF78EFD08B1FF
:1033A000FDF7F5FA10BD000000380140700900205B
:1033B00010B50B480B4908604FF4E130486000211C
:1033C00008488160C16001610C2141610021816177
:1033D000C161FFF772FD08B1FDF7D9FA10BD000019
:1033E00000480040B009002010B500220D490E48E9
:1033F00001F0A9F808B1FDF7CAFA0C490A4801F032
:103400003BFB08B1FDF7C3FA0949074800F037FD57
:1034100008B1FDF7BCFA044801F0F8FB08B1FDF76C
:10342000B6FA10BD38060020380A00203007002008
:103430008806002000BFFEE770472DE9F0470546EB
:10344000E2E12868B0F844A00AF00F06002E7ED111
:103450000AF01000B0BB00BF2968098848F60F7257
:1034600001EA020040F400412A68118000BF05F122
:1034700028042868B0F85010207801EBC000801CA8
:10348000296801F5806131F81000C0F30900E0619E
:10349000E16960690844606100212846FDF7F7FE94
:1034A00095F824000028CBD0A0690028C8D195F851
:1034B000240040F080002968A1F84C00002085F825
:1034C0002400A1E1FFE705F5B4742868B0F8008096
:1034D00008F4006030B32868B0F85010207801EB91
:1034E000C000801D296801F5806131F81000C0F32B
:1034F0000900E061A18B8BB2E28805F52C71286888
:1035000002F07CFE00BF2968098840F68F7201EA4C
:10351000020040F080012A68118000BF2846FEF7B3
:1035200098FC71E108F40040002889D000BF2968A8
:10353000098840F68F7201EA020040F080012A6893
:10354000118000BF2868B0F85010207800E069E0D2
:1035500001EBC000801D296801F5806131F8100081
:10356000C0F30900E061E06990B1606980B1B4F82E
:103570001CC01FFA8CF3E2886169286802F03EFEE5
:10358000E16960690844606100212846FDF78FFE0B
:1035900000BF2A682968B1F850100A4402F20C41B1
:1035A000084600BF236953B9038848F2FF3C03EA89
:1035B0000C030380038843F4004303801EE0236967
:1035C0003E2B0DD800BF23695908237C03F001036B
:1035D00003B1491C4FF6FF7303EA812303800DE01A
:1035E00000BF23695909237C03F01F0303B9491E57
:1035F0004FF4004343EA8123038000BF00BF00BFB4
:1036000000BF296809884BF68F7201EA020080F436
:10361000805080F4005040F4004141F080012A685D
:103620001180F1E07100286830F8118008F4004042
:1036300000287ED000BF7200296831F8121040F6D1
:103640008F7201EA020040F0800173002A6822F8BC
:10365000131000BF06EB860105F5B47000EBC10442
:10366000207BB0B92868B0F85010207801EBC0007A
:10367000801D296801F5806131F81000C0F3090749
:10368000002F5BD0E28861693B46286802F0B6FDF6
:1036900054E0E078022806D1424621462846FDF74C
:1036A00089FE07464AE000BF00BF22785200296821
:1036B00031F8121048F68F7201EA020040F400411E
:1036C00041F0C00123785B002A6822F8131000BF84
:1036D00000BF21784900286830F8110000F48040CC
:1036E000A8B12868B0F85010207801EBC000801C09
:1036F000296801F5806131F81000C0F30907EFB1C6
:10370000228961693B46286802F078FD16E0286846
:10371000B0F85010207801EBC000801D296801F539
:10372000806131F81000C0F309073FB16289616917
:1037300000E017E03B46286802F060FDE06938448D
:10374000E061606938446061A06910B12069B842E5
:1037500004D921782846FDF7AAFD03E02146286810
:1037600002F02FF808F08000A0B306EB860105F107
:10377000280000EBC10400BF7200296831F8121064
:1037800048F60F7201EA020040F4004173002A6813
:1037900022F8131000BFE078022805D1E078022853
:1037A0002DD108F4807050BB2868B0F850102078F4
:1037B00001EBC000801C296801F5806131F8100020
:1037C000C0F30909A069484505D9A069A0EB090023
:1037D000A06102E018E00020A061A06920B9217872
:1037E0002846FDF754FD0FE0606948446061E069D8
:1037F0004844E0612146286801F0E3FF04E04246C6
:1038000021462846FDF782FE2868B0F8440000F4FF
:10381000004000287FF415AEBDE8F08708B50849E0
:103820000968C9084FF47A72B1FBF2F14143009183
:1038300000BF00BF00994A1E00920029F9D108BDBF
:10384000A4060020F8B504460D4616462B46002275
:1038500080212046009600F009F828B1606D40F004
:10386000200060650320F8BD0020FCE72DE9F84F3B
:1038700004460D4690461E46DDF82890FDF7E8FB0D
:10388000A0EB0900371AFDF7E3FB82462C480068DD
:10389000C0F3CB307843009045E0701C002842D044
:1038A000FDF7D6FBA0EB0A00B84200D2A7BB206808
:1038B000406820F0E000216848606068B0F5827FD1
:1038C0000DD1A068B0F5004F03D0A068B0F5806FAF
:1038D00005D12068006820F0400021680860A06AD7
:1038E000B0F5005F0DD100BF2068006820F40050E3
:1038F000216808602068006840F400502168086072
:1039000000BF012084F8510000BF002084F850005F
:1039100000BF0320BDE8F88FFFE7009800B900273B
:103920000098401E0090206880682840A84201D17D
:10393000012000E000204045AFD10020EAE7000070
:10394000A406002010B500BF502080F31188BFF3FB
:103950004F8FBFF36F8F00BF05F0D2FB18B14FF050
:1039600080500449086000BF002080F3118800BF28
:1039700010BD000004ED00E000B593B0282109A8B7
:10398000FCF747FC142104A8FCF743FC002000903E
:103990000190029003900120099000040A900020F9
:1039A0000B9001200D9002201090C10311914FF453
:1039B000E011129109A8FEF775FC08B1FCF7E7FFCA
:1039C0000F20049002200590002006904FF48060A4
:1039D000079000200890022104A8FEF70BFB08B115
:1039E000FCF7D5FF122000904FF400400290002019
:1039F00003906846FEF766FA08B1FCF7C8FF13B0FB
:103A000000BD704710B50248FFF767F910BD000010
:103A1000F009002010B50248FFF75FF910BD000063
:103A2000E008002010B50248FFF757F910BD00006C
:103A30002809002010B50268184B984208D0B0F150
:103A4000804F05D0164B984202D0164B984203D1B6
:103A500022F070024B681A43104B984208D0B0F124
:103A6000804F05D00E4B984202D00E4B984203D1A6
:103A700022F44072CB681A4322F080034C6943EA77
:103A8000040202608B68C3620B688362034B984236
:103A900001D10B6903630123436110BD002C014078
:103AA000000400400008004030B50C46816821F455
:103AB0007F4142EA032525432943816030BD0A4600
:103AC000816821F0700142F007031943816070475B
:103AD00030B50B461446026A056A25F001050562F9
:103AE000816921F0F00141EA041122F00A021A432F
:103AF0008161026230BD30B50B461446056A25F07F
:103B0000100505628169026A21F4704141EA0431BD
:103B100022F0A00242EA03128161026230BD00007D
:103B200070B504462168096921F44051E2681143E7
:103B3000226811612269A1681143626941EA0205A4
:103B40002168C96841F20C62914329432268D1601F
:103B50002168496921F44071A269114322685161C9
:103B60002D4A2168914202D1FEF742FB01E0FEF7A7
:103B70002FFB00EBC00101EB001162689200B1FB6A
:103B8000F2F100EBC00202EB001263689B00B2FB93
:103B9000F3F26423B2FBF3F202EBC20303EB021273
:103BA000A1EB8201322202EB01116422B1FBF2F19E
:103BB00001F0F00100EBC00202EB001263689B0011
:103BC000B2FBF3F26423B2FBF3F201EB021200EB5F
:103BD000C00101EB001163689B00B1FBF3F100EB46
:103BE000C00303EB00136668B600B3FBF6F364266C
:103BF000B3FBF6F303EBC30606EB0313A1EB830160
:103C0000322303EB01116423B1FBF3F101F00F0147
:103C100011442268916070BD003801402DE9F041E7
:103C200004460D46D4F8B862D4F8C072D4F8B8028D
:103C300078B305EB850104F1140000EB8100806886
:103C400008B305EB850104F1140000EB810005EBDE
:103C50008502816807F1280000EBC2000069B1FB12
:103C6000F0F200FB121070B9002105EB850204F19F
:103C7000140000EB8200816000231A46294620468A
:103C800000F0CEFE02E00020C6F814020020BDE8DD
:103C9000F081FFE70220FAE770B504460E46D4F83B
:103CA000B8523146204600F060FDC5F80C02D4F849
:103CB000B80248B1D5F80402D4F8BC12CA6805F5B8
:103CC00003719047002070BD0220FCE770B50446E8
:103CD0000E4600258121204600F061FC0021E162B2
:103CE0000121204600F05BFC0021C4F86C11822108
:103CF000204600F054FC00212164D4F8B80250B1F1
:103D0000D4F8BC1248688047D4F8B80201F031F901
:103D10000020C4F8B802284670BD70B50546D5F835
:103D2000B842D5F8BC0278B194F80002FF280BD055
:103D300094F8012294F80002D5F8BC128B68214651
:103D40009847FF2084F80002002070BD01460A2039
:103D500008800148704700002407002001464320E6
:103D60000880014870470000AC070020014643204E
:103D70000880014870470000680700200146432082
:103D80000880014870470000F00700202DE9F0414D
:103D900004460F460026207C88B94FF400730222A7
:103DA0008121204600F048FD0121E1624B02022200
:103DB000204600F041FD0121C4F86C110FE04023C2
:103DC00002228121204600F037FD0121E1624023DB
:103DD0000222204600F030FD0121C4F86C110823B6
:103DE00003228221204600F027FD012121644FF4A7
:103DF000077001F0BFF8C4F8B802D4F8B80208B9E7
:103E000001261CE0D4F8B852D4F8BC1208688047E8
:103E10000020C5F81402C5F81802207C40B94FF400
:103E2000007301212046D5F8042200F01DFD06E0B4
:103E3000402301212046D5F8042200F015FD30462C
:103E4000BDE8F08170B50446D4F8B852D4F8B80291
:103E500098B1207C40B94FF4007301212046D5F879
:103E6000042200F001FD06E0402301212046D5F8A0
:103E7000042200F0F9FC002070BD0220FCE702469D
:103E8000022011B1C2F8BC12002070470246D2F8DD
:103E9000B832C3F804120020704710B50346D3F8B7
:103EA000B842C4F80812C4F81022002010BD2DE951
:103EB000FC4105460C46D5F8B86200200190009000
:103EC0000027207800F0600040B320285FD1E08810
:103ED000E0B1207800F0800060B1E2886078D5F829
:103EE000BC128B6831469847E2883146284600F07C
:103EF000E6F812E0607886F80002A07986F8010200
:103F0000E2883146284600F0B9F806E06078D5F836
:103F1000BC1200228B68214698473EE0607820B1B1
:103F20000A2812D00B282AD11FE095F89C020328FA
:103F300005D102226946284600F0C1F804E0214676
:103F4000284600F08FF802271FE095F89C0203280E
:103F500005D1012201A9284600F0B1F804E021466C
:103F6000284600F07FF802270FE095F89C0203280E
:103F700004D02146284600F075F8022705E02146C6
:103F8000284600F06FF8022700BF00BF05E0214679
:103F9000284600F067F8022700BF00BF3846BDE89A
:103FA000FC8170B50546D5F8B842D5F8B802A8B17D
:103FB000D4F8140280B90120C4F81402D4F8101205
:103FC0002963B4F8100283B281212846D4F808226C
:103FD00000F026FD002070BD0120FCE70220FAE77A
:103FE00070B504460D46D4F8B4022946426820460E
:103FF0009047002070BD70B504460D4694F89C02B1
:10400000012804D0022803D003280CD101E000BF0E
:1040100000BF6888012805D10020C4F8A40220460A
:1040200000F05EF804E02946204600F01BF800BFCF
:1040300000BF70BD70B506460C4615462B4622469D
:104040000021304600F010FC002070BD70B506461F
:104050000C4615462B4622460021304600F0E0FC77
:10406000002070BD70B504460D468021204600F04A
:10407000ABFC0021204600F0A7FC70BD70B50446E3
:104080000E4615460320C4F894024FF4AE70055155
:10409000001D05512B4632460021204600F0E4FB6E
:1040A000002070BD10B504460520C4F8940200231A
:1040B0001A461946204600F0D7FB002010BD70B507
:1040C00004460E4615460220C4F89402E5612562B6
:1040D0002B4632460021204600F0A2FC002070BD95
:1040E00010B504460420C4F8940200231A46194669
:1040F000204600F095FC002010BD000070B505467C
:104100000C462DB92246064906A000F0DDF904E070
:104110002246034903A000F0D7F9014870BD000012
:10412000FC0C002043444320436F6E666967000027
:104130000246122008800148704700005406002003
:1041400070B505460C462DB92246064906A000F07A
:10415000BBF904E02246034903A000F0B5F9014889
:1041600070BD0000FC0C002043444320496E746580
:104170007266616365000000024604200880014801
:10418000704700006806002070B505460C462246C0
:10419000024903A000F098F9004870BDFC0C002013
:1041A00053544D6963726F656C656374726F6E69A9
:1041B0006373000070B505460C462DB922460649CA
:1041C00006A000F081F904E02246034903A000F0B4
:1041D0007BF9014870BD0000FC0C0020547970652B
:1041E000577269746572205669727475616C2043E8
:1041F0006F6D506F7274000070B505460C461A2042
:104200002080FCF7C5FB014870BD00006C06002053
:1042100070B504460D46E888012804D0294620469A
:10422000FFF720FF1EE094F89C02012804D002282A
:1042300003D0032810D109E000BF0020A0600122B4
:1042400004F108012046FFF73AFF0AE00122211D90
:104250002046FFF734FF04E029462046FFF702FF1F
:1042600000BF00BF70BDF8B504460E4600200090A8
:104270000027002570880012082875D2DFE800F0BA
:10428000C7040C20C7C7A5B5207CD4F8B0120A68B3
:10429000694690470746C1E0207C40B9D4F8B40293
:1042A000816A6846884707460220787007E0D4F89C
:1042B000B402C16A68468847074602207870ADE0BC
:1042C000B078062878D2DFE800F00316293C506366
:1042D000D4F8B002406838B1207CD4F8B0124A68F3
:1042E00069469047074605E031462046FFF7BAFE8B
:1042F000681CC5B267E0D4F8B002806838B1207C91
:10430000D4F8B0128A6869469047074605E03146FE
:104310002046FFF7A7FE681CC5B254E0D4F8B002EF
:10432000C06838B1207CD4F8B012CA68694690479A
:10433000074605E031462046FFF794FE681CC5B2EB
:1043400041E0D4F8B002006938B1207CD4F8B01252
:104350000A6969469047074605E031462046FFF75F
:1043600081FE681CC5B22EE051E0D4F8B00240696D
:1043700038B1207CD4F8B0124A69694690470746A4
:1043800005E031462046FFF76DFE681CC5B21AE015
:10439000D4F8B002806940B1207CD4F8B0128A69A8
:1043A00069469047074606E006E031462046FFF79B
:1043B00059FE681CC5B206E031462046FFF752FEA2
:1043C000681CC5B200BF00BF28E0207C30B9D4F81B
:1043D000B402416B68468847074605E031462046EF
:1043E000FFF740FE681CC5B218E0207C40B9D4F845
:1043F000B402016B6846884707460720787005E0DD
:1044000031462046FFF72EFE681CC5B206E0314655
:104410002046FFF727FE681CC5B200BF00BF05B1EC
:10442000F8BDBDF8000088B1F08878B1F088BDF81B
:104430000010884202DDBDF8000000E0F088009026
:10444000BDF8002039462046FFF739FEF08810B944
:104450002046FFF745FE00BFE2E70146002002E0EC
:10446000421CD0B2491C0A78002AF9D1704770B5B5
:1044700004460D4694F89C02012804D0022803D07B
:1044800003281AD101E000BF00BFE888022804D049
:1044900029462046FFF7E6FD14E00120E060D4F84D
:1044A000A40218B1E06840F00200E060022204F1CA
:1044B0000C012046FFF703FE04E029462046FFF7E3
:1044C000D1FD00BF00BF70BD2DE9F04104460D468F
:1044D00017460026FCB12046FFF7BFFF022101EB83
:1044E000400038803A783046711CCEB22A540322FC
:1044F0003046711CCEB22A540AE014F8012B304623
:10450000711CCEB22A5400223046711CCEB22A54FD
:1045100020780028F1D1BDE8F0810146002031B1BA
:10452000012906D0022906D0032908D105E0002080
:1045300007E0022005E0012003E0022001E0022064
:1045400000BF00BF704770B504460D4616460CB953
:10455000022070BDD4F8B40210B10020C4F8B40237
:104560000DB1C4F8B052012084F89C022670204698
:1045700000F004F90020ECE72DE9F04104460D4677
:10458000002600272946D4F8C002FCF7D5FE0646CF
:104590003046FFF7C2FF07463846BDE8F0812DE9F7
:1045A000F04104460D46002600272946D4F8C002F3
:1045B000FCF78DFE06463046FFF7AFFF074638464C
:1045C000BDE8F0812DE9F04104460E461746002E65
:1045D00064D104F11405D4F89402022848D1D5E935
:1045E0000301884210D9D5E90301401AE860A8897F
:1045F00082B239462046FFF729FD00231A461946A4
:10460000204600F031F93EE02969A868B0FBF1F2DC
:1046100001FB1200B8B92969A868884213D3A868B9
:10462000D4F8981288420ED2002211462046FFF795
:104630000DFD0020C4F8980200231A4619462046B2
:1046400000F012F91FE0D4F8B402C06840B194F849
:104650009C02032804D1D4F8B402C16820468847DC
:104660008021204600F0B0F92046FFF71BFD0AE04C
:10467000D4F89402042802D0D4F8940218B9802106
:10468000204600F0A1F994F8A002012818D1204694
:1046900000F0FAF9002084F8A00211E0D4F8B40286
:1046A000406950B194F89C02032806D1D4F8B402B2
:1046B000314642692046904702E00220BDE8F08181
:1046C0000020FBE72DE9F04104460E461746BEBB2D
:1046D00004F5AA75D4F89402032825D1D5E903017D
:1046E000884210D9D5E90301401AE860D5E90301F1
:1046F000884201D2E86800E0286982B23946204643
:10470000FFF798FC2FE0D4F8B402006940B194F8A8
:104710009C02032804D1D4F8B402016920468847DA
:104720002046FFF7DDFC1EE0D4F8940205281AD1DC
:104730000020C4F894020021204600F045F912E060
:10474000FFE7D4F8B402806950B194F89C020328C2
:1047500006D1D4F8B402314682692046904702E07F
:104760000220BDE8F0810020FBE770B504460D464D
:104770002946D4F8C002FDF784F870BD10B5044690
:104780001D48C0F8E842C4F8C0021C481A49086035
:104790000820486002211848816000218161C161C0
:1047A0000162FDF745FA08B1FCF7F1F804F5307441
:1047B0001823002211462068FCF746FD58230022EA
:1047C00080212068FCF740FDC02300228121206861
:1047D000FCF73AFD4FF48873002201212068FCF7B2
:1047E00033FD2068A4F530744FF4807300228221D9
:1047F000FCF72AFD002010BD68110020005C00407D
:1048000010B50246D2F8C03201F08000802809D1EC
:1048100001F07F0000EB800403F1280000EBC400EE
:10482000807810BD01F07F0000EB800403F5B470C8
:1048300000EBC4008078F4E72DE9F04704460F460A
:1048400015461E464FF00008C1462B4632463946F3
:10485000D4F8C002FDF720F880464046FFF75DFE21
:1048600081464846BDE8F0872DE9F04704460D46ED
:1048700016461F464FF00008C1463B4632462946C1
:10488000D4F8C002FDF74EF880464046FFF745FEDB
:1048900081464846BDE8F08710B504464023002213
:1048A00011462046FFF7C8FF01214FF4AC700151BB
:1048B00040214FF4B2700151402300228021204654
:1048C000FFF7BAFF0121A16140216162012084F854
:1048D0009C020020C4F894026060C4F8A402D4F8DA
:1048E000B80228B12179D4F8B40242682046904732
:1048F000002010BD014691F89C02042803D191F8D4
:104900009D0281F89C020020704710B5044694F87F
:104910009C02032808D1D4F8B402C06920B1D4F8AD
:10492000B402C16920468847002010BD02461174B8
:10493000002070472DE9F04104460D46002600276F
:104940002946D4F8C002FDF769FA06463046FFF75B
:10495000E4FD07463846BDE8F08170B504460D46D3
:10496000294604F52A7000F073F80120C4F8940277
:1049700040F2AE20005BC4F8980294F8A80200F060
:104980001F0020B1012808D0022812D10BE004F545
:104990002A71204600F041F913E004F52A712046FF
:1049A00000F0A8FA0DE004F52A71204600F086F91F
:1049B00007E094F8A80200F08001204600F004F817
:1049C00000BF00BF002070BD2DE9F04104460D4638
:1049D000002600272946D4F8C002FCF7C9FF064686
:1049E0003046FFF79AFD07463846BDE8F08170B5BE
:1049F000044600250026D4F8C002FDF733FA054628
:104A00002846FFF78AFD0646304670BD014691F8FC
:104A10009C0281F89D02042081F89C0200207047CE
:104A20002DE9F04704460D4616461F464FF0000894
:104A3000C1463B4632462946D4F8C002FCF7DCFFAB
:104A400080464046FFF769FD81464846BDE8F0874D
:104A50000A7802704A7842708B78CA7803EB022297
:104A600042800B794A7903EB022282808B79CA79E2
:104A700003EB0222C28070470246002011B1C2F847
:104A8000B41200E00220704701460020704770B564
:104A900004460D46A88810BBE88800BB68888028BB
:104AA0001DD2A87800F07F0694F89C02032804D158
:104AB00029462046FFF7D6FA15E084F89E62314673
:104AC0002046FFF737FF2046FFF70AFB1EB1022002
:104AD00084F89C0207E0012084F89C0203E0294648
:104AE0002046FFF7BFFA70BD70B504460D4602269A
:104AF000D4F8B40238B1D4F8B4022946026820468A
:104B0000904700B90026304670BD000070B50446DD
:104B10000D46A8783649087008460078012804DD5B
:104B200029462046FFF79EFA60E094F89C0202288E
:104B300002D003284FD11CE02D480078A8B12C48A2
:104B400000786060032084F89C02294801782046A0
:104B5000FFF7CAFF022804D129462046FFF782FA50
:104B600070BD2046FFF7BCFA02E02046FFF7B8FA16
:104B70003BE01F48007870B9022084F89C021C4872
:104B8000007860601A4801782046FFF729FA20462D
:104B9000FFF7A6FA1EE0164909786068884216D029
:104BA00021792046FFF71CFA114800786060104810
:104BB00001782046FFF798FF022804D129462046B5
:104BC000FFF750FACCE72046FFF78AFA02E02046CA
:104BD000FFF786FA09E029462046FFF743FA044822
:104BE00001782046FFF7FCF900BF00BF00BFB7E720
:104BF0002007002070B505460C466088012804D1C6
:104C0000C5F8A4022846FFF76BFA70BD10B504463C
:104C10002046FFF7ECFE002010BD70B505460C469F
:104C20000026207800F0600060B1202802D04028E3
:104C30003CD100E000BFD5F8B40221468268284686
:104C4000904738E060780A2829D2DFE800F019237D
:104C5000281E280A0528140F21462846FFF703FBC3
:104C600022E021462846FFF712FF1DE02146284694
:104C7000FFF74CFF18E021462846FFF7C9FA13E07A
:104C800021462846FFF7F3FB0EE021462846FFF7B2
:104C9000B1FF09E021462846FFF7ADF904E02146BF
:104CA0002846FFF7DFF900BF00BF04E02146284691
:104CB000FFF7D8F900BF00BF304670BD2DE9F041C5
:104CC00005460E464FF000083479307800F0600059
:104CD00060B1202802D0402871D100E000BFD5F893
:104CE000B402314682682846904700E1307800F0EF
:104CF0006000202809D1D5F8B402314682682846E0
:104D0000904780464046BDE8F081707800285ED02C
:104D100001282FD0032876D195F89C02022802D0D2
:104D2000032820D110E054B1802C08D02146284619
:104D3000FFF74AFE80212846FFF746FE03E0314692
:104D40002846FFF78FF913E0708840B93CB1802CFA
:104D500005D0F08818B921462846FFF735FE2846C9
:104D6000FFF7BEF904E031462846FFF77BF900BFA4
:104D700000BFB5E095F89C02022802D003281FD19D
:104D800010E054B1802C08D021462846FFF71CFEC5
:104D900080212846FFF718FE03E031462846FFF73A
:104DA00061F912E0708848B904F07F0018B121461B
:104DB0002846FFF7E1FB2846FFF792F905E091E06E
:104DC00031462846FFF74EF900BF00BF88E095F84E
:104DD0009C02022802D0032876D126E034B1802C30
:104DE00004D031462846FFF73DF972E004F0800018
:104DF000802809D104F07F0000EB800105F1140048
:104E000000EB810008E066E004F07F0000EB800129
:104E100005F5AA7000EB81000746002038600222E9
:104E200039462846FFF74BF953E004F0800080280C
:104E30000ED104F00F0000EB800105F1140000EB2F
:104E40008100406898B931462846FFF70BF940E0E9
:104E500004F00F0000EB800105F5AA7000EB810063
:104E6000406820B931462846FFF7FCF831E004F0ED
:104E70008000802808D104F07F0000EB800105F15C
:104E8000140000EB810007E004F07F0000EB8001DC
:104E900005F5AA7000EB810007460CB1802C02D109
:104EA0000020386009E021462846FFF7A9FC10B130
:104EB0000120386001E0002038600222394628468F
:104EC000FFF7FDF805E0FFE731462846FFF7CAF88F
:104ED00000BF00BF04E031462846FFF7C3F800BF1B
:104EE00000BF04E031462846FFF7BCF800BF00BF12
:104EF000404608E770B505460C460026207800F0CD
:104F0000600030B1202802D040282AD100E000BF44
:104F100000BF95F89C02012804D0022803D0032882
:104F200018D101E000BF00BF207901280DDCD5F8C1
:104F3000B40221468268284690470646E08840B978
:104F40003EB92846FFF7CCF803E021462846FFF794
:104F500089F804E021462846FFF784F800BF00BF27
:104F600004E021462846FFF77DF800BF00BF00207F
:104F700070BD70470146014870470000541400207E
:104F8000F0B5024600260878400032F8100048F6D6
:104F90008F1400EA0403C87830B101280CD002282D
:104FA00005D003280BD104E043F4007309E000BFEF
:104FB00007E043F4C06304E043F4806301E00126AA
:104FC00000BF00BF43F4004040F080000C78640054
:104FD00022F8140000BF0C78640032F8144048F640
:104FE0008F752C400D7844EA050040F4004444F0ED
:104FF00080040D786D0022F8154000BF087B002862
:105000007ED14878002852D000BF1046B2F85050E8
:1050100028440D7800F5806707EB0514CD886D10E6
:105020006D00258000BF00BF0C78640032F81400CA
:1050300000F040048CB100BF0D786D0032F81550BF
:1050400048F68F7705EA070444F4004545F0C005AB
:105050000F787F0022F8175000BF00BFC8780128E2
:1050600013D000BF0C78640032F8144048F6BF75C6
:1050700004EA050080F0200040F4004444F080047D
:105080000D786D0022F815409EE100BF0C78640099
:1050900032F8144048F6BF7504EA050040F40044B5
:1050A00044F080040D786D0022F815408CE100BFBB
:1050B0001046B2F8505028440D78042707EBC50578
:1050C00000F5806707EB4504CD886D106D002580E5
:1050D00000BF00BF1546B2F8504025440C780627A3
:1050E00007EBC40405F5806707EB4404204600BFC6
:1050F0000F6967B9078848F2FF3C07EA0C0700E030
:1051000057E00780078847F4004707801EE00F69D3
:105110003E2F0DD800BF0F697C080F7C07F00107F8
:1051200007B1641C4FF6FF7707EA842707800DE07C
:1051300000BF0F697C090F7C07F01F0707B9641EC9
:105140004FF4004747EA8427078000BF00BF00BF35
:1051500000BF0C78640032F8140000F480448CB175
:1051600000BF0D786D0032F8155048F68F7705EACC
:10517000070444F4004545F481450F787F0022F888
:10518000175000BF00BF00BF0C78640032F8144015
:105190004BF68F7504EA050080F4805080F40050CF
:1051A00040F4004444F080040D786D0022F815406E
:1051B0000AE100BF0C78640032F8144048F68F759D
:1051C00004EA050040F4004444F4C0740D786D0016
:1051D00022F8154000BF00BF00BF00BF1046B2F864
:1051E000505028440D7800F5806707EB05140D89B1
:1051F0006D106D00258000BF00BF00BF00BF1046CE
:10520000B2F8505028440D78042707EBC50500F587
:10521000806707EB45044D896D106D00258000BF48
:1052200000BF00BF487800285DD100BF0C78640043
:1052300032F8140000F480448CB100BF0D786D008A
:1052400032F8155048F68F7705EA070444F4004514
:1052500045F481450F787F0022F8175000BF00BF4A
:1052600000BF0C78640032F8140000F040048CB1E8
:1052700000BF0D786D0032F8155048F68F7705EABB
:10528000070444F4004545F0C0050F787F0022F87C
:10529000175000BF00BF00BF0C78640032F8144004
:1052A0004BF68F7504EA050080F4805080F40050BE
:1052B00040F4004444F080040D786D0022F815405D
:1052C00000BF00BF0C78640032F8144048F6BF7588
:1052D00004EA050040F4004444F080040D786D00B9
:1052E00022F8154070E000BF0C78640032F814001A
:1052F00000F480448CB100BF0D786D0032F8155079
:1053000048F68F7705EA070444F4004545F48145E3
:105310000F787F0022F8175000BF00BF00BF0C7845
:10532000640032F8140000F040048CB100BF0D7826
:105330006D0032F8155048F68F7705EA070444F4FB
:10534000004545F0C0050F787F0022F8175000BFD8
:1053500000BFC878012813D000BF0C78640032F871
:10536000144048F6BF7504EA050080F0200040F4C0
:10537000004444F080040D786D0022F8154011E0DF
:1053800000BF0C78640032F8144048F6BF7504EA98
:10539000050040F4004444F080040D786D0022F8CC
:1053A000154000BF00BF0C78640032F814404BF683
:1053B0008F7504EA050040F4004444F080040D7841
:1053C0006D0022F8154000BF3046F0BD10B5044610
:1053D000002010BD30B50246087B00285BD148781C
:1053E00060B300BF0B785B0032F8130000F040039D
:1053F0008BB100BF0C78640032F8144048F68F750A
:1054000004EA050343F4004444F0C0040D786D0041
:1054100022F8154000BF00BF00BF0B785B0032F8D8
:10542000133048F6BF7403EA040040F4004343F02D
:1054300080030C78640022F8143007E100BF0B7879
:105440005B0032F8130000F480438BB100BF0C788E
:10545000640032F8144048F68F7504EA050343F4FB
:10546000004444F481440D786D0022F8154000BFDB
:1054700000BF00BF0B785B0032F813304BF68F741F
:1054800003EA040040F4004343F080030C78640016
:1054900022F81430DAE0487800286BD100BF0B788E
:1054A0005B0032F8130000F480438BB100BF0C782E
:1054B000640032F8144048F68F7504EA050343F49B
:1054C000004444F481440D786D0022F8154000BF7B
:1054D00000BF00BF0B785B0032F8130000F0400300
:1054E0008BB100BF0C78640032F8144048F68F7519
:1054F00004EA050343F4004444F0C0040D786D0051
:1055000022F8154000BF00BF00BF0B785B0032F8E7
:10551000133048F68F7403EA040040F4004343F06C
:10552000C0030C78640022F8143000BF00BF0B7871
:105530005B0032F813304BF68F7403EA040040F43A
:10554000004343F080030C78640022F8143000BF5D
:1055500000BF0B785B0032F8133048F6BF7403EAE3
:10556000040040F4004343F080030C78640022F808
:1055700014306BE000BF0B785B0032F8130000F4CE
:1055800080438BB100BF0C78640032F8144048F6B9
:105590008F7504EA050343F4004444F481440D7814
:1055A0006D0022F8154000BF00BF00BF0B785B0004
:1055B00032F8130000F040038BB100BF0C78640098
:1055C00032F8144048F68F7504EA050343F40044AA
:1055D00044F0C0040D786D0022F8154000BF00BFF4
:1055E00000BF0B785B0032F8133048F68F7403EA83
:1055F000040040F4004343F481430C78640022F833
:10560000143000BF00BF0B785B0032F8133048F64F
:10561000BF7403EA040040F4004343F080030C78B5
:10562000640022F8143000BF00BF0B785B0032F832
:1056300013304BF68F7403EA040040F4004343F048
:1056400080030C78640022F8143000BF002030BDC5
:1056500001460020704701460020704710B50446FF
:10566000012024F8400F00202080A0802082403CB0
:1056700010BD01464FF43F42B1F840009043A1F8FD
:1056800040000020704702460020704730B50246B7
:10569000087B002865D1487888B300BF0B785B0091
:1056A00032F8130000F040038BB100BF0C786400A7
:1056B00032F8144048F68F7504EA050343F40044B9
:1056C00044F0C0040D786D0022F8154000BF00BF03
:1056D000C878012845D000BF0B785B0032F8133042
:1056E00048F6BF7403EA040080F0200040F4004351
:1056F00043F080030C78640022F8143031E0FFE7B7
:1057000000BF0B785B0032F8130000F480438BB1CC
:1057100000BF0C78640032F8144048F68F7504EA34
:10572000050343F4004444F481440D786D0022F8ED
:10573000154000BF00BF00BF0B785B0032F813308C
:105740004BF68F7403EA040080F4805080F400501C
:1057500040F4004343F080030C78640022F81430D6
:1057600000BF002030BD10B50246487898B100BF98
:105770000B785B0032F8133048F6BF7403EA04007C
:1057800080F0100040F4004343F080030C78640084
:1057900022F8143013E000BF0B785B0032F81330AE
:1057A0004BF68F7403EA040080F4805040F4004309
:1057B00043F080030C78640022F8143000BF00200E
:1057C00010BD2DE9F04706460C466078012876D1D9
:1057D0002169A069884201D9256900E0A569207B7B
:1057E000A0B9ABB2E2883046616900F036FD00BF77
:1057F0003046B6F8502010442278022303EBC20250
:1058000000F5806303EB42010D80BBE2E0780228E3
:105810007DD12169206A88427AD900BF2178490068
:1058200036F8111048F68F7201EA020040F4004188
:1058300041F4C0712278520026F8121000BF206A8D
:10584000401B20622078400036F8100000F0400035
:1058500000287DD000BF3346607888BB00BF324649
:10586000B6F850100A4421784FF0060909EBC1013F
:1058700002F5806909EB4101084600BF75B9B0F82F
:10588000009048F2FF3A09EA0A09A0F80090B0F83F
:10589000009049F40049A0F8009021E03E2D10D876
:1058A00000BF690805F00109B9F1000F00D0491CDB
:1058B0004FF6FF7909EA8129A0F8009010E077E21D
:1058C00010E000BF690905F01F09B9F1000F00D110
:1058D000491E4FF4004949EA8129A0F8009000BF11
:1058E00000BF0FE0607801280CD1B6F850000344E7
:1058F0002078062101EBC00003F5806101EB400C2C
:10590000ACF8005000BF6789ABB23A4601E057E1FE
:105910002CE13046616900F0A0FC606928446061B8
:105920002169206A884203D9206A401B206202E074
:10593000256A0020206200BF6078C0BB00BF3246ED
:10594000B6F850100A442178022303EBC10100E0AD
:1059500049E002F5806303EB4101084600BF55B9F9
:10596000038848F2FF3C03EA0C030380038843F4F6
:105970000043038019E03E2D0BD800BF690805F0F5
:10598000010303B1491C4FF6FF7303EA812303802F
:105990000BE000BF690905F01F0303B9491E4FF46E
:1059A000004343EA8123038000BF00BF12E0FFE70A
:1059B000607801280ED100BF3046B6F85020104460
:1059C0002278022303EBC20200F5806303EB42015D
:1059D0000D8000BF00BF2789ABB23A4630466169EF
:1059E00000F03BFCCEE100BF6078B0BB00BF3246A8
:1059F000B6F850100A442178022303EBC10102F5E6
:105A0000806303EB4101084600BF55B9038848F2A3
:105A1000FF3C03EA0C030380038843F40043038044
:105A200019E03E2D0BD800BF690805F0010303B152
:105A3000491C4FF6FF7303EA812303800BE000BF8C
:105A4000690905F01F0303B9491E4FF4004343EAF7
:105A50008123038000BF00BF12E0FFE760780128C8
:105A60000ED100BF3046B6F85020104422780223F1
:105A700003EBC20200F5806303EB42010D8000BF1F
:105A800000BF2789ABB23A463046616900F0E5FBBA
:105A90006069284460612169206A884203D9206ACC
:105AA000401B206202E0256A0020206200BF3346CE
:105AB000607880BB00BF3246B6F850100A442178A7
:105AC0004FF0060909EBC10102F5806909EB4101BC
:105AD000084600BF75B9B0F8009048F2FF3A09EAED
