:020000040800F2
:10000000A02F002099010008AF2600083523000822
:10001000AD260008E9070008CD42000800000000F6
:1000200000000000000000000000000001010008C6
:100030005D0800080000000045010008AD29000827
:10004000B3010008B3010008B3010008B3010008C0
:10005000B3010008B3010008B3010008B3010008B0
:10006000B3010008B3010008B3010008B3010008A0
:10007000B3010008B3010008B3010008B301000890
:10008000B3010008B3010008B301000801420008F1
:100090000D420008B3010008B3010008B3010008D5
:1000A000B3010008412A0008B3010008B3010008A9
:1000B000B30100084D2A0008592A0008B3010008BE
:1000C000B3010008B3010008B3010008B301000840
:1000D000B3010008B3010008B3010008B301000830
:1000E000B3010008B3010008B3010008DFF80CD029
:1000F00000F098FA00480047414D0008A02F00206A
:10010000224B19680868B0E8F00F80F30988BFF344
:100110006F8F4FF0000080F311884EF00D0E704786
:100120000000000006480068006880F3088862B696
:1001300061B6BFF34F8FBFF36F8F00DF00BF00BF0B
:1001400008ED00E0EFF30980BFF36F8F0F4B1A68E3
:1001500020E9F00F106008B54FF0500080F31188CF
:10016000BFF34F8FBFF36F8F05F042FD4FF00000DC
:1001700080F31188BDE8084019680868B0E8F00FFE
:1001800080F30988BFF36F8F704700BF980000208D
:10019000EFF3058070470000064880470648004797
:1001A000FEE7FEE7FEE7FEE7FEE7FEE7FEE7FEE727
:1001B000FEE7FEE73D2A0008ED000008202A04DBE8
:1001C000203A21FA02F00021704721FA02F3D040D0
:1001D000C2F12002914008431946704740EA0103EA
:1001E0009B0703D009E008C9121F08C0042AFAD2ED
:1001F00003E011F8013B00F8013B521EF9D27047B1
:10020000D2B201E000F8012B491EFBD27047002258
:10021000F6E710B513460A4604461946FFF7F0FF05
:10022000204610BD30B50B46014600202022012497
:1002300009E021FA02F59D4205D303FA02F5491BB4
:1002400004FA02F52844151EA2F10102F1DC30BDCA
:100250002DE9F05F0546002092469B4688460646FB
:10026000814640241BE02846414647462246FFF788
:10027000A5FF53465A46C01A914110D3114618465D
:10028000224600F0E1F92D1A67EB01084F4622469D
:100290000120002100F0D8F917EB00094E41201E83
:1002A000A4F10104DFDC484631462A464346BDE856
:1002B000F09F2DE9FE4F804681EA0300C00F0C46F7
:1002C000009021F0004123F00045B8EB0200A94165
:1002D00005D24046214690461C460B46024623F076
:1002E0000040104347D0270DC7F30A00C3F30A515B
:1002F0000290401A019040286BDAC3F3130040F4D7
:10030000801B0098924620B10023D2EB030A63EBD6
:100310000B0B01985946C0F14002504600F094F989
:1003200006460D4650465946019A00F09CF910EBDE
:1003300008006141002487EA115284EAE7731A43F6
:1003400040D0009A62B3019A012A4FEA075215DCA5
:10035000001B61EB02014FF0004202EA0752CDE9B7
:100360000042001C41F5801132462B4600F09CF9FA
:1003700003B0BDE8F08F40462146F9E7001B61EB72
:100380000201001C41F5801300185B412018A2F502
:10039000001747EB030140EAD570B6196D4111E033
:1003A0006D084FEA360645EAC0754FEA0752001B52
:1003B00061EB0201001C41F5801149084FEA300051
:1003C0000019514132462B4603B0BDE8F04F00F012
:1003D0005CB90098012240000023D0EB020263EBDD
:1003E000E073009821464FEAE074B8EB000061EB3F
:1003F0000401E9E783F000435BE781F0004158E73F
:100400002DE9FE4F81EA030404F0004421F000418D
:1004100000944FF0000B23F0004350EA01045ED03B
:1004200052EA03045BD0C3F30A54C1F30A552C44C7
:10043000A4F2F3340194A0FB0254C1F3130141F47C
:100440008011C3F3130343F4801301FB024400FB48
:10045000034E840A970A44EA815447EA8357A4FB6F
:10046000076802958D0A05FB07854FEA932C04FB6C
:100470000C542705029D4FEA065847EA1637B5EB9C
:1004800008056EEB070C870E920E47EA811742EAC9
:100490008312A7FB0201B6EB0B0164EB00042B0DEA
:1004A00043EA0C335E1844EB1C50DA465146E7FB36
:1004B0000201C5F313044FEA0B3343EA14534FEA26
:1004C0000432019C43EA0603A4F10C040294009C4C
:1004D000CDE900B400F0E8F803B0BDE8F08F0020EB
:1004E0000146F9E72DE9F04D81EA030404F0004BE1
:1004F00021F0004514464FF0000A23F0004150EA75
:10050000050220D054EA01021DD0C5F30A57024665
:10051000C5F31303C1F31300C1F30A5640F4801569
:1005200043F48013A7EB0608101BD64608F2FD38EB
:1005300073EB050002D308F1010801E092185B415A
:10054000B8F1000F03DA00200146BDE8F08D00206D
:100550004FF48011064684460EE0171B73EB050727
:1005600005D3121B63EB050306434CEA010C490853
:100570004FEA300092185B4150EA0107EDD152EA90
:10058000030012D082EA040083EA0501084305D083
:10059000101BAB4106D20122002306E000224FF0DF
:1005A000004302E06FF0010253101AEB06004CEB1F
:1005B000085110EB0A0041EB0B01BDE8F04D00F0D3
:1005C00064B8C1F30A52C1F3130140F2FF3341F49E
:1005D00080119A4202DA00200146704740F233430C
:1005E0009A42A2F2334202DC5242FFF7E7BD00F02A
:1005F0002BB8000030B5041E71F1000404DB4FF08D
:100600000044404264EB0101141E73F1000405DB59
:100610001C464FF00043524263EB0403994208BF6B
:10062000904230BD064C074D06E0E06840F0010303
:1006300094E8070098471034AC42F6D3FFF75AFD10
:100640001468000834680008202A04DB203A00FA05
:1006500002F1002070479140C2F1200320FA03F319
:10066000194390407047202A06DBCB17203A41FA05
:1006700002F043EAE07306E041FA02F3D040C2F12F
:100680002002914008431946704710B5141E73F1BB
:10069000000408DA401C41F1000192185B411A4342
:1006A00001D120F0010010BD2DE9F04D92469B468E
:1006B00011B1B1FA81F202E0B0FA80F22032904634
:1006C000FFF7C2FF04460F4640EA0A0041EA0B0169
:1006D00053465A46084313D0114653EA010019D035
:1006E000C8F140025046FFF769FD05460E465046E8
:1006F00059464246FFF7A8FF084305D0012004E011
:1007000020463946BDE8F08D0020054346EAE076F4
:100710002C4337430A986305E40AA0EB0800002243
:10072000FD0A44EA47540A3002D500200146E9E7B1
:10073000010510196941DDE9084500196941BDE865
:10074000F04DA2E770B58C1810F8015B15F00703A7
:1007500001D110F8013B2A1106D110F8012B03E05A
:1007600010F8016B01F8016B5B1EF9D12B0705D462
:100770000023521E0DD401F8013BFAE710F8013BAB
:10078000CB1A921C03E013F8015B01F8015B521EC7
:10079000F9D5A142D8D3002070BD000070B5044641
:1007A00000688168C943C9071CD1816821F0010133
:1007B000816000F08FFA05460FE000BF00F08AFA72
:1007C000401B022809D9A06A40F01000A062E06A2C
:1007D00040F00100E062012070BD20688068C043E5
:1007E000C007EBD0002070BDFEE70020704700205E
:1007F0007047000010B500220449054802F0ECFAE9
:100800000449034802F0E2FA002010BDD40C002095
:1008100028040020EC08002010B50146034802F02F
:10082000D5FA024802F0B6FA002010BD28040020D4
:10083000094A10B5D2F8B822D2F814220AB1012020
:1008400010BD0A460146044802F0C6FABDE8104051
:10085000014802F01FBB00002804002070477047C9
:10086000F8B50024009490F824202546012A12D0DF
:10087000012280F824204A681F23072A0DD2066827
:10088000776B521E02EB820293409F430B689340AA
:100890001F43776319E00220F8BD06680D2A0AD2CB
:1008A000376BD21F02EB820293409F430B68934049
:1008B0001F43376309E0F76A0D3A02EB8202934067
:1008C0009F430B6893401F43F7620A68072306683B
:1008D0000A2A0AD3F7680A3A02EB420293409F437E
:1008E0008B6893401F43F76008E0376902EB4202D0
:1008F00093409F438B6893401F4337610A68102AD7
:1009000001D0112A20D1124B02689A4217D1936864
:100910001B0219D4936843F40003936009681029FB
:1009200012D10C490C4A0968B1FBF2F101EB8101CB
:10093000490000E0491E00910029FBD104E0816AD2
:1009400041F020018162012480F824502046F8BD46
:10095000002401409400002040420F002DE9F041A6
:100960004FF0000704003D467ED0A06A002628B95B
:10097000E66284F82460204600F07EF82046FFF707
:100980000DFFA16AC90600D420B1A06A40F0100092
:10099000A06269E0A16A21F4885141F00201A162DC
:1009A0006268E169237B0A4347EA43010A43A1687D
:1009B0004FF48077B94209D0012907D05FF00001D8
:1009C00094F814C0BCF1010F02D00AE03946F7E7F1
:1009D000F3B1A36A43F02003A362E36A43F0010387
:1009E000E3622368D3F804C02CF4694C4CEA010C90
:1009F000C3F804C021688B68DFF870C003EA0C03F9
:100A000013438B60A168B9420BD0012909D00CE0D7
:100A1000DFF85CC0A3690CEB43330B4343F4006184
:100A2000DFE7218A0D05A5F580152168CB6A23F43F
:100A300070032B43CB62216889680E4B19409142A9
:100A400008D1E662A16A21F0020141F00101A16230
:100A5000BDE8F081A06A20F0020040F01000A06222
:100A6000E06A40F00100E0620120F1E7FDF7E1FFFC
:100A700000E0FFFFFE0E1FFF00B585B000210091D2
:100A800001910291039100680E49884218D10E48E5
:100A9000816941F400718161816901F400710491FF
:100AA000816941F0040181618069694600F00400B8
:100AB00004901020009003200190044800F008F8F2
:100AC00005B000BD002401400010024000080140B4
:100AD0002DE9F84FDFF8B891002409F1040A0AF172
:100AE000040B23460F270BF1040EC9E00125A54096
:100AF0002A40AA427DD1674ED1F804C0ACEB06086B
:100B0000B44532D014DCBCF1030F3AD009DCBCF19F
:100B1000000F2AD0BCF1010F1CD0BCF1020F31D163
:100B20001DE0BCF1110F17D0BCF1120F2AD119E052
:100B3000B8F5881F19D006DCB8F5803F15D0B8F598
:100B4000801F1FD111E0B8F5001F0ED0B8F5041FAB
:100B500018D10AE0CB6815E0CB681B1D12E0CB680A
:100B600008330FE0CB680C330CE08B682BB1012B02
:100B70004FF0080303D0456104E0042302E005615F
:100B800000E00023FF2A01D8064601E000F1040638
:100B90004FEA840501D9A5F12005D6F8008007FAAF
:100BA00005FC28EA0C0803FA05F548EA0508C6F82A
:100BB00000804D68ED0062D5374DAE6946F0010604
:100BC000AE61AD6924F0030605F001050095334DD3
:100BD00006EB050CDCF80850A607360F07FA06F8F6
:100BE00025EA0805DFF8B880404503D14FF000083A
:100BF00017E044E0DFF8AC80404502D14FF0010837
:100C00000FE0DFF8A480404502D14FF0020808E071
:100C1000DFF89880404502D14FF0030801E04FF023
:100C2000040808FA06F848EA0508CCF808804D6878
:100C3000D9F80060ED034D4601D5164300E0964318
:100C40002E604D68DAF80060AD03554601D51643B5
:100C500000E096432E604D68DBF80060ED025D46D3
:100C600001D5164300E096432E604D68DEF8006023
:100C7000AD02754601D5164300E096432E60641C14
:100C80000D682A46E5407FF431AFBDE8F88F0000DB
:100C9000000401400000111000100240000001405B
:100CA00000080140000C0140001001400014014008
:100CB0008068084000D001207047C26821EA020322
:100CC0000A4043EA0241016170470AB1016170477D
:100CD0000904FBE701488068704700008800002095
:100CE00002488168027811448160704788000020C2
:100CF000074810B5016841F010010160032000F0C1
:100D000095F8002000F006F800F03EF8002010BD35
:100D10000020024000B5014687B00022192000F0F3
:100D200065F8192000F054F81348816941F4006116
:100D30008161806905A900F400600690684600F0B2
:100D4000E1FD00F00FFE0D490D4AB0FBF1F10D4839
:100D5000491E0260416040F2E7320021C0E90321F0
:100D6000816001F093F810B1012007B000BD054883
:100D700001F0ECF8F9E700000010024040420F00DB
:100D8000002C0140E00300200F4808B5816941F0C4
:100D900001018161816901F001010091C16941F0A6
:100DA0008051C161C069002200F0805000900F2185
:100DB000901E00F01BF80548416821F0E06141F009
:100DC0000071416008BD00000010024000000140B9
:100DD000002809DB00F01F0201219140400980003A
:100DE00000F1E020C0F8001170470000F0B40E4B95
:100DF0001B680C46C3F30223C3F10705042D00D979
:100E00000425191D072901D2002300E0DB1E01265D
:100E100006FA05F1491E214099409E40761E164073
:100E20003143F0BC03F06ABA0CED00E0064900F073
:100E3000070208684FF6FF03184040EA0220034A01
:100E400010430860704700000CED00E00000FA0558
:100E500010B50C0607D501F0070101EB810100EB8D
:100E6000C100283005E001EB810100EBC10000F575
:100E7000B47099B232B1012202730181190C41811F
:100E8000002010BD00220273C180F9E7704701EB1A
:100E9000810200EBC202D0F8E802D26B02F0ABB9DB
:100EA00001EB810200EBC202D0F8E802D2F87C210B
:100EB00002F004BA70B504460B0601F0070000EB1F
:100EC000800104EBC1014FF001024FF0000503D592
:100ED00081F82920283103E081F8695101F5B471C6
:100EE000087094F8A802012808D084F8A822206885
:100EF00002F024FE84F8A852002070BD022070BDCC
:100F000070B5044601F00F006268904201D90120DB
:100F100070BD0B0601F0070000EB800104EBC1017E
:100F20004FF001024FF0000503D581F82920283148
:100F300003E081F8695101F5B4718D70087094F87F
:100F4000A802012808D084F8A822206802F093FEA5
:100F500084F8A852002070BD022070BD2DE9F05F1A
:100F600004685FEA424C0B788D69B4F850C04FF0CA
:100F700000064BF68F7948F2800A48F68F7B48F2DC
:100F8000C00E4FF480672AD54FF0020808EBC30863
:100F9000C44407EB4C07E45BC4F30904A54203D344
:100FA0002D1B8D6101D00BE08E61066836F8235051
:100FB00005EA090585F4005545EA0A0526F8235097
:100FC000520609D50D78036833F8252002EA0B0292
:100FD00042EA0E0223F8252084B30A8929E04FF063
:100FE000060808EBC308C44407EB4C07E45BC4F3F2
:100FF0000904A54203D32D1B8D6101D00BE08E6146
:10100000066836F8235005EA090585F4005545EAD7
:101010000A0526F82350520609D40B78056835F8DE
:10102000232002EA0B0242EA0E0225F823202CB10B
:101030004A8949690068234603F0F2F82046BDE872
:10104000F09F2DE9F05F05460C4600685FEA426CB0
:1010500016462278A369B0F850C04FF0000148F658
:101060008F774CF280094FF6FF7B4FF4004E4FF420
:10107000806A6CD54FF0020808EBC208E0440AEB26
:10108000480C30F80C00C0F30900834211D91B1A38
:10109000A3610FD0730407D52E6836F822303B4089
:1010A00043EA090326F8223094F82420012A08D0C4
:1010B000C6E0A16111462846FFF7E9FE70046CD432
:1010C000BEE0626902446261E2690244E26123694E
:1010D000226A9A4202D31846111A03E084F82410B7
:1010E0000AB110462162617811B1012923D02BE0A9
:1010F0002968B1F850201144227801EB021101F265
:10110000044148B13E280FD84208C30700D0521C02
:101110000BEA82220A8017E00A8822F4F8420A8049
:101120000A8842F40042F5E74209C30600D1521E84
:101130004EEA8222EEE72968B1F850201144227865
:1011400001EB0211A1F8040483B2228974E04FF08C
:10115000060808EBC208E0440AEB480C30F80C0023
:10116000C0F30900834211D31B1AA3610FD073048B
:1011700007D42E6836F822303B4043EA090326F8AC
:10118000223094F82420012A11D059E0A16111469F
:101190002846FFF77CFE700452D42278296831F883
:1011A0002200384040EA090021F8220048E0626944
:1011B00002446261E2690244E2612369226A9A425E
:1011C00003D31846111A216204E00AB110462162C5
:1011D00084F824106278296812B1012A22D029E00B
:1011E000B1F850201144227801EB021101F20C41B8
:1011F00048B13E280FD84208C30700D0521C0BEA62
:1012000082220A8016E00A8822F4F8420A800A88BC
:1012100042F40042F5E74209C30600D1521E4EEAED
:101220008222EEE7B1F850201144227801EB02113E
:10123000A1F80C04628983B26169286803F00EF892
:101240002278296831F8220048F6BF73184080F0F0
:10125000300048F28003184321F822000020BDE846
:10126000F09F01F0070101EB810100EBC100D0F814
:10127000840170472DE9F04104460F0601F0070094
:1012800000EB800104EBC1014FF001064FF00005B7
:1012900003D581F82960283103E081F8695101F50F
:1012A000B47108700A61CB704A7802B1C881022B10
:1012B00000D10D7194F8A802012809D084F8A86221
:1012C000206802F00DFB284684F8A852BDE8F081A2
:1012D0000220FBE770B50C4601F0070505EB850120
:1012E00000EBC101C1E95F230022C1F8842181F82C
:1012F000692181F8685101F5B4716207006802F054
:101300000FFD002070BD70B504460D4601F00700CA
:101310006168884201D9012070BD29064FF000069E
:101320004FF0010207D500EB800104EBC10181F809
:101330002920283107E005EB850104EBC10181F884
:10134000696101F5B4718A70087094F8A8020128E7
:1013500007D084F8A822206802F0C9FC680702D0F0
:1013600006E0022070BD04F52C71206802F081FCBB
:1013700084F8A862002070BD70B50C4601F0070526
:1013800005EB850100EBC101C1E90F23012281F8C2
:101390004C208B6400234B6481F8292001F8285FDE
:1013A0006207006802F0BCFC002070BD1FB5044657
:1013B000006802F031FF000402D5204601F078F900
:1013C000206802F029FF40050CD5206830F8441F42
:1013D00021F480610180204600F026F9002120469A
:1013E00000F03DF9206802F017FF400405D52068A1
:1013F00030F8441F21F480410180206802F00CFF86
:10140000800405D5206830F8441F21F40051018084
:10141000206802F001FFC00414D5206830F8401F96
:1014200021F004010180206830F8401F21F00801FC
:101430000180204600F00BF9206830F8441F21F4A9
:1014400080510180206802F0E7FE00053ED5226849
:101450000020694632F8203021F81030401CC0B21C
:101460000828F7D332F8400F40F0010010802068C0
:1014700030F8402F22F0010202802068B0F84420AA
:101480005205FBD530F8442F22F480620280002000
:10149000236831F8102023F82020401CC0B208280F
:1014A000F6D3206830F8401F41F008010180206821
:1014B00030F8441F21F400610180206830F8401F9B
:1014C00041F004010180204600F0FEF8206802F09F
:1014D000A3FE800508D5206830F8441F21F4007170
:1014E0000180204600F0B7F8206802F095FEC005A4
:1014F00005D5206830F8441F21F4807101801FBD9C
:101500002DE9F04186B0040004D094F8A90200252A
:1015100020B108E0012006B0BDE8F08184F8A852AF
:10152000204600F05BF8032084F8A902206802F04E
:1015300099FB04F11001142288466846FEF74EFE1E
:1015400094E80F0002F0F8FA0226D0BB00212068D0
:1015500002F07CFE002001270FE000BF00EB8001BD
:1015600004EBC10181F8297001F8280FC881CD7002
:101570000D614D61401CC0B28D6161688142EDD842
:10158000002011E000EB800104EBC10181F86951FA
:1015900081F8680181F86B51C1F87851C1F87C512C
:1015A000401CC0B2C1F8805161688142EAD814225F
:1015B00041466846FEF712FE94E80F0002F049FB30
:1015C00010B184F8A962A5E784F8245084F8A972C0
:1015D000206802F03CFB00209DE7000008B5006891
:1015E0000F4988421AD10F48C16941F40001C16115
:1015F000C069002200F40000009005211320FFF7CD
:10160000F5FB1320FFF7E4FB002205211420FFF770
:10161000EDFBBDE808401420FFF7DABB08BD000071
:10162000005C00400010024070B50446806801254F
:10163000022801D0FFF713F92946D4F8E80201F097
:1016400026FFD4F8E802BDE8704001F0E2BED0F811
:10165000E80201F006BFD0F8E80201F00CBF10B5B7
:10166000044690F8A80201280BD0012084F8A802B3
:1016700084F82410206802F0EBFD002084F8A80212
:1016800010BD022010BDD0F8E82200F52C711046E4
:1016900001F009BF10B5044690F8A802012810D047
:1016A000012084F8A802206802F0A1FD0121204653
:1016B000FFF7ECFB206802F0C8FA002084F8A802CB
:1016C00010BD022010BD000010B50446D0F8E8029D
:1016D00001F028FFA069002804D00348016841F008
:1016E0000601016010BD000010ED00E02DE9F84397
:1016F00005460078354CC00754D0E0690026C0008C
:1017000008D4E06940F08050E061E069012600F013
:10171000805000902E480168C90512D401688046A7
:1017200041F480710160FFF7D5FA074605E000BF7C
:10173000FFF7D0FAC01B642823D8D8F80000C005F2
:10174000F6D5206A10F4407021D0A98801F44071C8
:1017500081421CD0206A1F49012220F440700A6097
:1017600000220A602062C00711D0FFF7B3FA0746D3
:1017700041F2883808E000BFFFF7ACFAC11B4145D1
:1017800002D90320BDE8F883206A8007F4D5206AD7
:10179000696820F44070084320621EB1E06920F0BF
:1017A0008050E0612878800705D56068A96820F43A
:1017B0004040084360602878C00605D56068E96845
:1017C00020F48000084360600020DBE70010024046
:1017D00000700040400442422DE9F0470F460500EA
:1017E00061D0434E306800F00700B84209D230683B
:1017F00020F0070038433060306800F00700B8423E
:1018000051D128683B4C810712D5400703D5606849
:1018100040F4E06060602878000703D5606840F419
:10182000605060606068A96820F0F0000843606064
:101830002878C00728D06868012810D021680228BD
:1018400010D0890700292EDA616821F003010143D5
:101850006160FFF73FFA804641F288390DE0216868
:101860008903EFE78901EDE7FFF734FAA0EB080100
:10187000494502D90320BDE8F0876068696800F037
:101880000C00B0EB810FEFD1306800F00700B842D8
:101890000BD9306820F0070038433060306800F022
:1018A0000700B84201D00120E5E72878400705D5B8
:1018B0006068E96820F4E060084360602878000709
:1018C00006D56068296920F4605040EAC100606074
:1018D00000F058F86168084AC1F30311515CC84030
:1018E0000649086006480068FFF714FA0020C2E7BE
:1018F0000020024000100240986700089400002079
:101900008C0000200F2202600C4A536803F003038E
:101910004360536803F0F0038360536803F4E063AB
:10192000C36052684FF4E06303EAD20202610448E4
:10193000006800F0070008607047000000100240D7
:10194000002002400448054900684968044AC1F380
:101950000221515CC84070479400002000100240F2
:10196000A86700080448054900684968044AC1F3AB
:10197000C221515CC8407047940000200010024012
:10198000A867000812A185B00FC98DE80F0014A048
:10199000144A006804905168134801F00C03042BAA
:1019A00010D0082B0ED1C1F38343C9031DF80300E7
:1019B0000AD5516804AAC1F34041515C0A4A504318
:1019C000B0FBF1F005B0704708494843FAE7000062
:1019D00002030405060708090A0B0C0D0E0F101070
:1019E000010200000010024000127A0000093D00D0
:1019F0002DE9F84F040070D02078C04DC00749D0C1
:101A00006868C0F38100012807D06868C0F38100CE
:101A1000022809D16868C00306D52868800339D533
:101A200060680028E7D035E06068B0F5803F0BD0F3
:101A300010B1B0F5A02F11D0286820F480302860B4
:101A4000286820F4802002E0286840F48030286074
:101A5000606890B1FFF73EF906460AE0286840F456
:101A600080202860F0E700BFFFF734F9801B64286E
:101A700073D828688003F7D50CE0FFF72BF90646EA
:101A800005E000BFFFF726F9801B6428F0D828681E
:101A90008003F7D420789A4E80074FF001094FF069
:101AA000000839D5686810F00C0F07D06868C0F3DB
:101AB0008100022809D16868C00306D4286880071D
:101AC00014D52069012808D110E02069B0B1C6F80A
:101AD0000090FFF7FFF8074605E00AE1FFF7FAF884
:101AE000C01B0228C4D828688007F7D52868616918
:101AF00020F0F80040EAC10028600DE0C6F8008040
:101B0000FFF7E8F8074604E0FFF7E4F8C01B0228F7
:101B100023D828688007F7D4207800072CD5794887
:101B2000A169D9B1C0F80090FFF7D4F8074604E0E6
:101B3000FFF7D0F8C01B02280FD8686A8007F7D5D6
:101B400071484FF4FA510068B0FBF1F0009000BF0B
:101B50000098411E0091FAD20EE080E0C0F80080AB
:101B6000FFF7B8F8074604E0FFF7B4F8C01B0228F7
:101B700075D8686A8007F7D42078400760D5E8698F
:101B80000027C00008D4E86940F08050E861E869A7
:101B9000012700F0805000905C480168C90513D40B
:101BA0000168834641F480710160FFF793F8824633
:101BB00006E000BFFFF78EF8A0EB0A0064284ED8BD
:101BC000DBF80000C005F5D5E06801280AD008B1AF
:101BD000052813D0286A20F001002862286A20F026
:101BE000040002E0286A40F001002862E06841F247
:101BF000883B98B1FFF76EF882460BE0286A40F008
:101C000004002862EEE700BFFFF764F8A0EB0A01CA
:101C100059455AD8286A8007F6D50CE0FFF75AF8DC
:101C2000824605E0FFF756F8A0EB0A0159454CD86B
:101C3000286A8007F6D41FB1E86920F08050E86177
:101C4000E06988B36968C1F38101022944D00228A0
:101C5000C6F8608004D0FFF73DF8044638E034E071
:101C6000FFF738F8074604E0FFF734F8C01B0228F6
:101C70002BD828688001F7D4206AB0F5803F05D1C1
:101C80006868A16820F4003008436860D4E908015E
:101C90000843696821F4741108436860C6F86090CD
:101CA000FFF718F8044606E025E000BFFFF712F83A
:101CB000001B022809D828688001F7D51BE000BF67
:101CC000FFF708F8001B022802D90320BDE8F88FAF
:101CD00028688001F4D40EE00128F7D06868226AF1
:101CE00000F48031914204D1616A00F4701088429E
:101CF00001D00120EAE70020E8E7000000100240E0
:101D000000004242800442429400002000700040E3
:101D100070B5040009D0606A002540B12561656195
:101D2000A56294F8510040B10CE0012070BD6068DC
:101D3000B0F5827FF4D0E561F2E784F85050204698
:101D400000F040F8022084F851002068016821F07A
:101D500040010160A088218900F4827001F40441EF
:101D60000843A18901F400610843217C01F00201CC
:101D70000843217D01F001010843218B01F400712A
:101D80000843217F01F03801084394F8201001F046
:101D900080010843218D01F4005108432168086047
:101DA000A069042101EA1040216848602068C169E7
:101DB00021F40061C1616565012084F851000020B3
:101DC00070BD000000B585B0002100910191029125
:101DD000039100680F4988421AD10F48816941F484
:101DE00080518161816901F480510491816941F0E0
:101DF000040181618069694600F004000490A0201C
:101E0000009002200190032003900448FEF760FE3A
:101E100005B000BD00300140001002400008014044
:101E20007047704770B590F83C20012A26D00124F5
:101E300080F83C40022280F83D2003685A689D6883
:101E400022F070060A6832435A600D4B02689A42CB
:101E500008D0B2F1804F05D00A4B9A4202D00A4B0B
:101E60009A4204D1496825F080031943916080F8B3
:101E70003D40002180F83C10084670BD022070BD36
:101E8000002C0140000400400008004010B5040090
:101E900003D094F83D0010B107E0012010BD0020F0
:101EA00084F83C00204600F01FF8022084F83D0032
:101EB000211D206800F0D6FD012084F8460084F83A
:101EC0003E0084F83F0084F8400084F8410084F824
:101ED000420084F8430084F8440084F8450084F804
:101EE0003D00002010BD000008B5154A01681548E6
:101EF00091420ED1C16941F00201C161C069002265
:101F000000F00200009005211D20FEF76FFF1D204C
:101F100010E00D4A914211D1C16941F00401C16143
:101F2000C069002200F00400009005211E20FEF789
:101F30005DFF1E20BDE80840FEF74ABF08BD000057
:101F400000040040001002400008004090F83D10DE
:101F5000012901D001207047022180F83D1001685D
:101F6000CA6842F00102CA6000680B49884208D082
:101F7000B0F1804F05D00949884202D00849884213
:101F800004D1816801F00701062903D0016841F0FE
:101F90000101016000207047002C01400004004056
:101FA0000008004070B5044690F83C00012817D0A6
:101FB000012584F83C50022084F83D0020688268A6
:101FC00022F0770222F47F4282600868502830D0E5
:101FD0000DDC20284DD005DC98B310283BD148E01B
:101FE000022070BD302844D0402834D139E0602828
:101FF00028D0702806D0B0F5805F2CD0B0F5005FF7
:1020000029D10AE0CB68D1E90121206800F060FD08
:102010002068816841F0770109E0CB68D1E90121AE
:10202000206800F055FD2068816841F4804181609E
:1020300011E0CA684968206800F05CFD5021206802
:1020400007E016E0CA684968206800F064FD602176
:10205000206800F047FD84F83D50002084F83C00E3
:1020600070BDCA684968206800F044FD40212068BE
:10207000EFE7226801461046EBE7704770B504466B
:10208000006801694FF00005C943890715D4C1688C
:10209000C943890711D4E91E016101202077206816
:1020A00080698007204602D0FFF7E7FF04E000F0D8
:1020B00098F8204600F096F8257720680169C94312
:1020C000490717D4C168C943490713D46FF0040105
:1020D0000161022020772068806910F4407F20464B
:1020E00002D0FFF7CAFF04E000F07BF8204600F0C2
:1020F00079F8257720680169C943090716D4C168B2
:10210000C943090712D46FF0080101610420207748
:102110002068C0698007204602D0FFF7AEFF04E0C8
:1021200000F05FF8204600F05DF82577206801692F
:10213000C943C90617D4C168C943C90613D46FF08F
:1021400010010161082020772068C06910F4407FE9
:10215000204602D0FFF791FF04E000F042F820464D
:1021600000F040F8257720680169C943C90708D104
:10217000C168C943C90704D1891E0161204600F026
:1021800033F820680169C943090609D4C168C94305
:10219000090605D46FF0800101612046FFF740FE7B
:1021A00020680169C943490609D4C168C943490681
:1021B00005D46FF040010161204600F02BF8206843
:1021C0000169C94389060BD4C168C943890607D48C
:1021D0006FF0200101612046BDE87040FFF721BE8D
:1021E00070BD70477047000010B50446006807498D
:1021F000884201D1FEF774FD05492068884203D169
:10220000BDE8104002F040BD10BD0000002C0140B0
:1022100000080040704770B5040004D094F83900FD
:10222000002510B106E0012070BD84F8385020462A
:1022300000F022F8242084F839002068C16821F4D5
:102240000051C160204600F079FC2068016921F44A
:10225000904101612068416921F02A0141612068B3
:10226000C16841F40051C160E563202084F8390061
:1022700084F83A00002070BD70B586B00024009448
:1022800001940294039403682648254E02210322F8
:102290000515B3421ED1836943F48043836183698A
:1022A00003F480430493836943F0040383618069EA
:1022B0001D4E00F0040004900802CDE900010392D5
:1022C00069463046FEF704FCCDE9005469463046C5
:1022D000029420E0154EB3421FD1C36943F480231A
:1022E000C361C36903F480230493836943F0080343
:1022F00083618069CDE9005100F00800CDE9032039
:102300000B4D69462846FEF7E3FBE814CDE90004CF
:10231000694628460294FEF7DBFB06B070BD00005C
:102320000038014000100240000801400048004011
:10233000000C0140FEE70000F0B500230A24302520
:1023400037261F4611E000BFB4EB107F02D905EB22
:10235000107C01E006EB107C01F813C001EB430C8C
:1023600000015B1C8CF80170DBB29342ECD3F0BD32
:102370003EB500211148009101910F4A029102607F
:1023800081600173017501244FF460220461C26110
:102390004160FEF7E3FA08B1FEF761FA0420CDE9E7
:1023A00000040720029069460448FEF759FA002805
:1023B00001D0FEF754FA3EBD00240140480200203F
:1023C00010B5144A2021052002F04EFD124C114A8E
:1023D00000212061903A114802F080FD0D4A2060F2
:1023E0006C3A00210E4802F079FD0A4A6060483AD2
:1023F00000210C4802F072FD064AA060243A002138
:10240000094802F06BFDE0600248183002F0CEFC93
:10241000606110BD7067000810000020814F000847
:1024200005580008FD570008054C000870B586B037
:10243000002423480094019402940394816941F09C
:1024400020018161816901F020010491816941F0DD
:1024500004018161816901F004010491816941F005
:10246000080181618069174E00F008000490002285
:1024700017213046FEF729FC01224FF4E041304697
:10248000FEF723FC4020CDE9000469460E48029483
:10249000FEF71EFB47F217000125CDE900050220DB
:1024A000CDE9024069463046FEF712FB60208DE818
:1024B000310069463046FEF70BFB06B070BD0000E8
:1024C00000100240000C014000080140114810B506
:1024D0000F4901604FF4827141604FF40041816007
:1024E0000021C1604FF400720161C0E90512302281
:1024F000C0E90721416281620A21C162FFF708FC3D
:10250000002803D0BDE81040FEF7A9B910BD0000B7
:10251000003001407802002010B586B00024174832
:102520000094019402940394049413490594016067
:102530006321C0E9011440F2CF21C0E90314846192
:10254000FFF7A4FC08B1FEF78AF94FF48050009021
:1025500069460A48FFF726FD08B1FEF780F90494A2
:1025600004A906480594FFF75DFC002801D0FEF79A
:1025700076F906B010BD000000040040D002002033
:1025800010B586B000241748009401940294039477
:1025900004941349059401604721C0E901146321A3
:1025A000C0E9031480218161FFF770FC08B1FEF7D8
:1025B00056F94FF48050009069460A48FFF7F2FC44
:1025C00008B1FEF74CF9049404A906480594FFF7F6
:1025D00029FC002801D0FEF742F906B010BD00002A
:1025E00000080040180300200C4810B50A4901609B
:1025F0004FF4E1314160002181600C22C160C0E9EB
:1026000004128161C161FFF706FE002803D0BDE816
:102610001040FEF724B910BD0038014060030020CF
:102620000C4810B50A4901604FF4E13141600021C6
:1026300081600C22C160C0E904128161C161FFF7B1
:10264000EAFD002803D0BDE81040FEF708B910BD30
:1026500000480040A003002010B500220F49104898
:1026600000F0A2FD08B1FEF7FAF80E490C4800F0A0
:102670007FFF08B1FEF7F3F80B49094800F09EFB15
:1026800008B1FEF7ECF8064800F0C8FF002803D0B8
:10269000BDE81040FEF7E3B810BD000028000020A0
:1026A00028040020EC01002078000020FEE770479D
:1026B0002DE9F84F044640F68F7B48F60F7A4FF02D
:1026C00002094FF4806868E1B0F8441011F00F0679
:1026D00038D030F8267039047ED530F8261001EA5B
:1026E0000B0141F0800120F8261006EB860004EB78
:1026F000C00595F8740105F5B47500286DD0E8782B
:1027000002286BD02A78216831F8220048F68F73AE
:10271000184048F2C003184321F8220029782068A5
:1027200030F82120B0F8503052047DD509EBC101BA
:102730005A1808EB4201415A8905890D009174D05D
:102740002A89D2E0C9062DD4018801EA0A0141F4A0
:1027500000410180206804F12805B0F850302A7843
:1027600009EBC2015A1808EB4201405AC0F30900B4
:102770006064E16B0844E06300212046FEF787FBBC
:1027800094F8240000289ED0A86900289BD194F8D2
:10279000240040F080012068A0F84C10002084F84C
:1027A0002400FAE0018804F5B4750A0521D5B0F8D3
:1027B00050302A78062101EBC2015A1808EB420179
:1027C000405A04F52C71C0F30903EB61EA882068D4
:1027D00001F026FD216802E0A2E062E072E00888D4
:1027E00000EA0B0040F0800008802046FEF74BFF17
:1027F000D3E00904D5D5018801EA0B0141F080013D
:1028000001802068B0F850202B78062101EBC3012D
:102810000A4408EB4201405A83059B0DEB6110D03E
:10282000696971B1EA8801E053E051E0206801F084
:10283000F7FCE96968690844686100212046FEF7F1
:102840002FFB2068B0F850100844296900F20C40B2
:1028500051B13E2910D84A08C90700D0521C4FF682
:10286000FF7101EA82210FE0018821F4F841018023
:10287000018841F4004107E04A09C90600D1521E0F
:102880004FF4004141EA82210180206801884BF623
:102890008F72114081F4405148F28002114301804F
:1028A0007BE02068B0F850102A78062303EBC202C0
:1028B0000A4408EB4201415A8905890D009118D05C
:1028C000EA8812E03A4629462046FEF747FB009088
:1028D0000FE0062202EBC1015A1808EB4201415AEF
:1028E0008905890D009104D06A896969009B01F00E
:1028F00097FCE96900980844E86169690098084410
:102900006861A86918B129690098814204D92978B9
:102910002046FEF7C5FA03E02946206801F000FAD8
:1029200038063AD5226806EB860004EBC00132F87F
:10293000260000EA0A0040F4004022F8260091F840
:102940002B002831022801D1F80522D42268B2F8E0
:1029500050300D7809EBC500034408EB4300105AD2
:102960008A69C0F3090082420CD9121A8A610BD01D
:102970004A6902444A61CA691044C861206801F08A
:10298000CFF90AE000208861E9B22046FEF77FFA1D
:1029900003E03A462046FEF754FB2068B0F84410A6
:1029A00009043FF591AE0020BDE8F88F10B5502026
:1029B00080F31188BFF34F8FBFF36F8F03F0AEFC2E
:1029C00018B104494FF080500860002080F311884E
:1029D00010BD000004ED00E030B593B0282168463A
:1029E000FDF715FC14210AA8FDF711FC00240120B5
:1029F0000F9410941194010412948DE81300049024
:102A00004FF4E010CDE90810022507956846FEF75F
:102A1000EFFF0F20CDE90A056802CDE90C40022145
:102A20000AA80E94FEF7D8FE12200F90A803CDE955
:102A300011040FA8FEF75AFE13B030BD7047000016
:102A40000148FFF71BBB0000E00300200148FFF72F
:102A500015BB0000D00200200148FFF70FBB0000AB
:102A600018030020F0B50268164B174C174D4FF0B5
:102A70008047984205D0B84203D0A04201D0A84276
:102A800003D122F070064A683243984205D0B8421A
:102A900003D0A04201D0A84203D122F44074CA68F6
:102AA00022434C6922F08002224302608A68C2629B
:102AB0000A688262984201D109690163012141617A
:102AC000F0BD0000002C0140000400400008004060
:102AD00010B5846842EA032224F47F440A43224367
:102AE000826010BD826822F070020A4342F0070142
:102AF0008160704710B5036A046A24F0010404621F
:102B0000846924F0F00444EA021423F00A020A4320
:102B10008461026210BD10B5036A23F010030362E2
:102B20008369046A23F4704343EA023224F0A00369
:102B300043EA01118261016210BD000070B50446D4
:102B400000680169E26821F4405111430161216983
:102B5000A0680843616908432168CA6841F20C63B0
:102B60009A430243CA6020684169A26921F4407116
:102B7000114341611E492068884202D1FEF7F2FEEE
:102B800001E0FEF7DFFE00EBC00101EB0012606820
:102B900064218000B2FBF0F3B3FBF1F36FF0180691
:102BA0007343B2FBF0F5B2FBF0F605EB830532237D
:102BB00003EB0515B5FBF1F5B6FBF1F605F0F005F5
:102BC00005EB0615B2FBF0F6B2FBF0F0B0FBF1F04E
:102BD0006FF01802504306EB800003EB0010B0FBCF
:102BE000F1F0216800F00F002844886070BD0000FB
:102BF000003801402DE9F041D0F8C032D0F8B822B9
:102C0000CAB101EB810500EB85040026E7693FB1FD
:102C100003EBC5039B6BB7FBF3F503FB157323B104
:102C2000C2F814620020BDE8F08100231A46E66174
:102C300000F081FCF6E70220F5E770B50546D0F814
:102C4000B84200F07CFBC4F80C02D5F8B80248B1D9
:102C5000D5F8BC12D4F80402CA6804F50371904791
:102C6000002070BD022070BD70B504460026812191
:102C700000F0B8FA002501212046E56200F0B2FA22
:102C800082212046C4F86C5100F0ACFA2564D4F8D7
:102C9000B80248B1D4F8BC0204F52E7440688047ED
:102CA000206800F018FE2560304670BD10B5D0E9F0
:102CB000AE4159B194F80002FF2807D08B6894F810
:102CC000012221469847FF2084F80002002010BD11
:102CD0000A2101800048704714010020432101802F
:102CE000004870476401002043210180004870477C
:102CF000200100204321018000487047A8010020E6
:102D00002DE9F04104460026007C4FF400770125B0
:102D100090B3402302228121204600F065FB40232E
:102D2000E56202220121204600F05EFB0823032217
:102D300082212046C4F86C5100F056FB4FF4077016
:102D4000256400F0C9FDC4F8B802F8B10546D4F80E
:102D5000BC02006880470020C5F81402C5F81802BC
:102D6000207CD5F8042298B140230121204600F0B0
:102D700047FB3046BDE8F081FFE73B460222812158
:102D8000204600F031FB3B46E562CAE70126F0E74A
:102D90003B46EAE710B5D0F8B81269B1027C002AC8
:102DA000D1F8042205D04023012100F029FB0020A6
:102DB00010BD4FF40073F7E7022010BD0246022059
:102DC000002902D00020C2F8BC127047D0F8B80227
:102DD000C0F8041200207047D0F8B802C0F81022E2
:102DE000C0F80812002070472DE9FC410546D0F8D4
:102DF000B87200208DF80000ADF80400064608788F
:102E00000C4610F0600121D020293BD1E288AAB104
:102E10000006607807D5D5F8BC128B68394698470C
:102E2000E288394626E087F80002A07987F8010297
:102E3000E2883946284600F06AF828E0D5F8BC1246
:102E4000607800228B682146984720E0607820B1A6
:102E50000A2809D00B2815D110E095F89C02032808
:102E600010D1022201A905E095F89C02032809D19E
:102E700001226946284600F064F808E095F89C02B3
:102E8000032804D02146284600F036F802263046B2
:102E9000BDE8FC8110B5D0F8B812A1B1D1F8142268
:102EA0000AB1012010BD0122C1F81422D1F810226C
:102EB0000263B1F8102293B2D1F80822812100F008
:102EC0003AFB002010BD022010BD10B5D0F8B4228E
:102ED00052689047002010BD134610B50A460021E5
:102EE00000F08EFA002010BD134610B50A460021EE
:102EF00000F021FB002010BD10B50446802100F039
:102F0000FFFA2046BDE81040002100F0F9BA10B5E4
:102F10000323C0F85C21C0F89432C0F86021134646
:102F20000A46002100F06CFA002010BD10B5052102
:102F30000023C0F894121A46194600F061FA0020E6
:102F400010BD10B50223C261C0F89432026213466C
:102F50000A46002100F0EFFA002010BD10B5042150
:102F60000023C0F894121A46194600F0E4FA002033
:102F700010BD000010B50A46024903A000F0E4F8B5
:102F8000004810BDEC06002043444320436F6E66AA
:102F90006967000012200880004870474800002040
:102FA00010B50A46024903A000F0CEF8004810BD53
:102FB000EC06002043444320496E746572666163E9
:102FC000650000000420088000487047440000208D
:102FD00010B50A46024903A000F0B6F8004810BD3B
:102FE000EC06002053544D6963726F656C65637421
:102FF000726F6E696373000010B50A46024903A040
:1030000000F0A2F8004810BDEC060020547970656D
:10301000577269746572205669727475616C2043C9
:103020006F6D506F7274000010B51A2008800A4846
:103030000168001D0468001D0068081809D00822F6
:103040000649FFF779F90549042210312046FFF7B8
:1030500073F90248801E10BDE8F7FF1F5E000020D4
:10306000F8B504460020ADF8000048880D46010A76
:10307000082948D2DFE801F04704091747473C45D3
:10308000D4F8B012207C0A6819E0207C02260028BF
:10309000D4F8B40205D0C16A684688470146467034
:1030A0003EE0816AF8E7C0B206282CD2DFE800F0E3
:1030B000030A1014181CD4F8B002426805E06946EF
:1030C00090471CE0D4F8B0028268E2B1207CF6E7B9
:1030D000D4F8B002C268F8E7D4F8B0020269F4E7A5
:1030E000D4F8B0024269F0E7D4F8B0028269ECE7A4
:1030F000207C40B9D4F8B402416B68468847014649
:103100000EE0207C20B129462046FFF7F5FEF8BDF1
:10311000D4F8B402016B684688470146072048701E
:10312000BDF8000048B1EA8852B1824200D9024697
:10313000ADF800202046FFF704FFE8880028E6D11C
:103140002046FFF70BFFF8BD70B5002300281ED006
:103150000446002502E06D1CEDB2641C2678002EAA
:10316000F9D1022404EB450414801278CA545B1C84
:103170000322CA5400245B1C06E0CA545B1CDAB26A
:103180008C54521CD3B2401C0278002AF5D170BD79
:1031900001004FF0000004D0012901D0022901D024
:1031A000022070470120704710B580B1D0F8B432CA
:1031B00013B10023C0F8B43209B1C0F8B012012134
:1031C00080F89C12027000F0BFF8002010BD0220B1
:1031D00010BD10B5D0F8C002FDF792FEBDE810405A
:1031E000FFF7D6BF10B5D0F8C002FDF763FEBDE80B
:1031F0001040FFF7CDBF2DE9F0411746044651B10D
:10320000D4F8B40242691AB194F89C02032851D050
:103210000220BDE8F081D4F89432002504F11400B6
:10322000022B03D0042B3AD0C3B33CE0D0E90363B4
:103230009E4207D9F11AC1608AB239462046FFF78B
:1032400053FE12E08068B0FBF3F103FB110199B962
:10325000984211D3D4F8981288420DD20022114618
:103260002046FFF741FEC4F8985200231A4619463B
:10327000204600F0C5F816E0D4F8B402C16829B1C0
:1032800094F89C02032801D12046884780212046DB
:1032900000F036F92046FFF749FE04E0FFE7802101
:1032A000204600F02DF994F8A002012804D184F8FA
:1032B000A05201E0204690470020AAE770B51546CD
:1032C000044649B1D4F8B40282691AB194F89C0258
:1032D000032830D0022070BDD4F8941204F5AA70EF
:1032E000032902D005291ED027E0D0E903218A4214
:1032F0000BD9531AC3600846834200D303469AB2DF
:1033000029462046FFF7E8FD17E0D4F8B40201692A
:1033100029B194F89C02032801D120468847204611
:10332000FFF71CFE09E000200146C4F89402204685
:1033300000F0E6F801E020469047002070BDD0F88C
:10334000C002FDF78EBF000010B504461C481D49A1
:10335000C0F8E842C4F8C0020160082141600221BF
:10336000816000218161C1610162FEF7C9F808B185
:10337000FDF775FA0022D4F8C0021823114604F5AF
:103380003074FDF765FD5823002280212068FDF789
:103390005FFDC023002281212068FDF759FD4FF415
:1033A0008873002201212068FDF752FD4FF48073DD
:1033B000002282212068FDF74BFD002010BD000097
:1033C000DC120020005C00400A0601F07F01D0F80A
:1033D000C00201EB810100EBC10002D590F82A0088
:1033E000704790F86A01704710B51C461346D0F834
:1033F000C0022246FDF73EFFBDE81040FFF7C8BE01
:1034000010B5D0F8C002FDF765FFBDE81040FFF72A
:10341000BFBE70B50022044640231146FFF7E4FF0B
:1034200040260125C4F864613346002280212046ED
:10343000C4F85851FFF7D8FF6662A56184F89C5222
:103440000020C4F894026060C4F8A402D4F8B80262
:1034500028B1D4F8B40200214268204690470020E9
:1034600070BD90F89C12042903D190F89D1280F849
:103470009C120020704710B590F89C12032904D1CB
:10348000D0F8B412C96901B18847002010BD017499
:103490000020704710B5D0F8C002FEF7E0F8BDE894
:1034A0001040FFF775BE70B5044600F52A7005465A
:1034B00000F04AF80120C4F89402B4F8AE02C4F84F
:1034C000980294F8A80210F01F010AD001290DD02B
:1034D000022910D000F08001204600F011F80020F1
:1034E00070BD2946204600F09EF8F8E729462046A0
:1034F00000F0CAF9F3E72946204600F01DF9EEE78F
:1035000010B5D0F8C002FDF7FEFEBDE81040FFF791
:103510003FBE10B5D0F8C002FEF7BCF8BDE81040C1
:10352000FFF736BE90F89C1280F89D12042180F8B7
:103530009C120020704710B5D0F8C002FDF71CFFA8
:10354000BDE81040FFF724BE0A7802704A78427046
:103550008A78CB7802EB032242800A794B7902EB1E
:10356000032282808A79C97902EB0121C1807047E8
:103570000246002011B1C2F8B41270470220704711
:1035800010B5D0F8B42202241AB11268904700B9DD
:103590000024204610BD000070B50E461E4D8978EF
:1035A00004462970012931D894F89C0202280BD0D6
:1035B00003280FD031462046FFF79EFC297820468D
:1035C000BDE87040FFF781BCD9B10320616084F889
:1035D0009C0209E071B16068884212D0C1B22046F5
:1035E000FFF773FC297861602046FFF7C9FF0228C6
:1035F0000CD006E0022084F89C0220466160FFF7B0
:1036000064FC2046BDE87040FFF7A8BC3146204668
:10361000BDE87040FFF770BC1001002010B5FFF747
:1036200078FF002010BD2DE9F0410A78002612F045
:10363000600208D0202A01D0402A70D1D0F8B422EC
:10364000926890476DE04B78002201250A2B66D2E4
:10365000DFE803F0405D6557650805652C29FFF735
:10366000FFFC5EE004468888D8B9C888C8B9488895
:10367000802816D200F07F0794F89C02032810D00F
:1036800084F89E7239462046FFF704FF2046FFF774
:1036900065FC1FB1022084F89C0242E084F89C5231
:1036A0003FE020463BE0FFF777FF3AE0CB88012B75
:1036B00035D190F89C32012B04D0022B02D0032B81
:1036C0002DD104E08260012200F1080116E0012200
:1036D000011D13E090F89C22012A03D0022A01D098
:1036E000032A1CD1CA88022A19D1C560D0F8A412B5
:1036F00009B10321C160022200F10C01FFF721FC96
:103700000FE0498801290CD1C0F8A45211E090F8CB
:103710009C32012B08D0022B06D0032B04D0FFF7DC
:10372000EBFB3046BDE8F08149880129F9D1C0F8AA
:10373000A422FFF713FCF4E72DE9F0410A46044602
:1037400010780027097910F060030AD0202B01D0EF
:10375000402B50D1D4F8B4021146836820469847D4
:103760008FE0C0F34110012806D05078D0B3012873
:103770002AD003283FD107E0D4F8B4021146836869
:103780002046BDE8F041184794F89C02022802D078
:10379000032872D10AE071B380296ED02046FFF76A
:1037A000AFFE80212046FFF7ABFE6AE0508838B9B3
:1037B00031B1802904D0D08810B92046FFF7A0FE8F
:1037C0002046FFF7CBFB5CE094F89C020228E2D095
:1037D000032852D1508898BB4806F1D02046FFF705
:1037E000F8FCEDE7FFE794F89C020026022803D0DE
:1037F000032842D112E040E009B180293DD10806FA
:1038000001F07F0000EB800004EB800101D5143152
:1038100001E001F5AA7102220E602AE0080601F01B
:103820000F0000EB800004EB80000AD5806920B314
:1038300001F07F0000EB800004EB800514350BE005
:103840001FE0D0F85801C0B101F07F0000EB80000C
:1038500004EB800505F5AA7541B1802906D0204604
:10386000FFF7B2FD10B10120286000E02E600222B7
:1038700029462046FFF765FB03E011462046FFF787
:103880003BFB3846BDE8F08170B5054608780C462C
:1038900010F0600003D0202801D0402816D195F800
:1038A0009C02012803D0022801D003280ED12079E0
:1038B00001280BD8D5F8B402826828469047E188E1
:1038C000014306D12846FFF749FB02E02846FFF7EF
:1038D00013FB002070BD704700487047BC100020EB
:1038E0002DE9F0470C78002630F8243048F68F1286
:1038F0001340CA78002A7DD0012A7CD0022A02D047
:10390000032A7FD0012648F28002134320F8243096
:103910000D7830F8254048F68F731C402C43144333
:1039200020F825400D7B48F2C00C48F6BF744CF2DD
:1039300080074BF68F79EDB391F80080C24630F8DE
:10394000285048F280181D4045EA080520F82A5002
:10395000B0F8505091F80080054405EB0815B1F817
:10396000088028F00108A5F80084B0F8505091F8BC
:103970000080054405EB0815B1F80A8028F001081D
:10398000A5F808844D78002D0D7830F825804FEA91
:1039900048487DD0B8F1000F07DA30F8258008EAF2
:1039A000030848EA070820F825800F7830F82750E8
:1039B0006D0600E02CE006D530F827501D4045EAA2
:1039C0000C0520F82750CB780D78012B30F82530E6
:1039D00003EA040301D083F02003134320F82530C9
:1039E0000B7830F8231001EA0901114320F8231065
:1039F000304602E003E008E004E0BDE8F08743F46D
:103A0000007380E743F4C0637DE743F480637AE7A3
:103A10004D782DB3B0F850500F78054405EB0715DD
:103A2000CF8827F00107A5F800740F7830F82750E9
:103A30006D0606D530F827501D4045EA0C0520F8E4
:103A40002750CB78012B06D00B7830F8231021407B
:103A500081F02001C9E70B7830F823102140C4E73A
:103A6000B0F850400D78044404EB0514CD8825F0DF
:103A70000105A4F80854B0F850400D78044404EB54
:103A800005140D6904F20C4475B13E2D14D800E004
:103A900030E04FEA550CED0701D00CF1010C4FF668
:103AA000FF7505EA8C2511E0258825F4F845258069
:103AB000258845F4004509E04FEA551CED0601D183
:103AC000ACF1010C4FF4004545EA8C2525800D78BA
:103AD00030F82540640405D530F825401C403C43AF
:103AE00020F825400B7830F8231001EA090181F411
:103AF00040517AE7B8F1000F07DA30F8258008EA7C
:103B0000030848EA070820F825800F7830F8275086
:103B10006D0606D530F827501D4045EA0C0520F803
:103B200027500D7830F8253003EA090383F4405319
:103B3000134320F825308EE7002070472DE9F0432D
:103B400091F80C804F780A7848F6BF7C4BF68F7955
:103B500048F2800348F2C0054CF2800648F68F74A4
:103B6000B8F1000F28D0002F30F822704FEA4747F5
:103B700048D0002F05DA30F822702740374320F86C
:103B800022700A7830F822707F0605D530F822704E
:103B900027402F4320F822700D7830F8252022404E
:103BA000324320F825200C7830F8242002EA0C0259
:103BB0001A4320F824201AE07FB130F822607606FC
:103BC00005D530F8226026402E4320F822600A787E
:103BD00030F8221001EA0C010EE030F822506D049A
:103BE00005D530F822502540354320F822500A7878
:103BF00030F8221001EA0901194320F822100020B0
:103C0000BDE8F083002F05DA30F8227027403743F3
:103C100020F822700A7830F82260760605D530F850
:103C2000226026402E4320F822600E7830F82620AD
:103C300022402A4320F826200C7830F8242002EA7B
:103C400009021A4320F82420C1E700207047002011
:103C50007047012120F8401F0021018081800182EE
:103C60000846704730F8401F21F43F410180002092
:103C700070470020704730B50A7BB2BB4A7848F6DF
:103C80008F7548F28004C2B10B7830F823205206B9
:103C900007D530F823202A4048F2C0052A4320F8EF
:103CA0002320CA78012A20D00A7830F8221048F65A
:103CB000BF73194081F0200114E00A7830F82230F7
:103CC0005B0407D530F822302B404CF280052B43A3
:103CD00020F822300A7830F822104BF68F73194002
:103CE00081F44051214320F82210002030BD10B54E
:103CF0004A780978002A48F2800330F8212005D05C
:103D000048F6BF74224082F0100204E04BF68F7434
:103D1000224082F480521A4320F82120002010BD56
:103D20002DE9F04F0D464A78097B04464FF0000913
:103D300048F68F7A48F2800B4FF6FF774FF4004831
:103D4000012A09D000297DD0E87802287BD00128FB
:103D50007AD00120BDE8F08FAE692869864200D98B
:103D6000064681B1E97802291CD0287834F8201061
:103D70004906B4F85010214401EB001070D5A0F8AA
:103D80000C646A8928E1B3B2EA882046696900F0C8
:103D900065FAB4F850002978204400EB0110A0F82F
:103DA000046435E1296A814276D9297834F8210002
:103DB00048F2801200EA0A00104324F82100286A21
:103DC000801B2862287834F820104906697876D557
:103DD00011B1012921D027E0B4F85010214401EBA2
:103DE000001000F20C404EB13E2E0FD87108F207C1
:103DF00000D0491C07EA8121018015E0018821F4E7
:103E0000F8410180018841F40041F5E77109F206AB
:103E100000D1491E48EA8121EEE7B4F8502011197B
:103E200001EB0010A0F80C646A89B3B220466969FE
:103E300000F014FA6869304468612969286A884288
:103E400006D902E0EDE00DE178E1801B286202E096
:103E50000646C5F82090687818B1012824D02BE0D8
:103E6000B7E0B4F850002978204400EB011000F2CC
:103E700004404EB13E2E10D87108F20700D0491C04
:103E800007EA8121018017E0018821F4F8410180CF
:103E9000018841F40041F5E786E07109F20600D19E
:103EA000491E48EA8121EDE7B4F850002978204402
:103EB00000EB0110A0F804642A896FE0FFE711B15C
:103EC000012921D027E0B4F85010214401EB001063
:103ED00000F204404EB13E2E0FD87108F20700D018
:103EE000491C07EA8121018015E0018821F4F8418D
:103EF0000180018841F40041F5E77109F20600D123
:103F0000491E48EA8121EEE7B4F85010214401EB44
:103F10000010A0F804642A89B3B22046696900F051
:103F20009DF96869304468612969286A884202D924
:103F3000801B286202E00646C5F82090687810B120
:103F4000012822D029E0B4F850002978204400EB61
:103F5000011000F20C404EB13E2E0FD87108F2074E
:103F600000D0491C07EA8121018016E0018821F474
:103F7000F8410180018841F40041F5E77109F2063A
:103F800000D1491E48EA8121EEE7B4F85010081923
:103F9000297800EB0110A0F80C646A89B3B22046BE
:103FA000696900F05BF933E02A7834F8220048F6BA
:103FB0008F63184040EA0B0024F82200B4F8500048
:103FC0002A78204400EB02108BB2A0F804342A892E
:103FD000E5E7A0F804642A89B3B22046696900F0D5
:103FE0003DF9687810B1012808D011E0297834F83B
:103FF000210048F2C00200EA0A0006E0297834F8FD
:1040000021004CF2800200EA0A00104324F821004B
:10401000297834F8210048F6BF72104080F0300053
:10402000DFE0A9692869814202D9091AA961B6E0CD
:104030000846C5F81890B2E0088820F4F8400880D7
:10404000088840F400400BE03E2876D84208C007BC
:1040500000D0521C07EA822002E000BF48EA82201A
:104060000880B6E092B9B4F850002978204400EBFB
:104070000110296900F2044069B13E2913D84A08A9
:10408000C90700D0521C07EA82210180687888B1F4
:10409000012832D03AE0018821F4F84101800188FA
:1040A00041F40041F1E74A09C90600D1521E48EA2D
:1040B0008221EAE7B4F850002978204400EB01108F
:1040C000296900F20C4049B13E290FD84A08C907B6
:1040D00000D0521C07EA8221018017E0018821F4F8
:1040E000F8410180018841F40041F5E74A09C90619
:1040F00000D1521E48EA8221EEE7B4F850100819A8
:10410000297800EB0110298AA0F80C14E869B0B3F3
:10411000297834F82100420401D5420603D444F240
:104120004002104255D134F8210048F2C00200EAA2
:104130000A00104324F821004BE03CE0A9692869FB
:10414000814202D9091AA96102E00846C5F818900F
:104150008AB9B4F850102A78214401EB021101F217
:10416000044168B13E2813D84208C30700D0521C4E
:1041700007EA82220A80697889B1012921D028E0E2
:104180000A8822F4F8420A800A8842F40042F1E7E1
:104190004209C30600D1521E48EA8222EAE7B4F877
:1041A00050102A78214401EB021101F20C41002841
:1041B0007FF44AAF40E74209C0067FF44FAF521E7A
:1041C0004CE7B4F8502011192A7801EB0211A1F83C
:1041D0000C04297834F821004BF68F72104080F4DB
:1041E000405040EA0B0024F821000020B2E50021F5
:1041F000A0F844104FF43F41A0F840100020704751
:104200000148FDF7D3B80000DC1200200148FDF79B
:10421000CDB80000DC120020B0F844007047000068
:1042200010B500EB42005C0800F5806009D000BFCB
:1042300030F8042B01F8012B120A01F8012B641E3F
:10424000F6D1DA0701D00088087010BD0020704751
:1042500011B98021A0F84C100020704710B55B1CEC
:1042600000EB42005B0800F5806009D011F8012BDB
:1042700011F8014B42EA042220F8042B5B1EF5D111
:1042800010BD000038B50024224604210C4800F07F
:104290003BFD0C49C86940F00400C861C8690322AD
:1042A00000F00400009005211E20FCF79FFD1E2059
:1042B000FCF78EFD0448FDF749FE204638BD00009E
:1042C000000C01400010024018030020FEE700002F
:1042D0007CB5044600201D46164600290BD0491E19
:1042E000CDE90041044B6A462946304600F0E8F823
:1042F000009A002111707CBDEF4B00080907090EE0
:10430000002804DB00F1E02080F80014704700F082
:104310000F0000F1E02080F8141D704702E008C88B
:10432000121F08C1002AFAD170477047002001E02F
:1043300001C1121F002AFBD1704700002DE9FF5F69
:1043400082B00021DDE90430020DDDF840B0034306
:1043500018D044F61050A2F2FF32424315141198BF
:1043600001281FD0A5EB0B00401C5FEA000A4FF0AC
:1043700000064E4FDFF83891B046504615D5CAF1C9
:10438000000413E0119801244AA3012801D16FEA27
:104390000B010298119AC0E90031C0E9024206B04F
:1043A000BDE8F09FCBF10000DFE704460021404A62
:1043B000491842EB0450CDE9001012E0E00707D0A5
:1043C00032463B4640464946FCF71AF88046894645
:1043D00032463B4610461946FCF712F806460F4691
:1043E0006410002CEAD1DDE90401DDE90023BAF113
:1043F000000F06DAFCF704F842464B46FCF700F8DB
:1044000005E0FCF76FF842464B46FCF76BF80446B4
:104410000E460022284BFCF7EDF803D84FF0FF3092
:10442000014607E00022254B20463146FBF741FFBD
:10443000FCF7C7F8102409E0002C0ADB0A2200234D
:10444000FBF706FF039B30321A55641E50EA010247
:10445000F2D1641C039AC4F111031444119A012A85
:1044600003D0012208430DD10AE0084304D0002004
:104470004FF0110B119072E7A3EB0B056D1E0DE0D1
:104480005B4504DD4FF0000205F1010504E003DAAD
:104490004FF00002A5F10105002AECD00298119915
:1044A000C0E90231C0E9004579E70000000014408E
:1044B0000000F03F300000000000F0430000E03F4B
:1044C0002DE9FF4F95B09B468946064600250FE231
:1044D000252877D100242746F84A0121059400E0D9
:1044E000044316F8013F203B01FA03F01042F7D1D4
:1044F00030782A2811D06FF02F033078A0F13002E5
:10450000092A16D8059A44F0020402EB820203EB52
:1045100042021044761C0590EFE759F8042B0592EF
:10452000002A03DA504244F40054059044F0020497
:10453000761C30782E2816D116F8010F44F00404AA
:104540002A280DD06FF02F023078A0F13003092B0C
:1045500009D807EB870302EB4303C718761CF3E780
:1045600059F8047B761C30786C280FD006DC4C2878
:1045700017D068280DD06A2814D104E0742810D010
:104580007A280FD10DE044F400140AE044F48014BA
:1045900001E044F440147278824202D104F58014A0
:1045A000761C761C307866280BD013DC582877D020
:1045B00009DC002875D04528F6D04628F4D04728D5
:1045C0001AD19DE118E0632835D0642879D0652898
:1045D00012D195E1702873D008DC6728F1D06928E2
:1045E0006FD06E280DD06F2806D1B5E073282CD07F
:1045F000752875D0782874D05A46179990476D1C45
:1046000075E1C4F30250022809D003280DD0D9F86F
:10461000001004280DD00D6009F1040967E1D9F8F4
:104620000010EA17C1E90052F6E7D9F800100D8032
:10463000F2E70D70F0E719F8041B8DF80010002068
:104640008DF80100EA46012003E059F804AB4FF071
:10465000FF3061074FF0000102D40DE008F10101C5
:104660008846B9420FDA8045F8DB1AF808100029AD
:10467000F4D108E008F1010188468142FADB1AF81A
:1046800008100029F6D105985B46A0EB08072146E3
:104690003846179A00F094FA284400EB080507E022
:1046A0004DE029E10DE01AF8010B5A4617999047A1
:1046B000B8F10108F7D25B4621463846179A13E154
:1046C00042E00A220092C4F302524FF0000A022A8A
:1046D00008D059F804CB032A4FEAEC710AD00DE058
:1046E00029E02AE009F1070121F00702F2E802C1FE
:1046F000914609E00FFA8CFC4FEAEC71042A03D1D1
:104700004FFA8CFC4FEAEC71002907DA0A460021C7
:10471000DCF1000C61EB02012D2202E0220504D540
:104720002B228DF80420012203E0E20701D0202291
:10473000F7E7904659E00A2102E010220DE010212F
:104740004FF0000A00910BE010224FF0000A44F0F5
:1047500004040827009203E008224FF0000A0092A8
:10476000C4F30252022A05D059F804CB0021032ACF
:1047700008D009E009F1070121F00702F2E802C1BF
:10478000914605E01FFA8CFC042A01D10CF0FF0CC5
:104790004FF00008220728D5702806D0009B83F030
:1047A000100353EA0A0305D00EE040228DF80420DE
:1047B000012208E05CEA010206D030228DF80420D4
:1047C0008DF8050002229046009B83F0080353EA0F
:1047D0000A030AD15CEA010201D1620705D5302241
:1047E0008DF804204FF001087F1E582804D034A013
:1047F00003900EA802900DE036A0F9E753466046FC
:10480000009AFBF725FD84460398825C0298401EBF
:10481000029002705CEA0100F0D1029806A9081A21
:1048200000F1200A600702D524F4803400E001275B
:10483000574502DDA7EB0A0000E0002000EB0A016B
:10484000009005984144401A0590E00306D45B4669
:104850002146179A059800F0B3F90544002706E0B1
:1048600001A85A46C05D179990476D1C7F1C4745AB
:10487000F6DBE0030CD55B462146179A059800F05D
:104880009FF9054404E030205A46179990476D1C63
:104890000099481E00900029F5DC08E00298029972
:1048A0005A460078491C0291179990476D1CBAF13D
:1048B0000001AAF1010AF1DC65E10000092801000C
:1048C0003031323334353637383961626364656686
:1048D0000000000030313233343536373839414248
:1048E000434445460000000000F058F90544761C9A
:1048F000307800287FF4ECAD19B02846BDE8F08F81
:10490000620700D4062709F1070222F0070CFCE831
:104910000223E14603F000485FEA080C02D00FF2E0
:10492000702C0DE05FEA045C02D50FF2682C07E002
:104930005FEAC47C02D00FF2602C01E0AFF2700C91
:104940004FF0FF3823F00043CDF850C065280CD05D
:1049500006DC452809D046281DD047283DD13DE03A
:10496000662818D067287ED138E00021112F01DB9E
:10497000112000E0781CCDE9000106A90EA8FFF780
:10498000DDFCDDE90F010E9A03910021009207F191
:10499000010A04914DE04FF000400097CDE901106D
:1049A00006A90EA8FFF7CAFCDDE90F0203920E9BD1
:1049B00011990022DDF80CA00093049211B9791C22
:1049C00000EB010AB7EB0A0004D4C0F1FF3007F195
:1049D000010A0490AAEB0700019044E0012F00DADD
:1049E00001270021112F01DD112000E03846CDE91B
:1049F000000106A90EA8FFF7A1FCDDE90F010E9A40
:104A00000391002104910092BA4621070CD4039926
:104A1000514500DA8A46BAF1010F05DD009AAAF184
:104A20000101515C302908D0B84202DA10F1040FBC
:104A300006DA0121CDE9011015E0AAF10101E9E74B
:104A4000002805DC049901440491AAEB000102E06E
:104A5000411C514500DD8A460499401A401C0190D2
:104A60004FF000400290200704D40198504501DB2C
:104A7000CDF8048000208DF84F0002980DF14F070B
:104A8000B0F1004F25D02B200E9002984FF0020875
:104A900000280CDA404202902D200E9007E00A21F7
:104AA0000298FBF7BFFB3031029007F8011DB8F107
:104AB0000001A8F10108F2DC02980028EFD1791E6C
:104AC0000E980870307800F0200040F0450007F89C
:104AD000020D12A8C01B00F107081498007800B15D
:104AE000012000EB0A01019801EBE07105984144B7
:104AF000401A401E0590E00306D45B462146179AF3
:104B0000059800F05DF805441498007818B15A46ED
:104B1000179990476D1CE00324D55B462146179AF0
:104B2000059800F04DF805441CE00498002807DBC8
:104B3000DDE90301884203DD0098405C179901E03C
:104B4000179930205A469047049805F10105401CFA
:104B500004900198401E019004D12E205A461799C6
:104B600090476D1CBAF10001AAF1010ADDDC05E0F5
:104B700017F8010B5A46179990476D1CB8F10001C0
:104B8000A8F10108F4DC5B462146179A0598ABE6CC
:104B90002D0000002B000000200000002DE9F04156
:104BA000044600251E461746880404D405E039460D
:104BB0002020B0476D1C641EF9D52846BDE8F08161
:104BC0002DE9F041044600251E469046C80301D554
:104BD000302700E02027880404D505E04146384608
:104BE000B0476D1C641EF9D52846BDE8F0814A68BF
:104BF000002A06D00A68531C0B6010704868401EDB
:104C0000486070470B4CA51420212046FCF750F853
:104C10000146002000F014F8022806D1294620465B
:104C2000FCF74BF804A000F0D1FD052000F0A4F83B
:104C3000EAE70000000C014068656C6C6F0D0A002B
:104C400070B50024012801D9002070BD0D4D00234E
:104C5000AA1C2E5C3EB139B1115C04290ED32B5431
:104C6000135402240CE009B1135409E0115C042927
:104C700004D30121295413540C4601E0491C11545A
:104C8000204670BD0C0000202DE9F041DFF86C805B
:104C9000002408F108073E1F194D25E0325D7AB95E
:104CA0002146404618F801305B1CDBB208F80130A1
:104CB0007F2B01D9002343541249D8B2085C3855E0
:104CC000385D824205EBC400817913D209B9012213
:104CD00000E00022818855F83400FBF7F6FF305DD4
:104CE000401C3055641CE4B295F82000A042D5D891
:104CF000BDE8F0810029ECD0E9E7000000000020C9
:104D000024020020606600080C4B10B593F8204088
:104D1000042C01D3012010BD43F8340093F8200087
:104D200003EBC000818093F8200003EBC000827188
:104D300013F8200F401C1870002010BD2402002022
:104D4000FBF7D6FFFDF748FEFDF770FBFDF710FB04
:104D5000FDF7BCFBFDF7E0FBFDF746FCFDF760FC53
:104D6000FDF70EFCFFF78EFA00F042F8FDF728FB86
:104D700000F05AF8FEE7000010B5EFF3058149B9DD
:104D8000EFF3108131B908490968022905D1EFF321
:104D9000118111B16FF0050403E0002408B100F0A7
:104DA00073FE204610BD0000E800002010B54FF053
:104DB0000001EFF30582BAB9EFF31082A2B90B4AF2
:104DC0001268022A02D1EFF311826AB948B1D0E920
:104DD00002202AB1202807D3104600F049FF02E044
:104DE00010B900F037FF0146084610BDE80000206A
:104DF000EFF3058058B9EFF3108040B9094908680E
:104E0000022801D030B109E0EFF3118030B16FF02A
:104E10000500704701200860002070474FF0FF3008
:104E200070470000E800002010B5EFF3058060B97E
:104E3000EFF3108048B90B490868022802D0012816
:104E400006D00BE0EFF3118040B16FF0050010BD0C
:104E50000220086000F080FE002010BD4FF0FF30FF
:104E600010BD0000E8000020F8B514464FF0000522
:104E7000EFF305826ABBEFF3108252BB164A126849
:104E8000022A02D1EFF311821ABB10B309B3ACB1FD
:104E9000D4E902326BB1502A1BD32269CAB16769C7
:104EA00000FB01F6B74214D30025009500F06EFF19
:104EB00007E072B9226962B9626952B9002200F052
:104EC00041FF050005D00CB1216800E0002100F091
:104ED000A5FD2846F8BD0000E8000020F0B585B02B
:104EE0004FEA01034FF00004EFF305810394A1BBE7
:104EF000EFF3108189BB21490968022902D1EFF340
:104F0000118151BB48B3402618218DF8104004ADE3
:104F100042B3176807B13D4697691FB139467F1EF6
:104F2000382F02D21779FF0702D0002005B0F0BD5C
:104F3000576907B1BE08D2F808C0BCF1000F0DD008
:104F4000D4685C2C18D312693AB137B18DE80610D9
:104F50003246294601F0A3F903900DE0D7685FB906
:104F600012694AB903AACDE90012B2B2294601F08A
:104F700069F9012800D003940398D7E7E8000020DE
:104F8000FDF76AFB0120FFF7F7FEFBE72DE9F04193
:104F9000134C0F46054666692068001D00F046FC6C
:104FA000681C07D137B12168BDE8F0410D48091DE3
:104FB00000F08ABC20683544B5424560216805D2BE
:104FC000A068BDE8F041091D00F066BC6068091DDD
:104FD00000F062FC206B854200D22563BDE8F081C1
:104FE00098000020B81A00202DE9F041054600F095
:104FF00077FC2D4C2069401C206120682B4F10B19C
:10500000E06930B32BE025602069012827D1002614
:1050100006EB860007EB800000F030FC761C382E93
:10502000F6D3234800F02AFC2148143000F026FC77
:105030001F48283000F022FC1D483C3000F01EFCC8
:105040001B48503000F01AFC194860601430A06012
:1050500005E02068E96AC06A884200D82560E06AF5
:10506000401CE0626864E86AA169884200D9A061D6
:1050700000EB800007EB8000291D00F025FC00F00C
:105080004FFCE06900280CD02068E96AC06A8842B9
:1050900007D208494FF080500860BFF34F8FBFF32D
:1050A0006F8FBDE8F08100009800002008160020F6
:1050B000681A002004ED00E038B500F011FC104C37
:1050C000A068C8B90F4800F0D9FB0E48143000F0B2
:1050D000D5FB0C482060143060600A4B0020283358
:1050E000009003F1500210210A2000F04FFEA06052
:1050F00010B105A100F092FCBDE8384000F010BCF2
:10510000D4000020CC1A0020546D72510000000021
:1051100030B4026C0B46002A0BD0C1681144C16048
:105120004468A14201D30168C16030BC1846FBF756
:1051300055B830BC70472DE9F041856B17460446E1
:105140000026026C82B1C7B1E068FBF747F8E1685E
:10515000206C091AE1602268914202D26168081A43
:10516000E060022F16D017E02068A8B9606801F04F
:1051700039F90646002060600EE0A068FBF72EF8C3
:10518000216CA0680844A0606168884204D320684C
:10519000A06001E005B16D1E6D1CA5633046BDE841
:1051A000F08110B5044690F8590058B101280CD090
:1051B00002280FD0502080F31188BFF34F8FBFF328
:1051C0006F8FFEE7206B00F0BFFB2046BDE810406C
:1051D00000F0BABB10BD000010484FF44061420718
:1051E00006D0C01D0D4920F00700411AC1F54061ED
:1051F0000B4A00230144C2E900030839103A21F0A8
:10520000070111604B600B600B1AC0E9001393603B
:105210004FF000405360D060704700009C1F00209A
:10522000FC000020144E154CA6F29C474FF080580D
:10523000DFF84C9012E000BF00F052FBF068C56848
:10524000281D00F0F3FA2069401E2061E068401E2E
:10525000E06000F065FB2846FFF7A3FFE068002848
:10526000EAD138680128F9D9C9F80080BFF34F8F17
:10527000BFF36F8FF2E70000A41A0020980000200F
:1052800004ED00E070B51D46049C51B1C4F8002047
:10529000C4E90F010121204600F0ACFD84F84C5018
:1052A00070BD2460F4E72DE9F0470E46DDE909847E
:1052B0001746824691009946089DA522206BFAF771
:1052C0009FFF6FF00301206B01EB8701084420F082
:1052D0000707780707D0502080F31188BFF34F8F5E
:1052E000BFF36F8FFEE72218315C82F83410315C17
:1052F00011B1401C1028F6D3002684F84360382DE5
:1053000000D33725E562C4E91356201D00F0C1FA29
:1053100004F1180000F0BDFA2461C5F138006462A0
:10532000A061666584F858604A465146384600F0E8
:105330003BFA2060B8F1000F01D0C8F80040BDE88A
:10534000F087000030B5114900E011460A6882423A
:10535000FBD34B685C18844203D140681844486012
:10536000084643681C18944209D1084C103C246834
:10537000A24209D052681A4442600A681268026068
:10538000814200D0086030BD0460F9E7FC000020D5
:1053900070B5002441600B4D0061914206D8D11ACE
:1053A0008269914206D2011D686807E09A4203D2E1
:1053B000994201D3012403E0011D286800F06CFA32
:1053C000204670BDD400002010B5044600F088FAD5
:1053D000A06B28B15FF0000400F0A2FA204610BDD7
:1053E0000124F9E730B589B0304D55E00498002824
:1053F00006DADDE90601059A9047049800284BDBA0
:10540000069C606910B1201D00F010FA02A800F09F
:10541000B9F8024604980A283ED2DFE800F00505F4
:10542000053D263705053D260598A169034601443B
:105430002046FFF7ADFF00B3616A20468847E06968
:10544000012829D1002000900598A1690023421865
:105450001946204601F0D0F878B9502080F3118821
:10546000BFF34F8FBFF36F8FFEE70598A06128B1A0
:10547000811813462046FFF78BFF0DE0502080F384
:105480001188BFF34F8FBFF36F8FFEE794F82C00A6
:1054900010B9204600F058FA002204A9A86800F0CC
:1054A000FBFD0028A2D109B030BD0000D4000020CF
:1054B0002DE9FC410F46054600F092FB01A800F0E3
:1054C00061F80446019818B101F004F8BDE8FC81C8
:1054D000224EAFB170680068A8B30027291B3A4676
:1054E000B06800F0AFFA00F0F5FF0028EED11C49DB
:1054F0004FF080500860BFF34F8FBFF36F8FE5E729
:10550000A542EBD800F0E6FF30682746C068C468C3
:10551000201D00F08BF9E069012810D1A0692B460D
:1055200041193A462046FFF733FF40B100200346B9
:10553000014600902A46204601F05EF820B1616ADB
:1055400020468847C2E707E0502080F31188BFF368
:105550004F8FBFF36F8FFEE70127BFE7D400002016
:1055600004ED00E006484168096829B14168C9684E
:10557000C9684968016370474FF0FF31FAE70000DE
:105580009800002070B5054600F0C2FE064E0446A5
:105590003069844203D200F009F8012000E00020C5
:1055A00028602046346170BDD4000020F8B5194D44
:1055B0001FE0C068C4680668201D00F037F9616A02
:1055C00020468847E069012813D1A0693044B042E1
:1055D00006D924616060211D286800F05DF908E0AB
:1055E00000200346014600903246204601F004F8B0
:1055F00038B1286801680029DBD16968C5E9001065
:10560000F8BD502080F31188BFF34F8FBFF36F8F29
:10561000FEE70000D400002008484068401C4FF01E
:10562000500080F3118804D0BFF34F8FBFF36F8F0A
:10563000FEE7BFF34F8FBFF36F8FFEE7040100203B
:10564000074C2068016841B1C0680021D0F8000013
:10565000FFF72EFFFFF7C6FEF3E701210020F7E773
:10566000D40000202DE9F041044600F039F994F906
:10567000455004F1240609E0606A48B1304600F064
:10568000F1FE08B100F02EFA6D1E6DB2002DF3DCB4
:105690004FF0FF3684F8456000F042F900F020F941
:1056A00094F9445004F1100709E0206948B13846E4
:1056B00000F0D8FE08B100F015FA6D1E6DB2002D95
:1056C000F3DC84F84460BDE8F04100F029B9000043
:1056D0002DE9F0410546002700F082FA314E30688E
:1056E00008B9FFF779FDF06805424BD1C5B308351D
:1056F00068070ED005F00700C0F1080005446807F0
:1057000007D0502080F31188BFF34F8FBFF36F8F06
:10571000FEE72DB37068854234D822481030014628
:105720000C6801E020460C466168A94202D221685B
:105730000029F7D131688C4224D0076821680160C4
:1057400060680837411B10290FD96019420708D03B
:10575000502080F31188BFF34F8FBFF36F8FFEE7A8
:1057600010E041606560FFF7EDFD61687068401A08
:105770007060B268904200D2B060F06801430020CF
:10578000C4E9000100F0A6FE780707D0502080F39E
:105790001188BFF34F8FBFF36F8FFEE73846BDE828
:1057A000F0810000EC00002010B5031F4FF0807462
:1057B0001C601B1F21F001011960191F024B0B60B7
:1057C000143940380A6010BD195600080FB41E2164
:1057D00000B589B00BAB68460A9AFEF779FDADF8C3
:1057E0001E000548002303226946006800F046FBBE
:1057F00009B05DF814FB0000200000200120FFF735
:10580000BBFAFBE7084C88B001226946206900F02A
:1058100043FC012804D1BDF81E106846FBF708F8C8
:105820000120FFF7A9FAEFE710000020D0E90132CC
:1058300001699A60D0E901235A604A68824201D125
:1058400082684A60002202610868401E0860086899
:1058500070470000034B036003F15C0008604020C8
:1058600010607047E41B0020034B036003F15C00F1
:105870000860802010607047401D002000F1080182
:105880004FF0FF32C0E90112C160016100210160E7
:10589000704700210161704730B50B685A1C02D077
:1058A00000F1080202E0026904E02246546825681B
:1058B0009D42FAD953684B6099608A6051600861D3
:1058C0000168491C016030BD42684A6093688B6082
:1058D00093685960916008610168491C01607047D4
:1058E000502080F31188BFF34F8FBFF36F8F0A49A9
:1058F0004868401C486001280CD10848006810F036
:10590000FF0F07D0502080F31188BFF34F8FBFF3F4
:105910006F8FFEE7704700000401002004ED00E0F7
:105920000849486828B1401E486001D180F31188B9
:105930007047502080F31188BFF34F8FBFF36F8FF4
:10594000FEE700000401002070B5002827D0144DA8
:10595000A0F108046168E868014207D1502080F393
:105960001188BFF34F8FBFF36F8FFEE722683AB104
:10597000502080F31188BFF34F8FBFF36F8FFEE786
:105980008143616000F02CF96068696808446860D0
:105990002046FFF7D7FCBDE8704000F09BBD70BD0E
:1059A000EC0000204FF0E0200021016181610549F9
:1059B0004FF47A720968B1FBF2F1491E4161072187
:1059C000016170479400002010B5FAF7E1FB11491E
:1059D00010280ED300F1E02090F8F0030A789042EE
:1059E00007D2502080F31188BFF34F8FBFF36F8F22
:1059F000FEE709480068896800F4E060884207D93A
:105A0000502080F31188BFF34F8FBFF36F8FFEE7F5
:105A100010BD0000040100200CED00E010B5084BA3
:105A2000002200BF53F832401CB1521C082AF9D39F
:105A300010BD43F8321003EBC201486010BD0000F6
:105A4000C815002070B515460E460446FFF748FFFE
:105A500094F944100020491C01D184F8440094F9C1
:105A60004510491C01D184F84500FFF759FFA06B90
:105A700028B92A46314604F1240000F051F82046A6
:105A8000BDE87040FFF7EEBD10B5020014D00F481E
:105A9000806B38B1502080F31188BFF34F8FBFF374
:105AA0006F8FFEE700F09CF800211046FFF76EFABA
:105AB00000F010FD002807D105494FF08050086024
:105AC000BFF34F8FBFF36F8F10BD00009800002011
:105AD00004ED00E002498A6A02604969416070474A
